:020000022000DC
:1060000000F000206D630200556302005763020038
:10601000596302005B6302005D6302000000000040
:106020000000000000000000000000005F630200AC
:106030006163020000000000636302006563020008
:10604000676302006763020067630200455D040046
:106050006763020067630200BD7C020067630200A1
:106060006763020067630200ED9403006763020048
:1060700067630200676302006763020067630200F0
:1060800067630200C128040075CC02006763020048
:106090002529040067630200E9C503006763020065
:1060A00067630200676302006763020067630200C0
:1060B0006763020067630200000000000000000048
:1060C00067630200676302006763020067630200A0
:1060D000676302006763020067630200000000005C
:1060E00000000000000000000000000000000000B0
:1060F00000000000000000000000000000000000A0
:10610000000000000000000000000000000000008F
:10611000000000000000000000000000000000007F
:10612000000000000000000000000000000000006F
:10613000000000000000000000000000000000005F
:10614000000000000000000000000000000000004F
:10615000000000000000000000000000000000003F
:10616000000000000000000000000000000000002F
:10617000000000000000000000000000000000001F
:10618000000000000000000000000000000000000F
:1061900000000000000000000000000000000000FF
:1061A00000000000000000000000000000000000EF
:1061B00000000000000000000000000000000000DF
:1061C00000000000000000000000000000000000CF
:1061D00000000000000000000000000000000000BF
:1061E00000000000000000000000000000000000AF
:1061F000000000000000000000000000000000009F
:10620000344935480A1A02D0072291438D46334952
:1062100033480A1A06D00722914381F309880222E3
:1062200082F314882F483049304A00F042F8304851
:106230003049314A00F03DF830483149314A00F0E8
:1062400038F831483149324A00F033F831483249A0
:10625000324A00F02EF832483249334A00F029F829
:1062600032483349334A00F024F833483349002296
:1062700000F02AF832483349002200F025F832486D
:106280003249091A082902DB0022026041601F48D6
:106290001F49884205D00268043003B4904703BC0C
:1062A000F7E700208646EC4600200021284A904768
:1062B000FEE7884207D0521A05D0037801300B70F0
:1062C0000131013AF9D17047884202D002700130A1
:1062D000FAE7704700F0002000E8002000F00020FE
:1062E00000F000204C9D0400A02D0020502F002025
:1062F000A4630200A4630200267604004C9D0400FF
:10630000A02D0020A02D00207477040074770400D5
:1063100074770400747704007477040074770400C1
:1063200074770400747704004C9D0400FC9E040004
:10633000502F0020502F0020502F00203C630020C1
:106340003C6300203C6300203C6300203C6700204D
:10635000717F0200FEE7FEE7FEE7FEE7FEE7FEE7ED
:10636000FEE7FEE7FEE7FEE7704700BF094880470B
:1063700009484FF007018843854608488047084888
:10638000016841F470010160BFF34F8FBFF36F8F5D
:10639000FFF736BF6963020000F0002009CC03005C
:0463A00088ED00E0A4
:1063A40030B583B004461546214B1B6813F4804F67
:1063B40003D0204B1B68032B17DCA36B04F13C01B7
:1063C4002046984794F93C302B7094F83D306B701C
:1063D40094F83E30AB7094F84030EB70636C0BB1C2
:1063E400A26C6AB1AB6003B030BD134BD3F8043573
:1063F400124A0092B2221249042007F069FDDCE738
:106404001CF014FBE16C1CF017FB4FF47A7303FBD4
:1064140000F0C20B636CB3EBD03F05D3B0F5004F73
:1064240002D39B1AAB60DEE70023AB60DBE700BF5F
:10643400B02E0020AC2E002000100140E8770400AC
:10644400DA77040010B584B00446836C0BB9426C4F
:1064540002B143BB94F93C308DF8043094F83D30DC
:106464008DF8053094F83E308DF8063094F84030BD
:106474008DF8073094F83F308DF8083094F84130A7
:106484008DF80930636C039301A9204620F06AFC5F
:1064940094F850303BB9636B04F13C0120469847B3
:1064A400012384F8503004B010BD000030B583B02F
:1064B4000446036B18681CF0A3FAA06C40BB606C24
:1064C40020B3410CC00310F5FA704FF47A724FF008
:1064D400000341F1000120F0D7FEB0F1807F2BD200
:1064E400042832D9236B2246014618681CF06AFA44
:1064F40005461CF09BFAE06445B11D4B1B6813F480
:10650400804F03D01B4B1B68002B26DC03B030BD2F
:10651400256B410CC00310F5FA704FF47A724FF0FA
:10652400000341F1000120F0AFFE01462246286835
:106534001CF048FA0546DFE7236B22466FF07F41E3
:1065440018681CF03FFA0546D3E7236B2246052161
:1065540018681CF037FA0546CBE7074BD3F8043527
:10656400064A009268220649012007F0B1FCCDE7F3
:10657400B02E0020AC2E002000100140F47704005F
:10658400DA77040038B50446049D002180F85010E1
:1065940092F9001080F83C10517880F83D10917801
:1065A40080F83E10D17880F84010117980F83F10BF
:1065B400527980F8412003B31A465B6883641368F8
:1065C40043642046FFF73EFF2046FFF76FFF9DB16F
:1065D40094F93C302B7094F83D306B7094F83E3055
:1065E400AB7094F84030EB7094F83F302B7194F812
:1065F40041306B71636CAB6038BD83644364E0E726
:1066040038B50446836CA3B9456CB5B1690CE8038D
:1066140010F5FA704FF47A724FF0000341F1000163
:1066240020F032FEB0F1807F0BD3A5F2FF15656434
:1066340003E000238364FFF705FF2046FFF736FFDE
:1066440038BD002363642046FFF7FCFEF5E7000035
:1066540088B110B504460B4BC362436B6BB1836BBB
:106664006BB120F04DFB00B110BD074A0021206B37
:106674001CF092F9F8E70E2070470E20F4E70E2084
:10668400F2E700BF147804000566020008B5064B63
:106694001B681BB906E0044B1B68984714F09EF86E
:1066A4000028F8DA08BD00BF502F002010B50C46B2
:1066B400134B1860134A012113481CF06DF998B963
:1066C400610CE00341F27073984271F1000310D33E
:1066D4004FF47A72002320F0D7FD014600220B48C4
:1066E4001CF070F938B910BD094A4A2116F0B8FBFC
:1066F400E6E70521F2E7064A4B2116F0B1FBF2E783
:10670400502F00209166020090780400542F00203E
:106714001C78040000286AD02DE9F043CFB0054668
:10672400334B1B6813F4804F03D0324B1B68032B8D
:1067340032DC2F4B1B6813F4804F03D02D4B1B68A6
:10674400032B2BDC4FB0BDE8F083EA5C2A490C68CC
:106754001009590014F800C00DA800F813C002F085
:106764000F020131A25C425401330F2BEDD90DAA63
:1067740000238DF8543003F1804303F58833D3F8B4
:10678400043502921D4A01921D4A009241221D497C
:10679400042007F09DFBCCE70023E6E71A4BD3F86F
:1067A4000435AA88E988287A6C7AAE7AEF7A95F863
:1067B4000CC095F80DE095F80E8095F80F90CDF883
:1067C4002C90CDF82880CDF824E0CDF820C0079790
:1067D400069605940490039102922A6801920B4A4A
:1067E400009242220749042007F072FBAAE770478F
:1067F400B02E0020AC2E0020B42E00200C79040012
:1068040020790400FA78040000100140287904007B
:1068140076DF70477ADF70477CDF704708B516F083
:1068240011FB08BD08B504F0E9FF08BD00B583B04D
:10683400037823B1012B0BD003B05DF804FB3B219B
:106844004088FFF7E5FF0028F6D016F0FBFAF3E7DF
:10685400094B1B6813F4804FEED0084B1B68032BC5
:10686400EADD074BD3F80435064A0092682206494C
:10687400042007F02DFBDFE7B02E0020AC2E002013
:1068840000100140E8790400CE79040000B583B01B
:1068940015F01CFE68B90023019301A9012015F02D
:1068A40045FD48B901A815F09BFD40B903B05DF85A
:1068B40004FB16F0C7FAEEE716F0C4FAF2E716F096
:1068C400C1FAF3E700B585B09DF80C30012262F3FC
:1068D40003038DF80C30DBB262F307138DF80C3030
:1068E4000C2210490DEB0200FFF796FF98B9002324
:1068F400019302937823ADF80430C823ADF8063031
:106904004FF4C873ADF80A3001A8FFF783FF28B924
:1069140005B05DF804FB16F095FAE8E716F092FA74
:10692400F6E700BF147A040000B58BB001AA002377
:10693400019302937821ADF80410C821ADF8061034
:106944004FF4C871ADF80A100393049305930693AA
:10695400079308930993039240F6CD4304934FF4AD
:106964008033059303238DF81830074B0893074BA6
:10697400099303A815F096FF10B90BB05DF804FB5A
:1069840016F060FAF9E700BF3168020021680200DE
:106994000620704700B587B044F2010398425DD0E9
:1069A4001BD8012836D041F20103984271D1474BDC
:1069B4001B6813F4804F36D0454B1B68002B32DD27
:1069C400444BD3F8043502920191434A0092632266
:1069D4004249012007F07CFA25E044F20203984280
:1069E40057D13A4B1B6813F4804F1CD0384B1B68AB
:1069F400002B18DD374BD3F8043510880390526808
:106A040002920191364A009269223449012007F02A
:106A14005FFA08E02D4B1B6813F4804F03D02C4B16
:106A24001B68002B0DDC4FF0A0434FF4F012C3F8A9
:106A34001825C3F80C25EFF3108372B64DF6AD6C30
:106A44003DE0244BD3F8043502920191254A00928B
:106A540060222249012007F03BFAE4E71B4B1B6844
:106A640013F4804FDFD01A4B1B68002BDBDD194B6E
:106A7400D3F804351068049050680390029192682A
:106A84000192194A009273221449012007F020FA56
:106A9400C9E70E4B1B6813F4804FC4D00C4B1B6822
:106AA400002BC0DD0B4BD3F8043501910F4A009243
:106AB4007B220A49012007F00BFAB4E730BF0C4BE4
:106AC4001B78002BFAD107B05DF804FBB02E002030
:106AD400AC2E002000100140B87A04008A7A040029
:106AE400DC7A04009C7A0400FC7A0400207B040015
:106AF400A02D002000B583B001460023ADF800307E
:106B0400044B01936A4644F20200FFF743FF03B0CB
:106B14005DF804FB3C9B040007EE900A07EE101A94
:106B2400F8EE677ADFED0C6A67EEA66AB8EE477A8C
:106B3400F4EEC76AF1EE10FA0AD4DFED086A67EEE4
:106B4400A67AB4EEE77AF1EE10FA03D50120704785
:106B540001207047002070479A99993FCDCC4C3F53
:106B64002DE9F0472DED068B04468946056807EEAE
:106B7400905AB8EE67AA814B93ED008ADFED807AD4
:106B8400C7EE888ACAEE287ADFED7E9AC7EEA97A24
:106B940017EE900A20F00EFB41EC100B20F024FBC2
:106BA40051EC100B20F0F2FA0746DFED777A87EE0E
:106BB400889ACAEE097AC7EEA97A17EE900A20F0ED
:106BC400F9FA41EC100B20F00FFB51EC100B20F004
:106BD400DDFA06460F2F00D90F271F2E03D80F2EDC
:106BE40002D8102600E01F26684B07FB03F307EECC
:106BF400903AF8EE677AC7EE887A17EE900A20F09A
:106C0400D9FA41EC100B20F0EFFA51EC100B20F004
:106C1400BDFA80465E4B06FB03F307EE903AF8EEAE
:106C2400677AC7EE887A17EE900A20F0C3FA41EC2F
:106C3400100B20F0D9FA51EC100B20F0A7FA014602
:106C4400A5EB0803002BB8BF5B422D1A002DB8BF7B
:106C54006D42AB423CDC89F800702068C4F80080C7
:106C64004146FFF759FF0746A56807EE905AF8EE2C
:106C7400679AC9EEA87ADFED438AC7EEA87A17EEC1
:106C8400900A20F097FA41EC100B20F0ADFA51EC89
:106C9400100B20F07BFA8046C9EE897AC7EEA87AF9
:106CA40017EE900A20F086FA41EC100B20F09CFAC3
:106CB40051EC100B20F06AFA0646B8F10F0F01D917
:106CC4004FF00F081F2E0BD80F2E0AD8102608E0FD
:106CD40089F8006020682160FFF71EFF0746C3E7BC
:106CE4001F262A4B03FB08F307EE903AF8EE677A67
:106CF400C7EE887A17EE900A20F05CFA41EC100B8C
:106D040020F072FA51EC100B20F040FA8246204B2E
:106D140006FB03F307EE903AF8EE677AC7EE887A3B
:106D240017EE900A20F046FA41EC100B20F05CFAC2
:106D340051EC100B20F02AFA0146A5EB0A03002BB4
:106D4400B8BF5B422D1A002DB8BF6D42AB420CDCBC
:106D540089F80280A068C4F808A05146FFF7DCFE59
:106D64003844BDEC068BBDE8F08789F80260A06862
:106D7400A160FFF7D1FE3844F3E700BF742F002071
:106D840000007F4600007A440000FF470006F90037
:106D94000030C8072DE9F04F2DED048B83B0064673
:106DA4000D464C7814B9CB78002B5CD0EB78A4EB6F
:106DB400830307EE903AB54BD3ED006A9FEDB46AB6
:106DC40086EE267AF8EEE77A67EE877A96ED047A0D
:106DD400B8EE477AC7EE276ADFEDAE7AC6EEA77A39
:106DE40017EE900A20F0E6F941EC100B20F0FCF9C4
:106DF40051EC100B20F0CAF980460CB9EB78ABB318
:106E0400EB78A4EB83031B0107EE903A9F4BD3ED81
:106E1400006A9FED9F6A86EE267AF8EEE77A67EEBF
:106E2400877A96ED047AB8EE477AC7EE276ADFEDE3
:106E3400997AC6EEA77A17EE900A20F0BBF941ECD6
:106E4400100B20F0D1F951EC100B20F09FF90746FC
:106E5400B8F10F0F01D94FF00F081F2F08D80F2FCB
:106E640007D8102705E04FF00008C6E70027EFE732
:106E74001F27EB78A4EB830408FB04F3C3EB032381
:106E8400824A92ED008A07EE903AF8EE677A87EE2E
:106E9400887ADFED808A67EE287A17EE900A20F070
:106EA40089F941EC100B20F09FF951EC100B20F004
:106EB4006DF9814607FB04F4C4EB0424240107EEB6
:106EC400904AF8EE677A87EE887A67EE287A17EEAA
:106ED400900A20F06FF941EC100B20F085F951EC89
:106EE400100B20F053F901463369A3EB0902002A81
:106EF400B8BF52421B1A002BB8BF5B429A425ADCFD
:106F040085F804803069C6F810904946FFF704FEFE
:106F14000190776907EE907AB8EE679A95F801A028
:106F240095F803B0AAEB8B04DFED597AC7EE889A83
:106F340007EE904AF8EEE77A67EEA97A89EE277AA7
:106F4400DFED548AC7EE287A17EE900A20F032F962
:106F540041EC100B20F048F951EC100B20F016F91D
:106F64008146230107EE903AF8EEE77A67EEA97AB4
:106F740089EE277AC7EE287A17EE900A20F01AF9DC
:106F840041EC100B20F030F951EC100B20F0FEF81E
:106F94008046BAF1000F02D1BBF1000F12D0B9F153
:106FA4000F0F13D8B8F11F0F13D8B8F10F0F12D861
:106FB4004FF010080FE02F7130693161FFF7ACFD1D
:106FC4000190A6E74FF00008C146EBE74FF00F0928
:106FD400E8E74FF01F0809FB04F3C3EB032307EEB4
:106FE400903AF8EE677A87EE887ADFED2A8A67EEC0
:106FF400287A17EE900A20F0DDF841EC100B20F00F
:10700400F3F851EC100B20F0C1F8824608FB04F4AD
:10701400C4EB0424240107EE904AF8EE677A87EE65
:10702400887A67EE287A17EE900A20F0C3F841ECCC
:10703400100B20F0D9F851EC100B20F0A7F8014602
:10704400A7EB0A03002BB8BF5B423F1A002FB8BF5F
:107054007F42BB420FDC85F805907069C6F814A026
:107064005146FFF759FD019B0344184603B0BDEC9C
:10707400048BBDE8F08F85F8058070697161FFF7B6
:107084004BFD019B03441846F0E700BF742F00201A
:1070940000007F4300007A440346074A107830B169
:1070A4003BB1064A1288934304D000207047012064
:1070B40070470020704700BF7A2F0020782F0020EF
:1070C400F8B590B30D46144607461C4B1B7873B3B2
:1070D40079B300231370FF226270A370E3702371ED
:1070E40063710B7963700B7B02339B08E370072B8E
:1070F40001D90723E370E3789B002B7321462846CC
:10710400FFF72EFD06463846FFF7C6FF38B90023C1
:107114002B616B61237163716EB93046F8BD2146F2
:107124002846FFF737FE0644F6E70226F5E704266D
:10713400F3E70E26F1E70126EFE700BF7A2F0020E0
:1071440007EE901AF8EE677A044BC3ED007A044B0D
:107154001880044B01221A70704700BF742F00205E
:10716400782F00207A2F002008B5054B02221A60E0
:10717400002240F28F2103481BF024FC08BD00BF0D
:10718400802F0020842F002008B5144B1B687BB18E
:10719400134B1B689BB101201DF034FE60B9104BEA
:1071A40000221A600D4A1368013B136093B108BDB5
:1071B400002015F047FEEBE715F044FEEFE7012051
:1071C4001DF0FEFD18B9064B01221A60EAE715F01E
:1071D40039FEF8E703481BF013FCE8E7802F002092
:1071E4007C2F0020842F002029B308B5132800D851
:1071F40008BD4B00013B104A1360410CC00310F55D
:10720400FA704FF47A724FF0000341F1000120F05C
:107214003BF80146002209481BF0D4FB0028E7D1C3
:1072240001201DF0CDFD18B9054B01221A60DFE7DE
:1072340015F008FEF8E77047802F0020842F002007
:107244007C2F002008B505481BF0DAFB01201DF057
:10725400D9FD00B908BD15F0F5FDFBE7842F00202A
:10726400024B1868003818BF012070477C2F00209B
:1072740008B5094A012109481BF08EFB30B9084AB8
:10728400012108481BF088FB18B908BD15F0DAFD88
:10729400F5E715F0D7FDF8E78D7102003C7B04009B
:1072A4006D710200407B040008B550B101201DF04F
:1072B40087FD18B9084B01221A6008BD15F0C2FDFC
:1072C400F8E701201DF09EFD18B9034B00221A6057
:1072D400F3E715F0B7FDF8E77C2F002000B589B07F
:1072E4000023019302930393049305930693079356
:1072F40023230293FF238DF80C304FF4FA63069393
:107304004FF4FA73079301208DF8040002932823A5
:10731400049305238DF814304FF4C8730693079330
:1073240001A91DF093FD10B909B05DF804FB15F037
:1073340089FDF9E700B589B0002301930293039313
:10734400049305930693079323230293FF238DF855
:107354000C304FF4FA6306934FF4FA730793032245
:107364008DF8042002932823049305238DF8143008
:107374004FF4C8730693079301A901201DF066FD1D
:1073840010B909B05DF804FB15F05CFDF9E70000E5
:1073940008B500224FF4803101481BF013FB08BDEF
:1073A400A42F002008B502481BF02AFB08BD00BF2B
:1073B400A42F00202B4B1B78002B52D000B585B096
:1073C400012804D0032845D005B05DF804FB002350
:1073D400029302A9012014F0A9FF40BB02A814F0F3
:1073E400FFFF38BB0123039303A90DF1060010F03E
:1073F40023FE10BBBDF8060010F00AFA0DF10501DA
:1074040010F0AAFBE0B90BF033FB9DF80510002047
:107414000BF0FEFDB8B904F081F9C0B9114B00229C
:107424001A70114B1B68002BCED09847CCE715F08F
:1074340009FDD3E715F006FDD4E715F003FDD9E700
:1074440015F000FDDFE77846FFF754FBE3E715F09E
:10745400F9FCE3E715F03AF80028B5D015F0F2FC92
:10746400B2E77047C62F0020C82F002008B5064B8E
:1074740001221A70054804F0B9F904F09BF900B927
:1074840008BD15F0DFFCFBE7C62F0020A42D00206B
:1074940008B503781C2B00D008BD074B1B78002BC4
:1074A400FAD015F057F818B9044804F0A3F9F3E733
:1074B40015F0C8FCF8E700BFC62F0020A42D00205B
:1074C40008B50749074816F06DF900B108BD032354
:1074D400002205494969054816F080F9F6E700BF1E
:1074E400E42F002050330020C82F00201C3200203D
:1074F40008B50378023B082B3FD8DFE803F01C05EE
:1075040011423E2C3E3E3600204B5B68002B34D0AB
:10751400007A002831D01E4A0121117098472CE0CE
:107524001A4B9B684BB31A4A127832B3184A00219B
:107534001170984721E0174B1B784BB9134BDB684C
:107544001BB1134A002111709847FFF7B9FF14E0EB
:10755400FFF78CFF11E010220C4B99690E4816F0CE
:10756400C6F950B115F06EFC07E08168C06809F0F7
:10757400F1FF18B9074B01221A7008BD15F062FC1F
:10758400F8E7024B1B69C0689847F6E7C82F00204C
:10759400C42F0020C52F00201C32002010B586B057
:1075A4008446204A03AB07CA03C323F8022B120CF8
:1075B4001A701D4CA646BCE80F00AEE80F009CE80C
:1075C40007008EE80700A36953B3184B009303AB7D
:1075D400174A1849184816F0A3F8034610B118467C
:1075E40006B010BD154817F0BDFD0146124816F04F
:1075F400C3F803460028F2D1114817F079FF034677
:107604000028ECD10E4817F0ABFF01460A4816F0EB
:10761400B3F803460028E2D1FFF752FF0346DEE742
:107624000723DCE7447B0400C82F0020F574020024
:10763400E42F0020503300201C32002004300020AE
:10764400CC31002041DF7047054B93F900200A70CC
:107654005A784A709A788A701B790B71704700BF08
:107664008034002070477047704700000C4B1B6843
:1076740013F4804F03D00B4B1B68012B00DC7047C5
:1076840000B583B0084BD3F80435084A00924FF490
:1076940082720749022006F01BFC03B05DF804FB6C
:1076A400B02E0020AC2E002000100140147C0400F9
:1076B4000B7C040010B586B091F90020104B1A70B1
:1076C400487858708C789C700E4B1B6813F4804F6C
:1076D40003D00D4B1B68032B01DC06B010BD0B4B14
:1076E400D3F8043509790491039402900192084A6D
:1076F4000092E6220749042006F0EAFBEDE700BF0A
:1077040080340020B02E0020AC2E00200010014058
:10771400347C04000B7C040000B583B0012A20D023
:10772400022A33D042B1244A40F21F11032015F03B
:1077340097FB03B05DF804FB204B1B6813F4804FE8
:10774400F7D01F4B1B68032BF3DD1E4BD3F8043516
:107754001D4A00924FF489721C49042006F0B8FBBC
:10776400E7E7164B1B6813F4804FE2D0144B1B68F9
:10777400032BDEDD134BD3F80435154A009240F297
:1077840017121249042006F0A3FBD2E70B4B1B6827
:1077940013F4804FCDD00A4B1B68032BC9DD094B72
:1077A400D3F804350B4A009240F21B120749042017
:1077B40006F08EFBBDE700BF6C7B0400B02E0020FA
:1077C400AC2E002000100140687C04000B7C0400F7
:1077D400887C0400A87C040000B585B0EC468CE8E5
:1077E4000300002303930293022302AA6146034881
:1077F4001FF08CF805B05DF804FB00BF9433002043
:1078040000B583B000238DF800308DF8013064306A
:107814008DF8020001238DF803301FF0DDFA8DF896
:1078240004001FF0DFFA8DF8050002AB13E9030032
:10783400FFF7D2FF03B05DF804FB000010B582B07F
:107844000446144B1B6813F4804F03D0124B1B687F
:10785400032B03DC012C0ED902B010BD0F4BD3F85F
:10786400043501900E4A009240F24B120D49042057
:1078740006F02EFBEEE70C4B1B7833B10120FFF72B
:10788400BFFF094B00221A70E6E70220FFF7B8FF9A
:10789400E2E700BFB02E0020AC2E00200010014013
:1078A400CC7C04000B7C0400462E002030380428D5
:1078B40000D9704708B5FFF7C1FF08BD00B583B014
:1078C400054B019301A81EF037FB10B903B05DF816
:1078D40004FB15F0B7FAF9E7647E040000B58BB039
:1078E4002422002101A81FF037FE01238DF8043063
:1078F40007238DF8073006238DF80C30084B0593C9
:10790400084B0993084901A809F09BFE10B90BB074
:107914005DF804FB054A40F25B2115F0A1FAF6E795
:10792400B57A02009D790200003400206C7B0400CB
:1079340000B583B000211148FEF78AFE58B9104BF8
:107944001B6813F4804F03D00E4B1B68032B07DC1A
:1079540003B05DF804FB0C4AFD2115F081FAEEE753
:107964000A4BD3F80435054A12880192084A00925A
:10797400FE220849042006F0ABFAE9E7C82D0020EE
:10798400B02E0020AC2E00206C7B040000100140BF
:10799400E07C04000B7C040010B582B0214B1B6812
:1079A40013F4804F03D0204B1B68032B1CDCFFF720
:1079B400BFFF1E4A1E4911630023936282F82C30D4
:1079C40082F82D301B4A5163D36282F8303082F83A
:1079D4003130144B1B6813F4804F03D0124B1B68D7
:1079E400032B0DDC02B010BD134BD3F80435134A3E
:1079F40000924FF4D6721249042006F069FAD6E7D1
:107A04000D4BD3F80445012110461EF025FF0190CB
:107A14000C4B009323464FF4DD720949042006F011
:107A240057FADFE7B02E0020AC2E0020CC33002024
:107A34001C7E04009433002000100140FC7C0400F0
:107A44000B7C0400F87C040008B50020FFF72CFC34
:107A54001E213220FFF7C8FB08BD000000B583B02B
:107A64000E4B1B6813F4804F03D00D4B1B68032B84
:107A740008DC0321C820FFF7B7FB09F027FE03B099
:107A84005DF804FB074BD3F80435074A009240F233
:107A940039120649042006F01BFAEAE7B02E00204A
:107AA400AC2E0020001001401C7D04000B7C04005F
:107AB40008B503781C2B00D008BDFFF7CFFFFBE708
:107AC40030B589B064212748FEF7F0FD264B1B78BA
:107AD40093B14FF0A043D3F8103513F4006F24D0C2
:107AE400224B1B7893B300F091FBFEF713FE09F0D1
:107AF400DDFD80BB09B030BD01AC1D4D0FCD0FC401
:107B040095E8070084E8070001A8FFF747FD30B9AE
:107B1400164B1B78002BE6D1FFF7E0FBE3E7154A91
:107B240040F2822115F09CF9F2E70BF031FA09F0EA
:107B340071FD4FF4FA744FF47A400F4B43F0010394
:107B44009847013CF7D1FFF789FFC9E70221642078
:107B5400FFF74AFBC7E7074A40F2A22115F080F974
:107B6400C8E700BFB1780200003400209033002041
:107B7400FC7D04006C7B0400307E040030B583B0CF
:107B8400054601201DF03EF9F0B9194B1B6813F4AA
:107B9400804F03D0174B1B68032B1BDCFFF752FBF2
:107BA4000020FFF781FB4FF496744FF47A40124B98
:107BB40043F001039847013CF7D1E97B4FF4FA7095
:107BC400FFF712FB03B030BD0C4A40F2472115F019
:107BD40047F9DAE70A4BD3F80435EA7B0192094AFC
:107BE40000924FF412720849042006F071F9D5E7A7
:107BF400B02E0020AC2E0020307E04006C7B0400EC
:107C040000100140387D04000B7C040008B5FFF728
:107C140019FB08BD00B585B0214B1B6813F4804FD8
:107C240003D0204B1B68032B1FDCFEF74BFEFEF733
:107C34007BFE03A80FF0FCFB194B1B6813F4804F69
:107C440003D0184B1B68032B1BDCBDF80C001FF082
:107C5400CFF8FFF7F7FA0020FFF726FB0421C8202E
:107C6400FFF7C2FA05B05DF804FB0F4BD3F80435F7
:107C74000E4A00924FF4CC720D49042006F028F904
:107C8400D3E7094BD3F80435BDF80C200192094A17
:107C9400009240F2A3120649042006F019F9D4E731
:107CA400B02E0020AC2E002000100140487D0400BE
:107CB4000B7C0400647D040000B583B03C4B0022BF
:107CC400C3F87C213B4B1B6813F4804F03D03A4B21
:107CD4001B68032B1DDC394B1A784FF0A043D3F8F3
:107CE4001035C3F340339A422FD04FF0A043D3F85A
:107CF4001035C3F34033314A1370CBB14FF0A04376
:107D04002F4AC3F83427FFF7ABFA70B9FFF712FB19
:107D14003AE02C4BD3F804352B4A009240F2E5129A
:107D24002A49042006F0D4F8D5E7FFF731FB2BE00D
:107D34004FF0A043264AC3F83427FFF733FBFFF77D
:107D44008FFA08BBFFF7B0FA1EE0224B1B68224AE9
:107D5400D2F80425991A1AD443F23333994210D92C
:107D6400144B1B6813F4804F03D0134B1B68032B75
:107D74000FDC194BD3F80425164B1A600020FFF7CB
:107D84005DFD0E4B1B7883B903B05DF804FBD11A7B
:107D9400E2E70C4BD3F80435104A009240F2052276
:107DA4000A49042006F094F8E3E7FFF7F1FAEBE759
:107DB40000600040B02E0020AC2E00209033002044
:107DC40004000300001001407C7D04000B7C0400CF
:107DD400040002000434002000B00040847D04004C
:107DE40000B585B0344B3E221A70344A5A60344A86
:107DF4009A60344A009202228DF8042004228DF8FD
:107E04000520029310238DF80C30002168461DF0E4
:107E140041F8002841D100201CF0F4FF00283FD194
:107E240001201CF0EFFF002840D14FF0A0430322B3
:107E3400C3F84827C3F84C27C3F85027C3F854277E
:107E44004FF48022C3F80C254FF40022C3F80C250C
:107E54004FF48012C3F80C254FF40012C3F80C251C
:107E6400194AC3F82C27194AC3F83427184A4FF083
:107E74000041C2F804130020C2F87C01154AC02155
:107E840082F8061340211160D3F81035C3F3403350
:107E9400114A137005B05DF804FB14F0D3FFBAE780
:107EA4000E4A4FF40B7114F0DBFFB9E70B4A40F2B2
:107EB4002D2114F0D5FFB8E7903400204C7E040047
:107EC400807E0400387E04000C00030004000200DD
:107ED4000060004000E100E0903300206C7B04006F
:107EE40000B583B01A4A05214FF4103005F0D4FFD1
:107EF400184B1B6813F4804F03D0174B1B68032BDC
:107F040013DC1AF011FDE0B9FFF7B2F9FEF7BEFC7D
:107F1400FEF7D8FCFEF708FDFFF7D0FCFFF7DEFC08
:107F2400FFF75EFF03B05DF804FB0C4BD3F8043598
:107F34000B4A009240F261220A49042005F0C8FF6E
:107F4400DFE7094A40F2632114F08AFFDCE700BF4F
:107F540071DE0200B02E0020AC2E00200010014083
:107F6400947D04000B7C04006C7B040000B583B09A
:107F7400FFF7B6FFFFF7A4FD01201EF039FF294BE0
:107F84001B6813F4804F03D0274B1B68032B11DCB1
:107F94001EF028FFC1B201201EF042FF23492448ED
:107FA4001EF0F4FE23481EF011FF23481EF0A8FA29
:107FB40060B1FEE7214BD3F80435214A009240F228
:107FC400BD222049042005F083FFE1E71E481EF08E
:107FD40077F900B1FEE71D481EF0B0F900B1FEE7E5
:107FE4001EF084F900B1FEE719481EF07DFB00B1D4
:107FF400FEE70C4B1B6813F4804F03D00A4B1B683D
:10800400032B02DCFFF71EFBFCE70C4BD3F8043513
:10801400104A009240F2FE220A49042005F058FF5B
:10802400F0E700BFB02E0020AC2E0020B02D0020C1
:10803400442E0020DD770200B42D00200010014002
:10804400BC7D04000B7C0400707E0400187E0400D8
:108054002C2E0020DC7D040072DF704773DF704734
:1080640074DF70472DE9F047A2B007468846914671
:10807400324C002525606560A560E56030490B78C9
:10808400C3EB43102F4E064426602F4A0244A260DD
:108094001F22A280A281013303F001030B704FF071
:1080A4003C0A5246294613A81FF056FA06238DF8B7
:1080B4004F30ADF8487001238DF84A30ADF85C308C
:1080C40012AA1892ADF83C70ADF84090CDF84480F7
:1080D4000DEB0A021D928DF8783052462946684607
:1080E4001FF03AFA02238DF80030221D314613A8FE
:1080F40014F00EF890B9114B03F10C02996868461C
:1081040014F006F868B9114A0C491148FFF7A4FFA6
:10811400082809D070B922B0BDE8F08714F092FEA7
:10812400E9E714F08FFEEEE7002204490848FFF760
:1081340093FFEFE714F086FEEDE700BFE034002084
:108144009C340020A0340020F0340020482E00206D
:10815400472E0020B0F5202F0AD2074BA3FB0023A3
:10816400DB0808B103B90123044A93819160704785
:108174004FF6FF73F5E700BFCDCCCCCC482E0020E2
:1081840008B50121054B1878FFF768FF18B90020DE
:1081940004F05EFA08BD14F055FEF8E7472E0020FF
:1081A40008B5044B1878FFF75BFF00B908BD14F05D
:1081B40049FEFBE7472E002010B40346044C006838
:1081C40059689A68DB680FC45DF8044B704700BFB8
:1081D400303500200C4B4FF0805202F1600103C98E
:1081E40083E8030003F1080CA43292E803008CE84E
:1081F4000300DA79042161F30712DA711A7A022191
:1082040061F387121A7270473035002000487047B6
:1082140030350020002308E0074901EBC3000022A9
:108224004280426001F8332001331F2BF4D9034B01
:1082340000221A60704700BF4035002040360020FD
:1082440000B58646114B1B684FF0000C0BE01F2352
:108254000F4A12F83300B0B102EBC30252887245E0
:1082640009D00CF1010CBCF11F0F0BD85A1E002BC6
:10827400EDD01346ECE7064A02EBC30252688A4289
:10828400EFD100E000205DF804FB00BF4036002081
:108294004035002010B40B4A13680B4C04EBC30C9C
:1082A400ACF80200CCF80410012104F833100B449C
:1082B4001360202B02D05DF8044B70471346002254
:1082C4001A60F8E74036002040350020C0F30C0364
:1082D4008B4204D2C91A0844A0F500507047C91A49
:1082E40008447047C37D9BB1C3780A7802F08002CA
:1082F4000A7003F07F0313430B7002780B7803F0CA
:108304007F030B7043EAC2130B7003789BB9704769
:10831400C3780A7802F0BF020A709B0103F040039D
:1083240013430B70027903F0C0030B7002F03F0299
:1083340013430B70E1E700B58378082B14BF0022C8
:1083440001224B7803F07F034B7043EAC2134B7056
:10835400B0F806E0DAB202F080024A70CEF3861C6E
:108364004CEA02024A708B7803F003038B7043EAF1
:108374008E038B7090F808E0DAB202F0FC028A7087
:10838400CEF3C10C4CEA02028A70CB7803F01F03CF
:10839400CB7043EA4E13CB70437ACA7802F0E00202
:1083A400CA7003F01F031343CB705DF804FB000095
:1083B4000023032B31D810B402E00133032B28D857
:1083C400C3EBC302164C04EB021292F84820012AB4
:1083D400F3D1C3EBC30204EB0212948AC289944220
:1083E400EBD1C3EBC3020E4C04EB0212D2888A42D7
:1083F400E3D1C3EBC30204EB0212B2F8582012B16A
:10840400848AA242D9D1C3EBC303054800EB03100D
:1084140000E000205DF8044B70470020704700BF67
:10842400FC360020002300E00133032B16D8C3EBF5
:10843400C3020B4901EB021292F84820022AF3D13D
:10844400C3EBC30201EB0212918A828A9142EBD1FF
:10845400C3EBC303024800EB0310704700207047CE
:10846400FC36002008B9042070470820704700B586
:1084740003468C460978C17000214162DCF808107B
:108484000B2904D89CF80C1029B3012100E0012128
:1084940019700020987031B1DCF808100731C90850
:1084A4000139597218720121D97503F10C0E0CF1BE
:1084B400100103C98EE80300BCF80E109982DCF8A1
:1084C400181019629CF81C109975DCF82010D962F8
:1084D4009A625DF804FB0021DAE7000000210E4BEC
:1084E4001B688B4216D9002300E001330B4A02EBD0
:1084F400C10252689A420BD9084A52F8312002EB61
:10850400C30C12F833208242EFD1DCF80400704728
:108514000131E4E70020704744360020483600204B
:1085240070B58CB006460D4614462C22002101A8D5
:108534001FF012F80F238DF80430ADF808609DF891
:108544000A3065F300038DF80A308DF80B4001A85A
:1085540001F080FA0CB070BD30B58DB005460C4604
:108564002C22002101A81EF0F7FF10238DF80430FF
:1085740002958DF80C4001A801F06CFA0DB030BDE5
:1085840000B58DB010B913F1020F06D1074B18686E
:1085940004F09EFA0DB05DF804FB01228DF804206E
:1085A400029301A801F056FAF0E700BF5836002004
:1085B40070B50546037853B1EC69260A2406E988A8
:1085C400A869FFF783FE201846F1000170BD7846C4
:1085D400FEF790FAF0E70000F8B50546002400E045
:1085E4000134032C22D8C4EBC403114A02EB031355
:1085F40093F84830022BF3D1C4EBC40302EB03130A
:108604009A8AAB8A9A42EBD12846FFF7D1FF0746F4
:108614000E46C4EBC403064800EB0310FFF7C8FF83
:10862400874276EB0103DBD2012000E00020F8BD95
:10863400FC36002010B50446037833B12046FFF71A
:10864400B7FFB4F814C0002304E07846FEF752FAEA
:10865400F4E70133072B10D81A01094CA25A6245DA
:10866400F7D104EB03129468D2688A4208BF8442AB
:10867400EFD1034800EB031000E0002010BD00BF61
:108684006036002038B504460D46037853B1002304
:10869400072B0FD8A08A1A0112498A5A904205D092
:1086A4000133F5E77846FEF725FAF0E71B010A46A1
:1086B4000021D1520C4A1368591C116003F00703BE
:1086C400A08A1A01074988520DB1627800E000229D
:1086D400044D05EB0315AA702046FFF769FFC5E9B1
:1086E400020138BD60360020E036002070B5049CDD
:1086F400002962D01D468E46D2F800C051689668A3
:10870400D368C4F80CC021616661A361D2F810C0BB
:108714005169C4F81CC02162002363700278D20935
:1087240022705AB30423734549D8E17D41B30378D9
:1087340003F07F03E3700023A3709AB143789B0195
:1087440003F4FE53827843EA9203E3808378DB00E8
:1087540003F01803C27843EA52132372C37803F078
:108764001F036372002363622B78032B21D82A78BA
:10877400144B53F82230E362002070BD0123D2E78A
:108784000178C1F38011E170017801F03F0121719A
:1087940042B190F90130002B02DB0423A370CCE733
:1087A4000823FBE70421A1700B447345C5D90920B4
:1087B400E3E77846FEF79EF9D9E70920DDE70920CB
:1087C400DBE700BF2880040070B50C461D46037823
:1087D4009BB104263244A26000F10C032360836A37
:1087E4006360C36AE36000232374204604F0F0FC52
:1087F40010B963691E442E6070BD0126EAE72DE9B5
:10880400F0418EB00D4616461C46804600282DD0F9
:10881400002D2FD0002C31D0636A0233059304F16C
:108824000C00E378002B2DD00121A27801AF3B4648
:10883400082A14BF0022012204F097FA0697CDF803
:108844001C80B2B2ADF820200B9515440C95A3788A
:108854008DF83430237B022B16D00023ADF828305A
:1088640005A804F07AFA0EB0BDE8F0817846FEF768
:1088740041F9CDE77846FEF73DF9CBE77846FEF7B8
:1088840039F9C9E70221D0E723692BB12369099398
:108894001023ADF82830E3E77846FEF72BF9F5E727
:1088A4002DE9F04188B004460D46C37D002B3CD031
:1088B400082605FB06F8637AAB4238D0257201AB73
:1088C400324602A92046FFF77FFF074648BB4DB951
:1088D40094F8533033B9A369C3F30C03E380012341
:1088E40084F85330E37D7BB994F8523063B91DBBEF
:1088F400E06EB4F84A10A27823468A1A0146FFF7BC
:108904007EFF012384F8523007992046FFF7EAFCE2
:10891400E16E3246414401981EF0F5FD02A804F0D0
:108924007DFC384608B0BDE8F0810C26C1E7B4F8F8
:108934004A60A6EB0806C1E77846FEF7DBF8D7E7FE
:1089440070B505460E4609B100230B6095F85040FA
:10895400002104E0631C85F850300134E4B26B7AE2
:10896400A34210D3EA6C0123A3401A42F5D1214655
:108974002846FFF795FF014628B9002EEAD0336850
:1089840001333360E6E7084670BDF0B589B00446AC
:108994000E46154683789A18C37D63B10B239A4219
:1089A40021D801AB02A92046FFF70EFF074620B1EC
:1089B400384609B0F0BD0F23F1E707992046FFF7C9
:1089C40091FCE37D43B12A46314601981EF09BFD9C
:1089D40002A804F023FCEBE723462A46019930461B
:1089E400FFF70DFFF4E70927E2E7000010B504469E
:1089F40090F84830012B0CD103F040FA237B012B73
:108A04000BD0094BD968014404F1300003F00CFA8F
:108A140010BD7846FEF76EF8EEE7A27D024BD968EA
:108A24001B6903FB0211EEE7E436002030B583B086
:108A3400002403E02846FFF7D9FF0134032C18D89B
:108A4400C4EBC4030C4A02EB031393F84830012B24
:108A5400F3D100230193C4EBC40502EB051501A96E
:108A64002846FFF76DFF0428E4D0019B002BE4D0D7
:108A7400E0E703B030BD00BFFC36002038B5044643
:108A840090F84830022B09D1064B1D6803F0F6F923
:108A9400411904F1300003F0C7F938BD7846FEF7F8
:108AA40029F8F1E7E436002038B5044690F8483058
:108AB400022B10D10A4B5A7D5D689B6803FB02555B
:108AC40003F0DCF9411904F1500003F0ADF901237E
:108AD40084F8683038BD7846FEF70CF8EAE700BF42
:108AE400E436002010B50446808A02F0AFFC012869
:108AF4001CD1237BE3B194F91620002A1ADBE27D12
:108B04004AB1022B18D094F90330002B16DBA3785A
:108B1400B3B900200BE0E2780AB9012B12D1237813
:108B240093B9A378042B11D1002000E0102010BDCC
:108B34001020FCE70720FAE71020F8E70720F6E703
:108B44000720F4E70720F2E70020F0E70720EEE72C
:108B540038B50446C2698169808A06F0A5FB0546DA
:108B640008B9284638BDE169002201F00101A08A54
:108B7400FFF7D6FCF5E700002DE9F04780460E46E6
:108B840017464B1EDBB2012B0FD8B7F5C07F10D8A8
:108B94000024032C1AD8C4EBC403314A02EB031398
:108BA40093F848304BB10134F3E77846FDF7A2FF60
:108BB400EBE77846FDF79EFFEAE7C4EBC40502EB5A
:108BC4000515384608F0ADFCE86600E000255DB305
:108BD400EB6E002B42D043462C4608F1300ED3F8FE
:108BE40000C058689968DA68C4F800C06060A16081
:108BF400E260103310347345F1D10023EB64A5F81F
:108C04004A70012E13D06FF00103AB62002385F884
:108C14006830144BAB652D66134BAB632D64012098
:108C240002F0EEF885F848602846BDE8F0870F4B5F
:108C34001B7D85F85130002385F8523085F8533078
:108C440085F85030D8F828206A65A5F858306FF0B8
:108C54000103AB62064BAB632D64E0E71D46E3E71B
:108C6400FC3600202F960200B58F0200E436002067
:108C74000190020000B585B000228DF80F20A0B14C
:108C84000B46024602320A600DF10F01184604F049
:108C940068F89DF80F3043B10C4B1B6813F0040FB8
:108CA40003D00B4B1B68032B04DC9DF80F0005B0AD
:108CB4005DF804FB074BD3F80435074A009240F2F1
:108CC40037420649042005F003F9EEE7B02E0020F0
:108CD400AC2E0020001001401C7F0400107F040013
:108CE4002DE9F0438FB004460E4615461F46D0F8D2
:108CF4001890037823B1C1884846FFF7E7FAA061CA
:108D040004F10C00E378002B37D00121A2780DF197
:108D140028084346082A14BF0022012204F025F83B
:108D2400C4F81890CDF808800396A378EA1A92B292
:108D3400ADF810203244089207978DF824300023B0
:108D4400ADF81830E37863B3237B022B17D02546A4
:108D5400002345F8243F2A462179206A0FF0CEFCEF
:108D6400606A90B101A9FFF785FF00283ED12A4629
:108D74002179206A0FF0C2FCF2E70221C6E7102332
:108D8400ADF8183023690593E1E7237B022B31D139
:108D940004F10C01E0890FF063FD0028D4D1052013
:108DA40025E0237B012B01D0052020E0E389ADF8E9
:108DB4000030A38AADF80230002500E00135012D12
:108DC40012D82146002341F8243F0EAB03EB4503A0
:108DD40033F8380C0FF0AFFC01A9606AFFF74AFFC3
:108DE4000028EBD0002002E0052000E000200FB0B6
:108DF400BDE8F0830520FAE770B5F0B00E461446DE
:108E04001D4610AB0A4601462046FFF769FF50B1E4
:108E1400224B1B6813F0040F03D0214B1B68052B56
:108E24002FDC70B070BD2046FFF792FE0028F8D109
:108E340003AB01228DF80C20A28AADF80E2000228B
:108E440004928DF8142010AA0692A178711AADF834
:108E54001C1008AA93E8030082E803000AAB04F19B
:108E64000C0292E8030083E80300A37D8DF83830F8
:108E7400236A0C93636A0D930F9505A800F0EAFD2D
:108E8400CFE7084BD3F80435074A009240F20E723C
:108E94000649062005F01CF8C3E700BFB02E0020E9
:108EA400AC2E002000100140307F0400107F04002D
:108EB40010B50446C06E08F038FB04F1300002F02F
:108EC4009BFF94F84830022B08D0702200212046E2
:108ED4001EF042FB002001F093FF10BD04F150008E
:108EE40002F08AFFF1E710B58CB0044690F84830E0
:108EF400012B0CD101238DF80430636D029301A87A
:108F040000F0A8FD2046FFF7D3FF0CB010BD784653
:108F1400FDF7F0FDEEE7000030B585B00D460446E0
:108F2400D0B1E18894F84830022B19D094F8483035
:108F3400022B1ED02946606DFFF70EFB2046FFF77B
:108F4400B7FF164B1B6813F0040F03D0144B1B68B8
:108F5400032B13DC05B030BD7846FDF7CBFDE0E70D
:108F6400637813F0020FE1D00022A08A1BF056F8B8
:108F7400DCE700212046FFF785FBDBE7094BD3F84C
:108F8400043594F8482002950192074A009240F271
:108F94002D220649042004F09BFFDBE7B02E0020BD
:108FA400AC2E0020001001405C7F0400107F040000
:108FB40008B508460021FFF7AFFF08BD08B5037BDD
:108FC400012B02D0FFF78FFF08BD0121FFF7A4FF9B
:108FD400FAE7000008B590F8513053B1013B80F82E
:108FE4005130002380F85030034B186803F070FDB3
:108FF40008BDFFF7E3FFFBE75836002010B50C4629
:1090040091F84830012B03D12046FFF7E3FF10BD50
:109014007846FDF76FFDF7E770B5C6B00E46154606
:1090240082782A44C37D2BB14FF48073934278D362
:10903400002303E04FF4C073F8E70133032B14D883
:10904400C3EBC30C394C04EB0C1C9CF848100129ED
:10905400F3D1BCF81440818A8C42EED1BCF80E40A6
:10906400C1898C42E9D1082554E00121FFF784FD30
:109074000446002857D02A463146C06E1EF043FAF3
:109084000023459345A92046FFF75AFC054608B13D
:10909400042842D1459B8BB9254B1B6813F0040F60
:1090A40037D0244B1B68032B33DDB4F84AC0BCF122
:1090B400800F28BF4FF0800C002313E02046FFF7F9
:1090C40095FCE9E7E26ED25C1B490D681009590072
:1090D4002E5C04A800F8136002F00F020131AA5CB0
:1090E400425401336345EDD304AA002302F81C3033
:1090F40003F1804303F58833D3F8043502920F4A11
:1091040001920F4A009240F26D520E49042004F07D
:10911400DFFE0025284646B070BD2046FFF7C8FE96
:10912400F8E70925F6E70425F4E700BFFC3600203C
:10913400B02E0020AC2E0020B42E0020807F04002E
:1091440020790400107F040070B504460D461646CD
:10915400FFF7C8FC30B923782BB1324629462046A4
:10916400FFF75AFF70BD324629462046FFF70DFC33
:10917400F8E7000038B504460D46CB695B78037107
:10918400CB691B7883F00103C370CB6943628B8A7C
:109194000B2B07D8CB7A002B3DD10B7B012B02D0B4
:1091A400002300E001232370002B39D0287B022800
:1091B40033D0FFF757F9A070AB8A03440B331B4A33
:1091C40082FB03235B10013B6372002323720023A1
:1091D400E37504F10C0395E8030083E80300AB692D
:1091E40023622B89A382AB7AA3752B6AA362DF2344
:1091F400E36228460FF0A4FC20B12B78012B12D097
:10920400FF23E36220461AF0E3FE18B1E36A43F059
:109214002003E36238BD0123C5E7054B987DC8E709
:109224000423A370D3E72023EBE700BFABAAAA2A49
:10923400E4360020062979D1F0B585B0154690F8BA
:1092440000C04FEA8C1202F4FE5241788478C3784D
:109254001B0443EA0463047943EA042344791C436A
:109264004FFA8CF642EA91012846FFF7A1F8074627
:10927400E0B1002E2FDBC289A98A8A422BD02C4B65
:109284001B6813F0040F30D02A4B1B68012B2CDD14
:10929400294BD3F8043502910192284A00924FF4E5
:1092A400D1622749022004F013FE1EE0204B1B6804
:1092B40013F0040F19D01F4B1B68012B15DD1E4B37
:1092C400D3F804351F4A009240F284621C490220FC
:1092D40004F0FEFD09E0002E09DBFD6C2543FD646E
:1092E4004CB903213846FFF717FE05B0F0BDAB8A31
:1092F400A7F85830F1E73B7883B17B7A5A1C0123F5
:109304009340013B9D420DD0002187F85010384610
:10931400FFF716FB3846FFF769FBE6E77846FDF7EB
:10932400E9FBEAE73846FFF7DEFDDEE7704700BFFA
:10933400B02E0020AC2E002000100140C07F04009D
:10934400107F0400907F04002DE9F0438BB00746A2
:109354000E4614461D461046FFF7FAFB50B994F822
:109364000380B8F1000F08D12B4622463146384617
:10937400FFF760FF0BB0BDE8F0834046FFF7AEF89F
:1093840081460028F6D08DF80480236A0793A38AC7
:10939400ADF8123005AB04F10C0292E8030083E847
:1093A4000300A37D8DF820300297039623788DF86F
:1093B4001030E36A0993294601A8C847DAE792F80E
:1093C40001C01CF0010F08D010B5D47D14B1FFF713
:1093D400BBFF10BDFFF710FDFBE77047F8B505466E
:1093E4000E4614461F46537813F0020F06D13B462F
:1093F4002246711E681CFFF7E2FFF8BD0123C9B2C3
:109404001AF05EFDF3E7000010B54FF4E07200219E
:1094140013481EF0A1F805F0FDFF0024114B1C6059
:109424008022214610481EF097F8104B104A1A600B
:10943400104A5A604CF250329A600F49D9601A614E
:1094440004221A759C7508225A750C4803F020FBF7
:109454000B4B18600B4B1C600B4806F0DDF810BD7D
:10946400FC360020E036002060360020E436002080
:1094740080969800F049020020A10700219602007E
:1094840058360020443600208585020008B505F0D2
:1094940003FF08BD98B110B58CB00446036983B1CD
:1094A400C36983B1836983B101466846FFF762FEED
:1094B400A28A21696846FFF747FE0CB010BD0E2052
:1094C40070470E20F9E70E20F7E70E20F5E790B17C
:1094D40010B58CB00A460446436873B1836973B10E
:1094E40001466846FEF7C3FFA26861686846FFF755
:1094F4002BFE0CB010BD0E2070470E20F9E70E2095
:10950400F7E70000037B012B01D00020704710B562
:109514008CB0002300930193CDF80730C4889DF8E4
:1095240000C00CF0800C8DF800C0C4F3861E4EEA17
:109534000C0C8DF800C09DF8012002F003028DF898
:10954400012042EA84028DF801200A0E8DF80220DF
:109554000A0C8DF803200A0A8DF804208DF80510F2
:109564004278022A14BF002101215FFA8CF202F032
:109574007F028DF8002042EAC1128DF800200622F5
:10958400059201228DF81C20828AADF81E200893D2
:109594008DF80C30CDF810D0026A09928DF818308D
:1095A400C389ADF81A30C36A0B93837D43B98DF830
:1095B40028306FF0010103A8FFF789FF0CB010BD3C
:1095C400024B5B7D8DF82830F3E700BFE4360020C2
:1095D40090F84830022B00D0704710B5044690F83C
:1095E4006830022B00D010BDC16CFFF78BFF002840
:1095F400F9D1002384F86830F5E7000010B50024A1
:1096040007E0C4EBC402130103481844FFF7E0FF6A
:109614000134032CF5D910BDFC36002008B5FFF742
:1096240005FAFFF7EBFF012008BD10B50C4691F8D1
:109634004830022B06D1022384F868302046FFF715
:10964400C7FF10BD7846FDF755FAF4E72DE9F04160
:109654008EB00446FEF7C0FF002840F093802046F9
:10966400FEF7E8FF074600283CD12046FEF7DAFE65
:10967400054658B12046FEF79BFF80460E46284615
:10968400FEF796FF404571EB060358D3002D7AD1BF
:10969400667A0136E37D002B57D0082202FB06F6DA
:1096A400002B54D04FF48073B34253D3E188A069A4
:1096B400FEF70CFE0146E269A08A05F055FE00287B
:1096C40061D1324602212046FFF756FA05460028AA
:1096D40059D100212046FFF715FF02210020FEF793
:1096E4003BFF50E00DF1080CA646BEE80F00ACE8C5
:1096F4000F00BEE80F00ACE80F009EE80F008CE8F6
:109704000F00BB788DF809300BB900253BE09DF8BC
:10971400083083B19DF811104B1C01219940013987
:1097240002A8FFF7EFFEBB7813F0010FEDD020463F
:10973400FFF70EFAE9E77846FDF7DCF9EAE70521D9
:109744002846FFF7E9FB3D46A2E70C22A6E74FF4C3
:10975400C073A9E70E4B1B6813F0040F03D00D4B25
:109764001B68002B01DC3D460DE00B4BD3F80435A0
:1097740001960A4A009240F292320949012004F00B
:10978400A7FBF0E7002528460EB0BDE8F08100BF36
:10979400B02E0020AC2E00200010014004800400F4
:1097A400107F04002DE9F04782B007460E461546A7
:1097B40098461046FFF74AFF00284ED004464F4B08
:1097C4001B6813F0040F03D04D4B1B68032B47DCBD
:1097D4002046FFF753F9237B012B4FD0E16C2B7A02
:1097E40001229A40114238D10A43E264A6F1040AE4
:1097F4002B7AEA7D002A49D04FF0080C0CFB03FCBD
:10980400617A8B4245D0002A48D00823534547D17A
:10981400A269AB699A420BD204F10C0E05F10C0952
:10982400B9E80F00AEE80F0099E803008EE80300E2
:10983400E06E5246391D60441DF065FE6B7813F0EE
:10984400020F32D1E66C2378002B35D0637A5A1C90
:1098540001239340013B9E4232D002B0BDE8F08721
:10986400284BD3F804352A7A0192274A00924FF400
:1098740071722649042004F02BFBA9E794F86830A0
:10988400002BABD12046FFF70FF9A7E74FF00C0CE4
:10989400B4E70CEB0A03A4F84A30B9E70C23B5E7A4
:1098A40004212046FFF738FBD7E701232A46F1B20B
:1098B40038461AF005FBC5E77846FDF71BF9C5E7FE
:1098C400E16C2046FFF71EFE6B7813F0020F0ED1F9
:1098D40043462246B4F84A10E06EFFF770FD0121BA
:1098E4002046FEF7CFFE2046FFF7E2FAB5E7012255
:1098F400E988A88A1AF092FBEAE700BFB02E00209C
:10990400AC2E00200010014018800400107F0400D9
:109914002DE9F04190B000284CD00F4614461E4665
:109924008046002A48D004AB00933346FEF7DEFE9F
:10993400054618B1284610B0BDE8F08104A8FFF729
:10994400D1F805460028F5D12269E168208905F09F
:109954000BFD0028EED104A81AF03AFB28B19DF8BB
:10996400113043F002038DF8113000230293039366
:1099740002A960880EF074FF38B19DF8113043F0ED
:1099840001038DF81130039B08939DF81130002BCF
:10999400D0D09DF8103033B1334604AA394640463E
:1099A400FFF700FFC6E7334604AA39464046FFF7EF
:1099B40015FDBFE70E25BDE70E25BBE738B3F8B5A7
:1099C4000E460546174B1F68012F22D8002400E0DD
:1099D4000134B44210D205EBC4035B68DBB115F863
:1099E400340015F93430002B17DBC0B1FEF776FDD7
:1099F4000028EDD00F200DE00B4B43F8375003EB5C
:109A0400C7035E600137074B1F60002002E00E2091
:109A140070470420F8BD0E20FCE70B20FAE70F2066
:109A2400F8E700BF4436002048360020084B196888
:109A340061B110B501E021463CB10C680B79002BF3
:109A4400F9D0034804F0AEF9F5E710BD704700BF44
:109A5400C038002038B5054630B1104B1C68ACB195
:109A64000F4B01221A7004E07846FDF743F8F4E73F
:109A740024683CB12379002BFAD154F8043C2846DD
:109A84009847F5E7064B1B78022B00D038BDFFF74B
:109A9400CDFF034B00221A70F8E700BFC038002046
:109AA400BC38002010B5044630B100232372211DB8
:109AB400034804F04CF910BD7846FDF71BF8F4E7B1
:109AC400C038002010B5044658B10A4B1B78013B3E
:109AD400DBB2012B09D8074B02221A70012323722F
:109AE40010BD7846FDF706F8EFE7211D024804F0A3
:109AF40059F9F5E7BC380020C03800200A8883688B
:109B04009B5A07339BB223F0030313449BB202888E
:109B1400043A934200D900230B80704710B582B0F9
:109B240004468368C91AADF806100DF10601FFF763
:109B3400E5FFBDF80630A068184402B010BD0088E7
:109B4400043880B2704743888268D018D152012308
:109B540083707047826800239370438083807047CA
:109B640008B5073189B221F0030189B2428883889C
:109B74009A4204D29B1A994220DC002008BD9A42E2
:109B840012D9B0F800C0ACEB020C614518D98B4275
:109B940018D3BCF1030F03D98368134404229A70C9
:109BA400002343801846E9E7826813449B780BB18D
:109BB4000420E3E7FFF7CEFF0020DFE70420DDE722
:109BC4000020DBE70420D9E738B504460D46836856
:109BD400828813448B4202D07846FCF78BFF002323
:109BE400AB70211D2046FFF789FFA288A3681344A8
:109BF4009B78042B00D038BD0023A380FBE710B56D
:109C04000C468368428813448B4202D07846FCF7A2
:109C140071FF0023A37010BD70B5054614460E46AF
:109C2400002944D0002D46D0B6F1005F08D94FF08A
:109C34008053D3F80C3103F50023B6EB832F0ED3F6
:109C4400B6F5000F08D94FF08053D3F80C3103F563
:109C54000053B6EB832F02D37846FCF74BFF631E09
:109C64003344B3F1005F08D94FF08052D2F80C218D
:109C740002F50022B3EB822F0ED3B3F5000F08D9FF
:109C84004FF08052D2F80C2102F50052B3EB822F30
:109C940002D37846FCF72EFF042C10D92C80002325
:109CA4006B80AB80AE60043C3480B37070BD78468A
:109CB400FCF720FFB6E77846FCF71CFFB4E77846CC
:109CC400FCF718FFEAE738B50446A0B16288A36838
:109CD40013449B78012B12D0EFF3108572B6A3883E
:109CE400A16819448B78032B0DD02046FFF732FF6F
:109CF40005B962B638BD7846FCF7FCFEE6E778465F
:109D0400FCF7F8FEE8E72046FFF708FFA368C31A4C
:109D1400638000238370EBE72DE9F0410E4614467F
:109D24000546D0B1EEB16A88AB6813449B78012B29
:109D34001BD024B32846FFF702FFA04221D3EFF340
:109D4400108872B621462846FFF70AFF074680B1FD
:109D5400B8F1000F16D162B614E07846FCF7CAFEDB
:109D6400E0E77846FCF7C6FEDDE77846FCF7C2FE7E
:109D7400DFE721462846FFF7E6FE3060E8E70927DB
:109D840000E009273846BDE8F081F8B50C461546D1
:109D94000646E0B1FCB1A378012B20D12388AB4265
:109DA40021D325B3EFF3108772B625800223A37065
:109DB400F1183046FFF7A2FE7388B288934203D0AD
:109DC400B268134400229A7007B962B6F8BD7846A7
:109DD400FCF790FEDEE77846FCF78CFEDBE778467E
:109DE400FCF788FEDAE77846FCF784FED9E7784684
:109DF400FCF780FED6E770B50C46054690B1ACB1D1
:109E0400EFF3108672B6AA88AB6813449A78042AD2
:109E140010D09A78022A15D0032A18D0052006B942
:109E240062B670BD7846FCF765FEE8E77846FCF755
:109E340061FEE5E7291D2846FFF760FEAA88AB68A6
:109E44001344E6E703229A7023600020E7E778468C
:109E5400FCF750FE0020E2E738B5044680B1EFF38A
:109E6400108572B6A088A16801448B78042B0BD0AE
:109E74008878022814BF0020012005B962B638BDD5
:109E84007846FCF737FEEAE72046FFF747FE01462F
:109E9400EEE738B5054630B1EFF3108472B6A88802
:109EA400A968014407E07846FCF724FEF4E7284655
:109EB400FFF734FE01468878C31EDBB2012BF6D9C6
:109EC400022814BF0020012004B962B638BD70B561
:109ED4000C46064678B194B1EFF3108572B6A378B8
:109EE400012B10D0032B13D121463046FFF76CFE13
:109EF40005B962B670BD7846FCF7FCFDEBE7784621
:109F0400FCF7F8FDE8E721463046FFF778FEEFE777
:109F14007846FCF7EFFDEBE710B5EFF3108472B66B
:109F24008388816819448B78042B06D08878B0FA2A
:109F340080F0400904B962B610BDFFF7EFFD014699
:109F4400F4E7000008B5064B986800221A605A60CE
:109F54009A60DA601A615A619A6104F0A7FF08BD39
:109F6400C438002000B585B00A4BDB6802228DF8A6
:109F7400002001934FF480530293074A694601205D
:109F840001F07AF918B9012005B05DF804FB00204E
:109F9400FAE700BFC4380020E038002000B585B0DF
:109FA4000A4B1B6802228DF8002001934FF4805362
:109FB4000293074A6946012001F05EF918B90120AD
:109FC40005B05DF804FB0020FAE700BFE438002088
:109FD400E0380020164BDA68137951795B1A03F5DF
:109FE4007F2303F6FF7302EB03339A4205D002F595
:109FF40080520F4BDA600320704700B585B00D4BDB
:10A004001B6801208DF8000001930B4B039304237C
:10A0140002930A4A694601F02FF918B1002005B0ED
:10A024005DF804FB024B01221A760220F7E700BF19
:10A03400C4380020E4380020E8380020E03800204C
:10A0440000B585B00C4BDA680C4B1B680433012057
:10A054008DF800000192039340F6FC730293084AC2
:10A06400694601F009F928B90120034B187605B0B7
:10A074005DF804FB0020FAE7C4380020E43800202F
:10A08400E038002000B585B00A4B1B6801208DF82C
:10A0940000000193084B039304230293074A694683
:10A0A40001F0EAF818B9012005B05DF804FB0020BE
:10A0B400FAE700BFE4380020D0380020E038002060
:10A0C40010B584B0104BDA681478104B1B68043355
:10A0D40001208DF800000193039202940C4A694612
:10A0E40001F0CAF870B9094B1B6804F0FC041C4465
:10A0F4000434054B5C61D9680A780A441A6101206A
:10A1040004B010BD0020FBE7C4380020E438002070
:10A11400E038002008B50023092B09D8064A52F874
:10A124002320824201D00133F6E7044A536002E05F
:10A134007846FCF7DFFC08BD38800400C4380020F2
:10A1440010B5214BDB6853B11F4B1B7E5BB91E4B13
:10A154005B68092B26D97846FCF7CCFC22E07846CC
:10A16400FCF7C8FCF0E77846FCF7C4FCEFE7164AB6
:10A17400536801335360092B21D97846FCF7BAFCA4
:10A184001DE0114B00225A6019E00F4B1B7E1BB1DE
:10A194000D4B02221A7012E0FFF7D4FE0FE00A4BB7
:10A1A4001B7E83B9084B5A68084B53F822309847F2
:10A1B40004460228E9D00328E3D00128D7D0012C93
:10A1C400EDD0032CEBD010BDC4380020388004003F
:10A1D400104B1B681B685A1E12F1030F18D8C3F3E7
:10A1E4000B020AB10020704710B50B4AD36000235C
:10A1F400137653760124147093600848FFF78AFF9E
:10A204000749204601F026F8FFF79AFF204610BDC3
:10A2140000207047E4380020C4380020699F020001
:10A2240029A2020008B50B78032B06D00B4B1B7830
:10A23400012B06D0022B0BD008BD084B00221A7646
:10A24400F4E7064B1B7E002BF6D1FFF779FFF3E70B
:10A254000B78032BF0D1FFF775FEEDE7C43800202F
:10A2640000B585B0174BDB6818784FF6FF7203F51D
:10A274008051184405F086F9E0B10246114BD968C3
:10A284000B780B44984217D00E4B5B7E83B10E4B78
:10A2940001208DF8000001920393042302930B4ADA
:10A2A400694600F0E9FF48B90120064B187606E03C
:10A2B400074BEDE7012002E0012000E0002005B09B
:10A2C4005DF804FBC4380020EC820400E038002070
:10A2D400E882040008B5104BDB681878002203F507
:10A2E4008051184405F04EF908B1012008BD0A4B0D
:10A2F400DA68137951795B1A03F57F2303F6FF7348
:10A3040002EB03339A4205D002F58052024BDA6025
:10A314000320EBE70220E9E7C4380020F0B585B05C
:10A32400514BDE6872793379591E8A4214D006F58E
:10A3340080510D780D444D490968081D0F79074473
:10A344009B1A06EB03366B88013B9BB247F6FE6211
:10A35400934260D92C461AE00120434B58767EE0A4
:10A364007846FCF7C7FB15E024F47F6424F00F045F
:10A3740004F5805423781C44A6421CD9A5421CD25F
:10A384006388013B9BB247F6FE62934211D923884E
:10A39400002BE5D0238804EB830323F47F6222F0AF
:10A3A4000F029342E0D06288B2F5FE4FDCD01C4627
:10A3B400E2E725462FE000252DE000252BE0784636
:10A3C400FCF798FB15E024F47F6424F00F0404F5F3
:10A3D400805423781C44A6421CD9A54237D26388F2
:10A3E400013B9BB247F6FE62934211D92388002BAE
:10A3F400E5D0238804EB830323F47F6222F00F0269
:10A404009342E0D06288B2F5FE4FDCD01C46E2E70E
:10A41400254600E00025E5B1144B19686A8801F56A
:10A424008051384605F0AEF8074690B101200E4B36
:10A4340018768DF8000001950D4B039304230293C5
:10A444000C4A694600F018FF58B92C46CEE700259F
:10A45400E1E7B5FA85F56D09034B5D76012005B09A
:10A46400F0BD0020FBE700BFC4380020E438002022
:10A47400E4820400E03800202DE9F04186B0654B09
:10A484001B6923B1634B5B692BB1002748E0784615
:10A49400FCF730FBF6E77846FCF72CFBF5E7A04623
:10A4A40018E07846FCF726FB18E028F47F6828F0CB
:10A4B4000F0808F5805898F800309844454520D98D
:10A4C40044454AD2B8F80230013B9BB247F6FE62DB
:10A4D400934214D9B8F80030002BE2D0B8F8003019
:10A4E40008EB830323F47F6222F00F029342DCD053
:10A4F400B8F80220B2F5FE4FD7D09846DEE74446BE
:10A5040000E000243CBB00230093019B002B5CD1A2
:10A514000127002C78D0628847F6FF739A4273D0E3
:10A52400002F75D13B4B5A6922F47F6626F00F0643
:10A53400B61A06F580561C69DD682B796A799B1A70
:10A5440005EB0335002301936388013B9BB247F677
:10A55400FE629342A3D800940EE00024D2E778462A
:10A56400FCF7C8FA23E024F47F6424F00F0404F514
:10A574008054237823441C46A542C6D92388019AD3
:10A5840002EB83029642C0D9009B634023F47F63AD
:10A5940023F00F03002BB8D16388013B9BB247F62D
:10A5A400FE618B42B1D801922388002BD7D0238837
:10A5B40004EB830323F47F6222F00F029342D2D090
:10A5C4006288B2F5FE4FD6D1CDE7124A5269012016
:10A5D4008DF808000392009A059204930E4A02A98A
:10A5E40000F04AFE70B90B49019B23F003024B694A
:10A5F40013444B6114B1074B1C618AE77846FCF79E
:10A6040079FAF8E7002000E0012006B0BDE8F08107
:10A614000120FAE7C4380020E038002008B54FF0E4
:10A6240010235B69B3F1FF3F09D04FF010235B693E
:10A634002BB14FF010235B69A3F5805305E04FF075
:10A6440080525369126902FB03F3A3F58053024A53
:10A654001360FFF7BDFD08BDE438002010B50446C3
:10A66400B0B1104B1B78BBB10E4BD968E368587975
:10A67400A3EB0032914211D31A79121A02F57F2208
:10A6840002F6FF7203EB0233994209D8012004E079
:10A694007846FCF72FFAE4E7002010BD0020FCE721
:10A6A4000020FAE7C4380020024B1878003818BF9D
:10A6B40001207047C438002010B504460E4B1B78A7
:10A6C40093B92378032B13D10B4B9C60E268DA60B7
:10A6D40000225A601A76012018705A76074900F051
:10A6E400B9FDFFF72DFD10BD7846FCF703FAE8E746
:10A6F4007846FCF7FFF9E7E7C438002029A20200F6
:10A70400014B1868704700BFE438002010B50446B8
:10A7140080B163681BB123680BB1A36813B9784691
:10A72400FCF7E8F9A3685A1E134207D10023E3603B
:10A73400236110BD7846FCF7DDF9EAE77846FCF7BB
:10A74400D9F9F3E770B508B30E4604468368FBB144
:10A75400EFF3108572B60369C268934212D00168A0
:10A764004268806800F1FF3C03EA0C0303FB02111A
:10A7740016B130461CF0C7FE2369013323614DB97D
:10A7840062B608E005B962B6052504E00E2502E0CC
:10A79400092500E00025284670BD00000246C0F3EC
:10A7A4000B0030BB39B301F6FF714FEA113C134B78
:10A7B4000221C3F80415114BD3F80034002BFAD04E
:10A7C40001460AE00D4BC3F808250C4BD3F80034BE
:10A7D400002BFAD002F5805201316145F2D3074BC8
:10A7E4000022C3F80425054BD3F80034002BFAD01B
:10A7F4007047102070470920704700BF00E00140F7
:10A80400844610F0030F2DD111F0030F2CD16AB33D
:10A8140012F0030F2CD19008164B0122C3F8042523
:10A82400144BD3F80034002BFAD003E00CF1040CE1
:10A8340004311046421E58B10B68B3F1FF3FF5D006
:10A84400CCF800300B4BD3F80034002BFAD0EDE7F2
:10A85400084B0022C3F80425064BD3F80034002B20
:10A86400FAD07047102070471020704709207047B5
:10A874000920704700E001404388012B05D0022BDA
:10A8840001D1043008600120704704304860FAE7C1
:10A8940008B508220221084804F07FF938B1074AB4
:10A8A40091684160127B027204F0AEF908BD04485D
:10A8B40004F0D4FAFAE700BFF4380020403900204D
:10A8C400902E00200E4B1B78CBB910B50D4B5C6855
:10A8D40004F50054B4F1807F00D910BD0422012195
:10A8E400094804F05AF930B14460054A0121117055
:10A8F40004F08AF9F1E7054804F0B0FAEDE770478F
:10A904005439002040390020F4380020802E0020E3
:10A9140010B5044608B1A04710BD7846FCF7EAF824
:10A92400F9E7000008B501210C4804F095F920B9B5
:10A9340002210A4804F090F928B1094804F08EFA7B
:10A94400FFF7C0FF08BD074A0023136053609360FC
:10A95400D3601361044A1370F2E700BFF438002097
:10A96400702E0020403900201839002000B58DB029
:10A974000B4B1B7B012B0ED0094A926804928DF875
:10A984000830039002238DF8043001A8FFF762F821
:10A994000DB05DF804FB024A9268013A0492EEE7B6
:10A9A4004039002010B58CB00C4682B94B88012B7D
:10A9B40020D1134B1B7833B16268124B5A60104B91
:10A9C40000221A7016E07846FCF794F8F4E7032A9C
:10A9D40012D12C22002101A81CF0BEFD11238DF8F8
:10A9E40004300394084BDA6805921B69069301A8A6
:10A9F400FFF730F80CB010BD7846FCF77BF8E8E7B9
:10AA04005439002040390020F438002000B583B0C8
:10AA140001F0C0FF0021009101916B46144A1548D2
:10AA240003F0A8FF009B6BB1019A5AB11868124950
:10AA340088601879087393420CD91B7953B90022A2
:10AA44000A600AE00C4B00221A609A601A73FFF73E
:10AA54001FFF02E01268084B1A60074B1A685A601D
:10AA6400FFF730FF01F0DCFF03B05DF804FB00BF2B
:10AA74007DA80200F43800204039002008B504F015
:10AA840041FAA0F5805008BD00B587B000230093BB
:10AA940001930293039304930593FFF7EFFF009050
:10AAA40001230193064B03936946064804F08BF98E
:10AAB40010B907B05DF804FB034804F0CFF9F8E7D8
:10AAC400A9A90200F4380020602E002010B50B4B19
:10AAD40000241C605C609C60DC601C6101F0CEF9A9
:10AAE400074B5860074A9A60074ADA601C615C6148
:10AAF400064B1C70FFF7C8FF10BD00BF4039002093
:10AB04001C39002041AC0200008793035539002012
:10AB140008B5084B1B7803B108BD0748074B036011
:10AB240000F064FE064801F041F9024B01221A705C
:10AB3400F2E700BFF03800203439002069AD02008C
:10AB44001C39002010B501F025FF164B1B7B0BBBF5
:10AB5400144B9B7B1BBB134B1A8A41F282639A42B0
:10AB640004D8114B1B782BB1012300E001231BB93E
:10AB7400082410E00023FAE70A4B01221A73002488
:10AB84001C829A6801329A60FFF782FE2046FFF722
:10AB9400EDFE00E0082401F043FF204610BD082428
:10ABA400F9E700BF403900205539002010B501F005
:10ABB400F1FE204B5B7B9BB11E4B9B7BF3B91D4B82
:10ABC4001A8A41F282639A4204D81B4B1B782BB138
:10ABD400012300E001239BB1012302E00023FAE7F3
:10ABE40000231C460BB3134B00225A731B7B4BB13F
:10ABF400012B0ED07846FBF77DFF16E00023F0E72B
:10AC04000023EEE7FFF79EFF78B17846FBF772FF6B
:10AC14000BE0084B00201860586018731882FFF787
:10AC2400A5FEFFF735FEFFF74DFE01F0F9FE2046C5
:10AC340010BD00BF403900205539002008B5214B14
:10AC44001B7B7BB1012B20D07846FBF753FF1D4AB9
:10AC5400138A013313821B4B5B8A13B1013B194ADC
:10AC6400538208BD174B1A8A41F282639A4204D870
:10AC7400154B1B783BB1012300E00123002BE6D0E8
:10AC8400FFF794FFE7E70023F8E70E4B1B8A41F236
:10AC94008262934204D80C4A127872B1012200E015
:10ACA4000122002AD3D042F2B012934207D9054BB5
:10ACB40001225A73FFF77AFFCDE70022F1E7FFF78D
:10ACC40075FFC4E7403900205539002010B5244BE6
:10ACD4001B7B002B35D10446214B5B8A2BBB1AB955
:10ACE4001F4B9B688B4205D3FAB11D4B9B68013304
:10ACF4008B421AD21A4B9B682A338B4223D3184BAC
:10AD04009B7B03BB164B996000221A605A601A821F
:10AD140042F6065159825A731A73FFF7B9FDFFF7C9
:10AD2400D1FD2046FFF722FE0DE062B10C4B9B687B
:10AD340001338B4207D10A4B01225A73FFF736FFC6
:10AD440001E0012B00D010BD002AFCD1044B9B680C
:10AD54008B42F8D1024B01225A73FFF727FFF2E727
:10AD6400403900200378042B00D0704743681B78D7
:10AD7400002BFAD010B58468027E437E012A14BFEA
:10AD840000220122416904F11000FFF79FFF10BD6A
:10AD940010B5184B1A685B689A4226D20446154BC4
:10ADA4001B7B012B14D0144B9A4213D2114B1A68FB
:10ADB4005B68403B9A4215D2EFF3108172B60D4A9C
:10ADC4001368581C1060236001B962B6002010BDDE
:10ADD4000A4BE9E7074B01225A73FFF7E7FE002805
:10ADE400EAD1E3E7FFF76EFDE6E7FFF76BFD0F201F
:10ADF400EDE700BF40390020FFFF7F0000E0FF00C7
:10AE040008B538B10D4B01229A730D4A136801330A
:10AE1400136008BD0A4B1B685BB1094A1368013B08
:10AE24001360002BF5D1054B00229A73FFF7BEFE89
:10AE3400EFE77846FBF75EFEEFE700BF40390020FE
:10AE4400EC38002000B58DB0ADF808008DF8102066
:10AE5400039103238DF8043001A8FEF7FBFD0DB028
:10AE64005DF804FB014B9868704700BF403900202F
:10AE7400054B1B7B012B02D0034B98687047024B98
:10AE840098680138704700BF40390020044B9B6824
:10AE9400584010F0010F00D0013B1846704700BF26
:10AEA40040390020014B187B704700BF4039002017
:10AEB40038B50B4B1B780BB1082038BD084B012269
:10AEC4001A70084DA8602973FFF7E2FC0020FFF711
:10AED4004DFD00242C606C60FFF7F4FC2046ECE789
:10AEE40018390020403900202DE9F041002625E0E2
:10AEF400134604FB03F3244AD25A3046C04722497E
:10AF0400BC2304FB03F3CA5A0132CA520221284665
:10AF140002F05EFD01370221284602F029FD0146B8
:10AF240049B1194BBC2202FB0433D3F80880B8F1B1
:10AF3400000FDDD1E3E797B90136F6B2022E1FD830
:10AF44003446BC2306FB03F308330F4D1D4404357C
:10AF54000221284602F00CFD01460027E0E72846BE
:10AF640002F09EFD0828E7D1074BBC2202FB043403
:10AF7400A368002BE0D00022044930469847DBE761
:10AF84000120BDE8F08100BF60390020608004002A
:10AF940008B5082383731023437300F11C03436132
:10AFA4000323037300F1180303610C3002F04AFD1C
:10AFB40008BD000008B50378012B06D0022B07D08A
:10AFC4007846FBF797FD002003E04FF4A97000E0FA
:10AFD400004808BD645E010008B50378012B07D062
:10AFE400022B13D07846FBF785FD4FF4FA7308E083
:10AFF40083685B1A9B084FF4A97000FB03F303F505
:10B00400FA730748984228BF184608BD83685B1A3C
:10B014001B0B044800FB03F303F5FA73F1E700BFCD
:10B0240060850100645E010038B5044601210C30DE
:10B0340002F09EFC054678B1084BC4F89C3000230E
:10B04400C4F8A0306168FFF7C7FFC4F8A800C4F8CB
:10B05400AC40012384F8B830284638BD81B10200E1
:10B0640010B50446FFF7E0FF20B104F19C000EF098
:10B07400E7FA00B910BD7846FBF73CFDFAE700009B
:10B08400F8B505460C46164617680378012B19D106
:10B094001249A1FB0431C9098B00AC68E41BB4EB71
:10B0A400810F00D31C468CB1686827F00307E96858
:10B0B400224639443844FFF7A3FB58B93368234484
:10B0C4003360F8BD7846FBF715FDE1E77846FBF7FA
:10B0D40011FDE9E77846FBF70DFDEFE7EB5DF26064
:10B0E400F8B506460C46154617680378022B17D1A7
:10B0F400114BA3FB04231B0C1A03B468E41BB4EB2D
:10B10400033F00D314467CB1706827F0030721463F
:10B114003844FFF743FB58B92B6823442B60F8BD30
:10B124007846FBF7E7FCE3E77846FBF7E3FCEBE75D
:10B134007846FBF7DFFCEFE7B77609BB38B5054681
:10B144000C4611462378012B06D0022B0FD07846EB
:10B15400FBF7D0FC002004E0021D2046FFF790FF1F
:10B16400A0686B68834214BF0020012038BD021D13
:10B174002046FFF7B5FFA068F3E700002DE9F84388
:10B184000F46D1F8A850254B1B786BB90446A5F59A
:10B19400FA7501F10C080121404602F0E9FB06466C
:10B1A40048B14FF0000922E00EF086FA002387F838
:10B1B400B830BDE8F8837846FBF79CFCF1E70EF065
:10B1C4007BFA0121404602F003FC00237B6087F8F0
:10B1D400B830134B186801F07BFC3846FFF740FF8A
:10B1E400E7E73046FFF7E6FE4844A8420FD8A5EB50
:10B1F400090231463846FFF7A1FF0028DFD101F0EC
:10B2040091FAB0EB0409ECD5A4EB0009E9E70EF0E0
:10B2140053FA3846FFF724FFCBE700BF5C39002020
:10B224005839002010B5084801F032FC074B18606B
:10B23400002406E0064BBC2000FB0430FFF7A8FE08
:10B244000134022CF6D910BDEDAE020058390020AD
:10B254006039002038B504460D46022805D8054853
:10B26400BC2303FB0404A56038BD7846FBF742FC0D
:10B27400F5E700BF603900202DE9F84305460C4688
:10B284001746022816D8CCB12378012B1AD0022BEA
:10B294003ED16368C3F30B03002B31D1A368C3F31E
:10B2A4000B03002B30D1A368002B34D17846FBF775
:10B2B40021FC30E07846FBF71DFCE4E77846FBF719
:10B2C40019FCE1E7636813F0030F0DD1E36813F091
:10B2D400030F0DD1A36813F0030F0DD1A368D3B9E5
:10B2E4007846FBF707FC16E07846FBF703FCEDE72E
:10B2F4007846FBF7FFFBEDE77846FBF7FBFBEDE752
:10B304007846FBF7F7FBC9E77846FBF7F3FBCAE798
:10B314007846FBF7EFFBEFF3108872B6BC2605FB0B
:10B3240006F606F108032A4E1E4404360021304670
:10B3340002F01EFB814678B30021304602F048FB40
:10B3440020686168A268E368C9F80000C9F80410BD
:10B35400C9F80820C9F80C302FB11D4BBC2202FBE0
:10B3640005335B883B801A4BBC2202FB05335A88A9
:10B3740001325A8093F8B83083B9164B1B7813B155
:10B384000024A1460CE0124BBC2000FB0530FFF763
:10B394004BFE8146002403E0042401E00024A1467E
:10B3A400B8F1000F00D162B6B9F1000F09D0BC208A
:10B3B40005FB00F09830064D284404300EF040F9A7
:10B3C40010B92046BDE8F8837846FBF793FBF8E70D
:10B3D400603900205C39002038B50446EFF310854D
:10B3E40072B610B9164B1B6873B18CB1144A13684A
:10B3F40001331360124B1B68003B18BF0123114A31
:10B40400137005B962B638BD7846FBF773FBECE7F9
:10B414000B4B1C68013C1C600CB1EBE70134022CA3
:10B42400E8D8094BBC2202FB043393F8B830002B54
:10B43400F4D1054B02FB0430FFF712FEEEE700BF28
:10B44400943B00205C3900206039002018B1830B44
:10B45400024AD05C70470020704700BF708004002F
:10B4640012DF704700B583B01378A3B1022B14D157
:10B47400072110F8013C163B152B31D8DFE803F007
:10B48400593030303030303030303030303030308F
:10B494003030302E0F3A517DEBE70021E9E70229E5
:10B4A40001D007291CD110F8021C013901F070FFEA
:10B4B400B0B1264B1B6813F0400F11D0244B1B680E
:10B4C400012B0DDD234BD3F804350190224A009261
:10B4D40093222249022002F0FBFC01E0022902D05F
:10B4E40003B05DF804FB10F8021C0139C9B213F073
:10B4F4005BFEF5E70229F3D110F8021C0139C9B249
:10B5040003F0BEFF0028EBD0104B1B6813F0400F74
:10B51400E6D00F4B1B68012BE2DD0E4BD3F804354C
:10B5240001900F4A0092A6220C49022002F0D0FC9E
:10B53400D6E701884FF6E4639942D1D110F8021C92
:10B5440003390230FBF724FACAE700BFB02E00200B
:10B55400AC2E002000100140E0800400D4800400E0
:10B564000C81040010B58AB00EF022FE70B30446BC
:10B5740000238DF810300DF1140C8646BEE80F0040
:10B58400ACE80F00DEF80030CCF80030627D052A0C
:10B5940004D9237D03F00F03072B1ED1164B1A6821
:10B5A4008AB104AB0393237DC3F303038DF8043002
:10B5B400637D062B1BD9063B8DF8053004F11D0372
:10B5C400029301A8904720460EF0D0FD0EF00CFE29
:10B5D40080F00100C0B20AB010BD207D04AB063A71
:10B5E40004F11D0100F00F000DF01EFBD6E700234F
:10B5F4008DF805300293E4E79C3B00200B4B1B784D
:10B60400032B00D0704700B58DB0084B04221A708C
:10B614002C22002101A81BF09FFF1C238DF804306D
:10B6240001A8FEF717FA0DB05DF804FB983B002063
:10B6340070B582B0354B1B78002B5CD104460028D2
:10B644005DD0067A0F2E01D0062E5AD105F068FF80
:10B65400E06870B1FCF7B0FD0DF10700FFF700FFE3
:10B664000546002848D19DF80730012B04D0022557
:10B6740042E0FCF7AFFDEFE7FCF7CCFD00F082FB06
:10B68400304601F025F9E07800F0A2F900F014FF4B
:10B694000DF058FF1E480EF043FE0DF06BFCFFF753
:10B6A400C1FD05F00DF800F067FD05F0F9FE05F0A9
:10B6B400BDFC204601F074FDFDF7A6FE04F0EEFA91
:10B6C400FBF766F908B106281DD112480DF08EFA71
:10B6D4002A200DF021FB2B200DF01EFB29200DF05C
:10B6E4001BFB16200DF018FB0B4B00221A60074BB6
:10B6F40001221A7000E00825284602B070BD0E250C
:10B70400FAE70725F8E70546F6E700BF983B00206F
:10B7140069B50200A02E00209C3B002010B582B029
:10B724001E4B1B78012B0DD05AB282B3033BDBB204
:10B73400012B2ED80DF074FF044658BB174B022280
:10B744001A7027E00EF0F0FC01F03CFDFDF79EFEC0
:10B75400FBF71EF90446B8B1062815D0104B1B6838
:10B7640013F4804F16D00F4B1B68012B12DD0E4BC8
:10B77400D3F8043501900D4A00924FF4D4720C4969
:10B78400022002F0A5FB05E001F0D8F8D2E7082476
:10B7940000E00824204602B010BD00BF983B002002
:10B7A400B02E0020AC2E002000100140388104008F
:10B7B400D480040008B5094B1B78022B01D0082063
:10B7C40008BD064B03221A7005480DF0DDFE002863
:10B7D400F6D07846FBF78EF90020F1E7983B00207D
:10B7E40001B6020008B5FDF755FE08BD08B5FEF721
:10B7F40059F908BD08B5FEF765F908BD08B500F0AC
:10B8040021FE002008BD08B507F0A4F908BD00001A
:10B81400074A136801331360B3F1704F02D0044B2D
:10B8240018687047134600221A6001221A60F6E76E
:10B83400A03B002010B5044618B1002323606360C8
:10B8440010BD7846FBF756F9F7E738B50C460546C0
:10B8540068B184B100236360EFF3108372B62A6881
:10B864006AB16A6854606C6003B962B638BD7846E0
:10B87400FBF740F9EDE77846FBF73CF9EAE72C6083
:10B88400F1E710B5044658B1EFF3108372B620689F
:10B8940008B142682260226832B103B962B610BDB1
:10B8A4007846FBF727F9EFE76260F6E710B5044640
:10B8B40008B1206810BD7846FBF71CF9F9E738B5E4
:10B8C4000C46054688B1A4B12046FFF7EFFF58B1F6
:10B8D4002846FFF7EBFF80B16B6822685A60636803
:10B8E4006B602046FFF7A6FF38BD7846FBF702F9E8
:10B8F400E9E77846FBF7FEF8E6E794E8030085E815
:10B9040003002046FFF796FFEEE7037A13B1002306
:10B914000372704743681B6804334360704710B573
:10B9240084B00446416803681A1D91420DD06368CF
:10B9340018682268516888421CD063681A68526883
:10B944001A600123237204B010BD019302930023F3
:10B954008DF80C30029B1B68002BE8D062681268DB
:10B964009A4203D001A8FFF7D0FFF3E701A8FFF73D
:10B97400D6FFE8E7934202D0043B5360DDE700239F
:10B984005360DAE735DF70473CDF70473DDF7047CF
:10B9940010B504464FF0FF30FFF7F4FFFF210020FD
:10B9A400FFF7F4FF21460020FFF7EEFFBFF34F8FB0
:10B9B4000549CA6802F4E062044B1343CB60BFF349
:10B9C4004F8F00BFFDE700BF00ED00E00400FA0563
:10B9D400072814D8DFE800F0080C1504110F0A0634
:10B9E4006420704714207047FA2070471E20704767
:10B9F4004FF4FA707047322070474B207047FA209A
:10BA04007047962070470000024B5868103840B2C7
:10BA1400704700BF00ED00E0034600280FDB5B1118
:10BA2400084A52F82330424200F01F0002F01F027D
:10BA340058BF504223FA00F000F00100704700F1B3
:10BA44001F03ECE700E100E046DF704738B5044629
:10BA54000D464B1EDBB2012B0AD800232361636120
:10BA6400A361E3612046FFF7EFFF4FF0010C1AE0FA
:10BA74007846FBF73FF8F0E7CA5CC8185200D2B228
:10BA8400CA54407842EAD012CA5401339BB20E2BF6
:10BA9400F2D9CB7B5B00CB73BEF1000F0ADB0CF158
:10BAA400010C5FFA8CFCAC450BD8214611F920EF50
:10BAB4000023ECE794F82F3083F0870384F82F30C9
:10BAC400EDE738BD2DE9F04190B084460C4696462A
