:020000022000DC
:1060000000F000206D630200556302005763020038
:10601000596302005B6302005D6302000000000040
:106020000000000000000000000000005F630200AC
:106030006163020000000000636302006563020008
:10604000676302006763020067630200A1FF030049
:1060500067630200676302009976020067630200CB
:106060006763020067630200515603006763020022
:1060700067630200676302006763020067630200F0
:106080006763020061CE030005BA02006763020085
:1060900031CF0300676302007D8103006763020064
:1060A00067630200676302006763020067630200C0
:1060B0006763020067630200000000000000000048
:1060C00067630200676302006763020067630200A0
:1060D000676302006763020067630200000000005C
:1060E00000000000000000000000000000000000B0
:1060F00000000000000000000000000000000000A0
:10610000000000000000000000000000000000008F
:10611000000000000000000000000000000000007F
:10612000000000000000000000000000000000006F
:10613000000000000000000000000000000000005F
:10614000000000000000000000000000000000004F
:10615000000000000000000000000000000000003F
:10616000000000000000000000000000000000002F
:10617000000000000000000000000000000000001F
:10618000000000000000000000000000000000000F
:1061900000000000000000000000000000000000FF
:1061A00000000000000000000000000000000000EF
:1061B00000000000000000000000000000000000DF
:1061C00000000000000000000000000000000000CF
:1061D00000000000000000000000000000000000BF
:1061E00000000000000000000000000000000000AF
:1061F000000000000000000000000000000000009F
:10620000344935480A1A02D0072291438D46334952
:1062100033480A1A06D00722914381F309880222E3
:1062200082F314882F483049304A00F042F8304851
:106230003049314A00F03DF830483149314A00F0E8
:1062400038F831483149324A00F033F831483249A0
:10625000324A00F02EF832483249334A00F029F829
:1062600032483349334A00F024F833483349002296
:1062700000F02AF832483349002200F025F832486D
:106280003249091A082902DB0022026041601F48D6
:106290001F49884205D00268043003B4904703BC0C
:1062A000F7E700208646EC4600200021284A904768
:1062B000FEE7884207D0521A05D0037801300B70F0
:1062C0000131013AF9D17047884202D002700130A1
:1062D000FAE7704700F0002000E8002000F00020FE
:1062E00000F00020A0390400A02D0020202F002065
:1062F000A4630200A4630200B2130400A0390400E6
:10630000A02D0020A02D0020001504000015040081
:106310000015040000150400001504000015040019
:106320000015040000150400A0390400203B0400FF
:10633000202F0020202F0020202F0020247B002051
:10634000247B0020247B0020247B0020247F00204D
:106350002D780200FEE7FEE7FEE7FEE7FEE7FEE738
:10636000FEE7FEE7FEE7FEE7704700BF094880470B
:1063700009484FF007018843854608488047084888
:10638000016841F470010160BFF34F8FBFF36F8F5D
:10639000FFF736BF6963020000F000205D84030050
:0463A00088ED00E0A4
:1063A400134B1B685B0437B5044615460DD5114BDA
:1063B4001B68032B09DD104B104AD3F80435104930
:1063C400009204208D2206F0FFFAA36B04F13C0135
:1063D4002046984794F83C302B7094F83D306B700D
:1063E40094F83E30AB7094F84030EB7003B030BD9D
:1063F400802E00207C2E0020001001406E15040029
:10640400621504001FB590F83C308DF8043090F804
:106414003D308DF8053090F83E308DF8063090F818
:1064240040308DF80730044690F83F308DF808303E
:1064340000F141010DF109001AF065FF01A92046A0
:106444001AF062FA04B010BD002370B580F84C3025
:10645400137880F83C30537880F83D30937880F896
:106464003E30D37880F840301379049D80F83F3073
:1064740000F141060446511D30461AF044FF2046FF
:10648400FFF7C0FFA5B194F83C302B7094F83D3071
:106494006B7094F83E30AB7094F84030EB7094F825
:1064A4003F302B713146681DBDE870401AF02BBF98
:1064B40070BDFFF7A7BF000010B5044608B90E2051
:1064C40010BD094BC362436B002BF8D0836B002BC8
:1064D400F5D01AF0F1F90028F2D10146034A206BF5
:1064E400BDE8104016F0D0BE7C150400B76402006D
:1064F40010B5054C236833B110F012F9002802DB03
:1065040023689847F8E710BD202F0020144B154A44
:1065140010B50C4618600121134816F0B5FE18B1E9
:10652400124A4A2112F0D3F841F27073E003610C6D
:10653400984271F1000310D34FF47A7200231AF0D9
:1065440047FD01460A48002216F0B0FE38B1BDE806
:106554001040064A4B2112F0BAB80521F2E710BDEB
:10656400202F0020F5640200F415040084150400B3
:10657400242F0020F0B50446CFB038B12B4E336839
:106584005A0403D52A4F3B68032B01DC4FB0F0BDFE
:10659400284B1D680DAB411E00F10F0C184611F875
:1065A400012F4FEA121E02F00F0215F80EE083F8D5
:1065B40000E0AA5C5A708C4503F10203EFD100237A
:1065C4001D4D80F820301D4AD5F8043501921C4A2F
:1065D400029000921B494122042006F0F5F9336829
:1065E4005B04D3D53B68032BD0DDE27BD5F80435BF
:1065F4000B92A27B0A92627B0992227B0892E27A36
:106604000792A27A0692627A0592227A0492E2882A
:106614000392A2880292226801920B4A00920949CD
:106624004222042006F0D0F9B0E700BF802E0020FB
:106634007C2E0020842E0020001001406B160400E4
:106644007D1604005A1604008516040076DF704790
:106654007ADF70477CDF704712F02CB804F0F0B892
:1066640007B503784BB940883B21FFF7EFFFC0B172
:1066740003B05DF804EB12F01DB8012B11D10A4BE5
:106684001B685B040DD5094B1B68032B09DD084B04
:10669400084AD3F80435084900920420682206F019
:1066A40093F903B05DF804FB802E00207C2E0020BB
:1066B40000100140401704002717040007B511F02B
:1066C400D9FC08B111F0F6FF002301A901200193C0
:1066D40011F016FC08B111F0EDFF01A811F062FCF5
:1066E40008B111F0E7FF03B05DF804FB1FB51123F7
:1066F4000F498DF804300C2201A8FFF7ABFF08B155
:1067040011F0D8FF0023ADF80C307823ADF8083031
:10671400C823ADF80A3002A84FF4C873ADF80E30A0
:10672400FFF796FF08B111F0C5FF05B05DF804FB53
:106734006C17040000B58BB078220023ADF8042058
:10674400C822CDE90633ADF80830ADF8062001AB18
:106754004FF4C872ADF80A20039340F6CD424FF4CB
:106764008033CDE9042303238DF81830064B0893B6
:1067740003A8064B099311F001FE08B111F09AFF2A
:106784000BB05DF804FB00BF656602005D660200A5
:106794000620704730B5464B44F201051B68A842F9
:1067A40087B0044603F4804368D017D801282ED05C
:1067B40041F20100844250D0002B38D03D4B1B687D
:1067C400002B34DD3C4B3D4AD3F804350191009253
:1067D4003B497B22012006F0F7F828E044F202004E
:1067E4008442E9D11BB3334B1B68002B1FDD324BB2
:1067F4001088D3F8043503905268CDE90112314A68
:1068040000922F496922012006F0DEF80FE073B1EF
:10681400284B1B68002B0ADD274BD3F80435CDE940
:106824000112294A26490092602206F0CDF8002080
:1068340004F0BCF84FF0A0434FF4F012C3F818254D
:10684400C3F80C25EFF3108372B64DF6AD6C1F4AF6
:106854001378002B2AD107B030BD002BE7D0154B9D
:106864001B68002BE3DD144BD3F80435CDE901128A
:10687400174A0092124963220120D6E7002BD6D092
:106884000C4B1B68002BD2DD0B4B1068D3F804357E
:1068940004905068CDE90210926801920D4A00926A
:1068A40007497322012006F08FF8C0E730BFCFE715
:1068B400802E00207C2E0020001001406818040067
:1068C400DB17040028180400EC170400A02D002096
:1068D400061804004718040007B500230146ADF864
:1068E40000306A46044B019344F20200FFF752FF62
:1068F40003B05DF804FB00BFD91D040007EE900A45
:1069040007EE101AF8EE677ADFED0C6AB8EE477AF4
:1069140067EEA66AF4EEC76AF1EE10FA0BD4DFED67
:10692400086A67EEA67AB4EEE77AF1EE10FA4CBF85
:106934000120002070470120704700BF9A99993FB9
:10694400CDCC4C3F064B1B7843B140B1054B1B8863
:1069540030EA03030CBF0120002070470120704778
:106964004A2F0020482F00202DE9F04F2DED068BF3
:106974000C4685B015468146002800F06382B04B72
:106984001B78002B00F06082002900F05F82002356
:1069940093701371537191F804A082F801A00B7BDA
:1069A4009FEDA88A02331F2B4FEAA3028ABF072355
:1069B400EA70EB70EF78D1F800B0BB0007EE90BA44
:1069C4000B73A14BF8EE679AD3ED008ADFED9F7A43
:1069D40087EEA8AAC9EE8A7AC7EE887A17EE900ADB
:1069E4001AF08CFA41EC100B1AF0A2FA51EC100BCD
:1069F4001AF070FADFED967A87EEA89A8046C9EE0F
:106A0400897AC7EE887A17EE900A1AF077FA41EC81
:106A1400100B1AF08DFAB8F10F0F51EC100B28BFC0
:106A24004FF00F081AF056FA8A4B03FB08F307EEEF
:106A3400903AF8EEE77A1028C7EEA87A38BF10200B
:106A44001F2828BF1F20064617EE900A1AF056FA90
:106A540041EC100B1AF06CFA51EC100B1AF03AFAE4
:106A64007D4A0190724307EE902AF8EE677AC7EEEA
:106A7400A87A17EE900A1AF041FA41EC100B1AF0BA
:106A840057FA51EC100B1AF025FA019B0146ABEBB7
:106A94000300ABEB01020028B8BF4042002AB8BF94
:106AA40052429042D7BF85F800802E702360194669
:106AB400C8BF21605846FFF721FFA368029307EE81
:106AC400903AF8EE679A0646C9EE8A7AC7EE887A53
:106AD40017EE900A1AF012FA41EC100B1AF028FA89
:106AE40051EC100B1AF0F6F9C9EE897A8346C7EE19
:106AF400887A17EE900A1AF001FA41EC100B1AF09A
:106B040017FABBF10F0F51EC100B28BF4FF00F0B0E
:106B14001AF0E0F94F4A02FB0BF207EE902AF8EE66
:106B2400E77A1028C7EEA87A38BF10201F2828BF9C
:106B34001F20804617EE900A1AF0E0F941EC100B82
:106B44001AF0F6F951EC100B1AF0C4F9424901900D
:106B540001FB08F107EE901AF8EE677AC7EEA87AFF
:106B640017EE900A1AF0CAF941EC100B1AF0E0F98A
:106B740051EC100B1AF0AEF9DDE90123A3EB020C82
:106B8400191ABCF1000FB8BFCCF1000C0029B8BF32
:106B940049428C45D1BF85F802B085F80280014690
:106BA400A060DCBFA26011461846FFF7A7FE0644AA
:106BB4004846FFF7C7FE002800F03F819FED277A83
:106BC400D4F810B0C7EE287AAAEB87094FEA091364
:106BD4005AEA070A07EE109A09EE103AF8EEC79A35
:106BE400B8EEC99A69EEA79A29EE279A00F0208197
:106BF40007EE90BAB8EE67AACAEE297AC7EE887A89
:106C040017EE900A1AF07AF941EC100B1AF090F989
:106C140051EC100B1AF05EF9CAEE097A8046C7EE01
:106C2400887A17EE900A1AF069F941EC100B1AF001
:106C34007FF951EC100B1AF04DF9074610E000BF34
:106C44004A2F002000007A44442F002000007F4691
:106C54000000FF470006F9000030C80700007F432A
:106C6400B8F10F0F28BF4FF00F08C9EB09230193A8
:106C740003FB08F307EE903AF8EE677A102F87EEDD
:106C8400A87A38BF10271F2F28BF1F2767EE087A5E
:106C940017EE900A1AF032F941EC100B1AF048F989
:106CA40051EC100B1AF016F94FF47F6101FB09F94E
:106CB40009FB07F307EE903AF8EE677A029087EE45
:106CC400A87A67EE087A17EE900A1AF017F941ECE1
:106CD400100B1AF02DF951EC100B1AF0FBF8029A74
:106CE400ABEB020CBCF1000FABEB0001B8BFCCF175
:106CF400000C0029B8BF49428C45D1BF85F80480F7
:106D04002F7101462061DCBF226111465846FFF70E
:106D1400F5FD6369039307EE903AB8EE67AA074658
:106D2400CAEE297AC7EE887A17EE900A1AF0E6F8C6
:106D340041EC100B1AF0FCF851EC100B1AF0CAF8E5
:106D4400CAEE097A0290C7EE887A17EE900A1AF012
:106D5400D5F841EC100B1AF0EBF851EC100B1AF0CB
:106D6400B9F8039B8046BAF1000F64D0029A0F2A47
:106D740028BF0F2292460293019B03FB0AFB07EEF6
:106D840090BAF8EE677AB8F1100F87EEA87A38BF98
:106D94004FF01008B8F11F0F28BF4FF01F0809FB70
:106DA40008F967EE087A17EE900A1AF0A7F841EC92
:106DB400100B1AF0BDF851EC100B1AF08BF807EE1B
:106DC400909AF8EE677A834687EEA87A67EE087A97
:106DD40017EE900A1AF092F841EC100B1AF0A8F88A
:106DE40051EC100B1AF076F8029BA3EB0B0100296F
:106DF400A3EB0002B8BF4942002AB8BF52429142F5
:106E0400D1BF85F805A085F8058001466061DCBF27
:106E1400C4F814B059461846FFF770FD38440644C8
:106E2400301E18BF012005B0BDEC068BBDE8F08F05
:106E3400D046574614E7D0469DE7C4E904002871BC
:106E44006871EDE70220EEE70420ECE70E20EAE7A4
:106E540007EE901A054BF8EE677A0122C3ED007A2B
:106E6400034B1880034B1A70704700BF442F002057
:106E7400482F00204A2F0020044B054802221A60A4
:106E840040F28F21002216F011BA00BF502F0020CB
:106E9400542F002038B5104C206808B911F00AFCB2
:106EA4000E4D2B6801207BB118F0F4F908B111F0F4
:106EB40001FC00232B602368013B23605BB9BDE820
:106EC4003840074816F03ABA18F0C4F908B111F07E
:106ED400F1FB0123EEE738BD502F00204C2F00209A
:106EE400542F002038B519B3132821D9114B490068
:106EF4000139196000244FF4FA718C464FF40045AF
:106F04002146E0FB05C14FF47A72002360461AF073
:106F14005FF822460146084816F0C8F940B9012036
:106F240018F098F908B111F0C5FB044B01221A605E
:106F340038BD00BF502F0020542F00204C2F0020BC
:106F440008B5064816F0FAF9012018F0A3F918B1AB
:106F5400BDE8084011F0AEBB08BD00BF542F0020AF
:106F6400024B1868003818BF012070474C2F0020CE
:106F740008B5094A0948012116F086F908B111F04B
:106F840099FB074A0748012116F07EF918B1BDE8BC
:106F9400084011F08FBB08BD996E020084180400EC
:106FA4007D6E02008818040010B5094C40B1012020
:106FB40018F050F908B111F07DFB0123236010BDD6
:106FC400012018F067F908B111F074FB0023F5E70C
:106FD4004C2F002000B54FF4FA7389B00120CDE99D
:106FE4000103FF2228230521CDE903234FF4C873AD
:106FF400CDE9051301A9079318F06CF908B111F054
:1070040059FB09B05DF804FB00B54FF4FA7389B07D
:107014000322FF21CDE901232823CDE90313052011
:107024004FF4C873CDE9050301A90120079318F0B3
:1070340051F908B111F03EFB09B05DF804FB000002
:10704400024800224FF4803116F030B9742F00202A
:10705400014816F073B900BF742F00201FB5264CE9
:1070640022781AB1012803D003283CD004B010BD03
:10707400002302A9029310F043FF08B111F01AFB98
:1070840002A810F08FFF08B111F014FB012303A92B
:107094000DF1060003930DF065F908B111F00AFB38
:1070A400BDF806000CF05AFE0DF105010CF074FF5A
:1070B40008B111F0FFFA09F04BF99DF80510002012
:1070C40009F0EAFC10B17846FFF706FC03F058FB20
:1070D40008B111F0EFFA00232370084B1B68002B52
:1070E400C4D09847C2E710F0C5FF0028BED004B052
:1070F400BDE8104011F0DEBA962F0020982F002032
:1071040008B503781C2B0CD1064B1B784BB110F03F
:10711400EFFF08B111F0CEFABDE80840024803F0D1
:107124008DBB08BD962F0020A42D002010B5074963
:10713400074811F059FE024638B90649064849691C
:10714400BDE81040032311F068BE10BDB42F002029
:1071540020330020982F0020EC31002010B5037854
:10716400023B082B4AD8DFE803F01E05124A4938CF
:1071740049493F00254B5B68002B3FD0007A00282B
:107184003CD0234A0121BDE81040117018471F4B21
:107194009B68002B32D01E4A117879B30021BDE8D8
:1071A4001040117018471B4B1A784AB9174BDB680B
:1071B40013B117490A709847BDE81040FFF7B6BFEE
:1071C400154B164801221A7003F036FB03F01CFB22
:1071D400A0B1BDE8104011F06DBA0C4B104899698C
:1071E400102211F06AFEF3E7D0E9021008F020FA49
:1071F40008B111F05FFA074B01221A7010BD034B5E
:10720400C0681B69BDE81040184700BF982F0020D4
:10721400942F0020952F0020962F0020A42D0020CD
:10722400EC31002070B51C4A1C4E5168044686B0EF
:10723400106803AB03C31189927A19809A700FCC3A
:1072440035460FC594E8070085E80700B36903B322
:10725400134B0093134A1449144803AB11F090FDE7
:10726400A8B9134812F0E4FD0146104811F0A8FD36
:1072740068B9104813F000FA48B90E4813F032FA0E
:1072840001460A4811F09CFD08B9FFF74FFF06B00C
:1072940070BD0720FBE700BF8C180400982F002066
:1072A40061710200B42F002020330020EC31002053
:1072B400D42F00209C31002041DF70476DDF7047E0
:1072C400034B0A781A704A785A708A789A70704711
:1072D40020340020044B1A780A705A784A709A783D
:1072E4001B798A700B7170472034002070470000AE
:1072F400012A07B519D0022A27D0002A35D11F4BFD
:107304001B6859040ED51E4B1B68032B0ADD1D4B4D
:107314001D4AD3F8043500924FF484721B490420AB
:1073240005F052FB03B05DF804FB144B1B685A04D0
:10733400F8D5134B1B68032BF4DD124B144AD3F816
:107344000435009240F20D12E8E70C4B1B685B0415
:10735400E8D50B4B1B68032BE4DD0A4B0D4AD3F82D
:107364000435009240F21112D8E70B4A40F215118D
:10737400032003B05DF804EB11F0A9B9802E0020BE
:107384007C2E002000100140541904004D19040003
:107394007419040094190400B21804001FB501AB59
:1073A40083E8070003221946024819F087F805B05C
:1073B4005DF804FB643300201FB5284C236859048E
:1073C4000ED5274B1B68032B0ADD264B264AD3F820
:1073D40004352649009204204FF4D27205F0F4FAE1
:1073E40023480121FFF768F818B1224AF32111F06C
:1073F4006EF923685A0410D5194B1B68032B0CDD56
:107404001B4A184B1288D3F8043501921A4A009289
:107414001649F422042005F0D7FA1848184B836360
:1074240000230363838623685B0414D50C4B1B6819
:10743400032B10DD0B4B0121D3F80435039318F013
:10744400F1FF104A01900092039B08494FF4D9724E
:10745400042005F0B9FA04B010BD00BF802E00204E
:107464007C2E002000100140B61904004D190400C0
:10747400B42D0020B2180400D6190400643300208F
:10748400BC1A0400EE19040008B50020FFF78CFDB7
:10749400BDE808401E213220FFF724BD0E4B1B68B7
:1074A4005B0407B50ED50D4B1B68032B0ADD0C4B93
:1074B4000C4AD3F804350C490092042040F22F12F0
:1074C40005F082FA0321C820FFF70CFD03B05DF834
:1074D40004EB08F061B900BF802E00207C2E002050
:1074E40000100140F21904004D19040003781C2B0C
:1074F40001D1FFF7D3BF7047FFF722BD1FB51D4C65
:1075040023685A040ED51C4B1B68032B0ADD1B4B46
:107514001B4AD3F804351B490092042040F291120F
:1075240005F052FAFFF7E2F8FFF704F903A80CF0AC
:1075340001FB23685B0411D50F4B1B68032B0DDD86
:107544000E4BBDF80C20D3F8043501920E4A00927C
:107554000C494FF4CE72042005F036FAFFF7F0FC24
:107564000020FFF721FD0421C820FFF7BBFC04B075
:1075740010BD00BF802E00207C2E00200010014092
:107584000B1A04004D190400251A04000A4B1B6849
:107594005B0407B50DD5094B1B68012B09DD084BAE
:1075A400084AD3F80435084900920220FA2205F06B
:1075B4000BFA03B05DF804FB802E00207C2E002023
:1075C400001001403C1A04004D19040070B5264B0C
:1075D4001B685B048AB004460FD5244B1B68032B3D
:1075E4000BDD234B234AD3F8043523490190009241
:1075F40004204FF4A17205F0E7F9012C2CD81F4D9B
:107604002B785BB319F010FBCE238DF81030662372
:1076140000268DF812300A238DF8133003908DF86C
:10762400116019F0BFF904AC03998DF814000DF141
:10763400150019F068FE94E8070007AB03C323F8AC
:10764400022B120C1A700E48032207A918F036FFF9
:107654000C4B2E7001221A700AB070BD0AB0BDE83E
:10766400704019F057BA00BF802E00207C2E0020F5
:10767400001001405B1A04004D190400162E00206E
:1076840064330020383400203038042801D8FFF750
:107694009DBF704738B5224B224C0022C3F87C2191
:1076A4004FF0A0432178D3F81025C2F34032914221
:1076B4001FD0D3F81025C2F3403222706AB11A4A9F
:1076C400C3F83427FFF74CFC18B9BDE83840FFF77E
:1076D4009BBCBDE83840FFF7B3BC144AC3F8342759
:1076E400FFF7B6FCFFF73CFCC0B9BDE83840FFF734
:1076F4005BBC0F490F480B68D0F804259D1A48BF9E
:10770400D51A43F233339D4205D9D0F804350B60C2
:107714000020FFF75BFF2378002BDAD138BD00BFD0
:1077240000600040603300200400030004000200F5
:10773400A433002000B000401FB5314B02933E2219
:107744001A70304A5A60304A9A60304A00921023C4
:1077540040F2024200216846ADF804208DF80C3056
:1077640017F0D8FD08B110F0A5FF002017F092FD26
:1077740020B1274A4FF4097110F0A9FF012017F036
:1077840089FD20B1224A40F2252110F0A0FF4FF0DC
:10779400A0430322C3F84827C3F84C27C3F8502753
:1077A400C3F854274FF48022C3F80C254FF4002269
:1077B400C3F80C254FF48012C3F80C254FF40012C3
:1077C400C3F80C25134AC3F82C27134AC3F83427EB
:1077D400124A00204FF00041C2F80413C2F87C01A1
:1077E4000F4AC02182F8061340211160D3F81035E6
:1077F4000C4AC3F34033137005B05DF804FB00BFBB
:107804002C340020EC1A0400201B0400D81A0400B5
:10781400B21804000C0003000400020000600040E1
:1078240000E100E06033002070B5704E704A4FF400
:1078340010308CB0052105F0ADF8336858040ED52E
:107844006C4B1B68032B0ADD6B4B6C4AD3F8043575
:107854006B490092042040F2592205F0B5F815F066
:10786400B9FC20B1674A40F25B2110F030FFFFF70A
:107874007FFBFEF723FFFEF739FFFEF75BFF624B4A
:10788400039303A818F090FC08B110F013FF002133
:10789400202203A819F004FD5C4B039306238DF802
:1078A40014305B4B07935B495B4B0B9303A807F0C6
:1078B40034FF20B1534A40F2532110F008FFFFF780
:1078C4003BFF56486421FEF721FE524B1B78002BE8
:1078D4005FD1534D0FCD03AC0FC495E8070084E886
:1078E400070003A8FFF79EFC20B1464A40F27A2124
:1078F40010F0EDFE4B4B1B780BB9FFF76BFB00F060
:1079040073F9FEF737FE07F037FF20B13D4A40F226
:107914009A2110F0DCFE03A8FFF7D0FC0DF10D0056
:1079240019F002F90021012019F060F80DF10D00A1
:1079340019F080F93C4A3D493D4819F017F83D4893
:1079440019F02AF833685A0414D52A4D2B68032BEE
:1079540010DD294C384AD4F8043529490092042012
:107964004FF43E7205F030F833685B0402D52B689F
:10797400032B2DDC314D0024FFF79EFC2B7823B123
:1079840019F010F8001B6328F6D919F00BF8044617
:10799400F2E74FF0A043D3F8103519050FD409F0DE
:1079A40047F8274D07F0A2FE4FF4FA7445F001059D
:1079B4004FF47A40A847013CFAD1FFF76FFD194B09
:1079C4001B78002B9BD102216420FFF78BFA96E7EA
:1079D4000B22D4F8043501921A4A0092084940F265
:1079E400F922042004F0F0FFC4E700BF802E002039
:1079F4006DC902007C2E0020001001406E1A0400A4
:107A04004D190400B2180400041B0400010000070F
:107A1400F1740200A0330020BD7302008D760200D1
:107A2400A01A0400603300202B340020B02D002065
:107A3400142E0020A1730200941A0400383400208C
:107A4400D01A0400EE19040072DF704773DF704728
:107A540074DF70472DE9F0470F463049304D0B78FD
:107A6400304C064630489046C3EB4312154401336C
:107A74000244A2B04FF0000A03F00103A2601F22E7
:107A84000B70C4F804A0C4F80CA0A280A2815146D3
:107A94003C2204A8256019F003FC062301AA8DF8F2
:107AA40013300E9201233C22514604F1040913A819
:107AB4008DF80230ADF820308DF83C30ADF8006020
:107AC400CDF824D0ADF80460ADF80880039719F020
:107AD400E7FB02234A46294604A88DF84C300FF0F0
:107AE400DBFF08B110F0E6FD104AA16813A80FF0FF
:107AF400D3FF08B110F0DEFD0D4A0A490D48FFF727
:107B0400A3FF082804D107490A480022FFF79CFF75
:107B140008B110F0CFFD22B0BDE8F0873934002061
:107B24003A34002078340020883400208434002043
:107B3400182E0020172E0020B0F5202F0AD20A2379
:107B4400B0FBF3F310B1012B38BF0123034A938137
:107B5400916070474FF6FF73F5E700BF182E0020C1
:107B640008B5064B01211878FFF770FF08B110F033
:107B7400A1FDBDE80840002003F070BC172E0020D2
:107B840008B5054B1878FFF763FF18B1BDE8084046
:107B940010F090BD08BD00BF172E0020044B00F16B
:107BA400100250F8041B43F8041B9042F9D17047AB
:107BB400C634002010B54FF0805202F1600403CCAB
:107BC400084BA4325960186003CADA79D9600421D9
:107BD40061F307129860DA711A7A022161F387124D
:107BE4001A7210BDC634002000487047C634002005
:107BF4000022064913460132202A4B804B6001F8CB
:107C0400083BF8D1024A1360704700BFD834002003
:107C1400D83500200C4BF0B51B680C4D04462022CF
:107C24007BB1013B15F8330050B105EBC3067788EF
:107C3400A74202D176688E4202D0013AF0D11046B2
:107C4400F0BD1F23EEE700BFD8350020D834002054
:107C5400094A30B51368094C04EBC3051F2B69604E
:107C64004FF0010104F83310194408BF0023688061
:107C740014BF1160136030BDD8350020D834002003
:107C8400C0F30C038B42084438BFA0F50050C01A5F
:107C94007047C27D0B7830B52AB3C27823F07F03D6
:107CA40002F07F0213430B700B78027803F07F031A
:107CB40043EAC2130B70AAB18378C588083B5C42BF
:107CC4005C41C5F3861343EAC4134B70047AC4F3CE
:107CD400C10242EA85028A70437A03F01F0343EA31
:107CE4004413CB7030BDC27823F0400343EA8213BF
:107CF400027923F03F0302F03F02D3E70D4B0E4A13
:107D0400F0B51E6800218E4211D05568002309E0A9
:107D1400146804EBC30714F83340844201D1786833
:107D2400F0BD01339D42F3D101310832EBE700206D
:107D3400F6E700BFDC350020E035002000B58DB04B
:107D440040B99A1C06D0012201A88DF804200293A0
:107D540001F056F9034B18680DB05DF804EB03F01D
:107D640075BD00BFF0350020037810B5044613B983
:107D74007846FEF7B1FDE188A069FFF781FFE3696A
:107D8400190A1B06181841F1000110BD037810B53B
:107D9400044613B97846FEF79FFD607A431C012020
:107DA4009840013810BD0000037870B506460D46B2
:107DB40013B97846FEF790FDB18A0F4B00221001EB
:107DC400C45A8C4213D100221A520C4A1468601C03
:107DD40004F0070424011060195305B175781C449C
:107DE4003046A570FFF7C0FFC4E9020170BD01323F
:107DF400082AE4D1E9E700BFF835002078360020EE
:107E04002DE9F0410E468EB015461C46074610B9C2
:107E14007846FEF761FD16B97846FEF75DFD636AA4
:107E2400A27802330593E378A2F10800002B14BF73
:107E3400012102210DF1040842424241434604F16A
:107E44000C0003F04EFEA3788DF83430237BADF89C
:107E54002050022B16FA85F5CDE906870B960C9572
:107E64000FD1236913B97846FEF736FD23690993C8
:107E7400102305A8ADF8283003F02FFE0EB0BDE89E
:107E8400F0810023F5E72DE9F04F824689B00D46D5
:107E940009B100220A600AF10C039AF850400193D8
:107EA40001274FF0000B9AF80900A04203D20020EA
:107EB40009B0BDE8F08FDAF84C1007FA04F20A4270
:107EC40064D19AF81720019B8AF80840002A0CBF55
:107ED4000C26082684429AF80020029306FB04F933
:107EE40008BFBAF84A608DF818B008BFA6EB0906B7
:107EF400002A14BF4FF004084FF0010806EB0802F3
:107F04000492DAF82820039202A8DAF82C200592C9
:107F140003F085FF0028CBD1079A904454B99AF80E
:107F240053203AB9DAF818208AF85370C2F30C02D5
:107F3400AAF806209AF817209AB99AF8522082B91A
:107F440014B17846FEF7C8FCBAF84A109AF8022031
:107F54008A1ADAF86C1053460846FFF751FF8AF87C
:107F6400527007995046FFF794FEDAF86C103246C7
:107F74004944404619F06BF902A803F071FF15B1AA
:107F84002A6801322A60621C8AF850200134E4B263
:107F940089E710B50446808A02F0A2FA01281CD1B0
:107FA400237BD3B194F91620002A18DBE27D5AB161
:107FB400022B12D094F90330002B10DBA378002B92
:107FC4000CBF0020072010BDE2780AB9012B06D1AE
:107FD400237833B9A378042BF2E71020F3E70720C2
:107FE400F1E70020EFE70000B2F5C07F2DE9F84F7C
:107FF40083468A46904602D97846FEF76DFC284BA4
:108004000027994693F848605EB9404607F0FDFAA8
:10801400702404FB0794E06648B900242046BDE8B8
:10802400F88F0137322F03F17003EBD1F5E7DC460B
:10803400BCE80F0025460FC5BCE80F000FC59CE83F
:108044000F00BAF1010F85E80F00E664A4F84A8036
:108054001BD1144BA4F852601B7D84F8513084F872
:108064005060DBF8283063656FF00103A3620E4BA8
:10807400A4F85860A3632464012001F0AFFF7023C7
:1080840003FB079787F848A0C8E76FF00103A362D2
:10809400064BA36584F86860054B2466EAE700BFD5
:1080A400943600207C360020C9810200298A02000F
:1080B400C181020010B50446C06E07F0A8FA04F1AD
:1080C400300002F03DFE94F84830022B03D104F155
:1080D400500002F035FE20467022002119F0E0F82D
:1080E400BDE81040002001F079BF10B590F8483089
:1080F400012B8CB0044602D07846FEF7EDFB012339
:108104008DF8043001A8636D029300F079FF2046D6
:10811400FFF7D0FF0CB010BD70B50D4690B004460B
:1081240010B97846FEF7D8FB94F84830022B06D1F4
:1081340063789A072ED400212046FFF735FE2C22BF
:10814400002105A8666D19F0ABF8102305A88DF879
:10815400143006968DF81C5000F052FF2046FFF7AD
:10816400A9FF114B1B685B0712D5104B1B68032B2F
:108174000EDD0F4B0F49D3F80435029594F84820CF
:1081840001920D4A0092042040F22F2204F01CFCBC
:1081940010B070BDE188A08A002216F08BFA94F822
:1081A4004830022BCBD1C6E7802E00207C2E002045
:1081B400001001408C1B0400981B04000846002199
:1081C400FFF7AABF10B591F84830012B0C4602D036
:1081D4007846FEF781FB94F851305BB1013B84F89B
:1081E4005130002384F85030084BBDE81040186823
:1081F40003F02CBB217B0129204603D1BDE81040AC
:10820400FFF78ABFBDE81040FFF76FBFF0350020CD
:108214001FB500230A468DF80F30E0B10230086024
:108224000DF10F01104603F05AFC9DF80F3093B185
:108234000B4B1B685B070ED50A4B1B68032B0ADD2F
:10824400094B0A4AD3F8043509490092042040F244
:10825400394204F0B9FB9DF80F0005B05DF804FB4A
:10826400802E00207C2E002000100140BB1B040047
:108274008C1B040070B5D0E906128CB00446808AC9
:1082840005F008FB0546A0B12C22002101A8A68A0E
:10829400E46919F005F80F238DF804304FF000035A
:1082A40064F3000301A8ADF808608DF80A3000F00B
:1082B400A7FE28460CB070BD2DE9F04F9846137800
:1082C400D2F818A0F3B006460D46144623B1D1885F
:1082D4005046FFF7D5FC9061E378A278002BA2F119
:1082E400080014BF012102210DF10C09424204F1DE
:1082F4000C074B464241384603F0F3FBA3788DF854
:108304003C30ADB2E81A80B2CDE90896E378C4F8FF
:1083140018A006440E964FF0000A12AEADF82800DD
:108324000D96ADF830A0002B5BD04FF0100B04F18C
:108334002409237BC4F824A0022B02BF2369ADF8CF
:1083440030B00B93206A21794A460CF00BFB606A2B
:10835400E0B9237B022B05D1E08939460CF0C0FB40
:108364000028E6D12E4B1B685B0737D52D4B1B68C5
:10837400052B33DD2C4B2D4AD3F804352C490092C0
:1083840006204FF4E36204F01FFB27E007A9FFF780
:108394003FFF0028D6D02046FFF76CFFF0B9A17844
:1083A4008DF81C006D1A0B9097E80300A38AADF8B2
:1083B4002A3001220CAB0896ADF824508DF8282001
:1083C40083E80300A37D8DF84030236A0E9307A849
:1083D400636A0F93CDF8448000F012FE73B0BDE8D9
:1083E400F08F227B012ABDD1A146E089B4F814A004
:1083F40049F8243F49460CF0F7FA606A07A9FFF7E9
:1084040007FF0028C7D16062494650460CF0ECFAD9
:10841400606A07A9FFF7FCFE0028A3D0BBE700BFF2
:10842400802E00207C2E002000100140CE1B040072
:108434008C1B040038B590F84830012B044602D058
:108444007846FEF749FA02F0BBFC237B074A012B6E
:1084540005BFD2E90335A17DD16805FB0131014493
:1084640004F13000BDE8384002F081BC7C360020C5
:10847400F0B5C37D15468278002B2A4414BF4FF40F
:1084840080734FF4C0739342C7B00E4658D3012192
:10849400FFF7AAFD0446002854D02A463146C06E90
:1084A40018F0D5FE002304A920460493FFF7EBFC43
:1084B40030F0040506463ED1049B13B12046FFF775
:1084C400B9FF224B1B6813F004033DD0204B1B68FB
:1084D400032B1EDDB4F84A001E4B802805AA1F6832
:1084E40028BF802000231646834202F1020213D1E2
:1084F400002206F81320184B184AD3F804350192C9
:10850400174A00921749029640F27752042004F069
:108514005BFA284647B0F0BDE16EC95C4FEA111C16
:1085240001F00F0117F80CC002F802CC795C02F8D4
:10853400011C0133D8E72046FFF7BCFD3546E8E7C8
:108544000925E6E70425E4E71D46E2E7802E00203E
:108554007C2E0020842E002000100140F71B040014
:108564007D1604008C1B04002DE9F04192F801C033
:108574001CF0010F8EB005460E4614461F4662D00D
:1085840092F817C0BCF1000F00F0B2801046FFF75C
:1085940071FE002857D194F80380B8F1000F40F021
:1085A4008780062E4FD12F786B78544AB90101F495
:1085B400FE5141EA9301134692F84860012E2AD1F4
:1085C400B2F814C0E689B44525D1D6888E4222D1AA
:1085D400B2F858C0A68ABCF1000F01D0B4451AD134
:1085E40017F0800FD5F802104FF070022ED002FB66
:1085F4000032A2F85860702404FB003409BAE56C18
:108604000D43E56400293CD1032120460EB0BDE8AA
:10861400F041FFF781BD0130322802F17002CBD165
:10862400374B1B685B070ED5364B1B68012B0ADDE5
:10863400354B364AD3F8043535490092022040F2CE
:108644008E6204F0C1F90EB0BDE8F08102FB003285
:10865400D289B242CFD02A4B1B685907F3D5294B94
:108664001B68012BEFDD284B2949D3F80435CDE9EC
:108674000126284A0092022040F2926204F0A4F9F2
:10868400E1E72046FFF782FB854205D120460EB084
:10869400BDE8F041FFF729BD002184F850102046C1
:1086A400FFF7F1FB20460EB0BDE8F041FFF7C2BE74
:1086B4004046FFF723FB02460028C4D0D4E9030157
:1086C400236A0B93A38AADF8223009AB83E8030035
:1086D400A37D8DF8303023788DF82030E36A8DF84F
:1086E4001480CDE906560D93394605A89047AAE7AC
:1086F4000EB0BDE8F041FFF7DFBD00BF94360020A7
:10870400802E00207C2E002000100140051C040057
:108714008C1B0400331C0400F0B589B004460E46DB
:108724000192FFF736FC0546002832D12378019ADE
:1087340033B13146204609B0BDE8F040FFF798BE9A
:10874400E17DA37801920029134414BF0B210F216A
:108754008B4227D80133049304F10C030293A36AD8
:1087640003938DF81800E36A059302A803F057FBFE
:10877400054670B907992046FFF78BFAE37D019A05
:108784004F1C4BB13146384618F061FD02A803F086
:1087940067FB284609B0F0BD234639463046FFF74B
:1087A4002FFBF3E70925F4E710B54FF4AF5200218E
:1087B400134818F075FD002405F0D8F8114B124841
:1087C4001C602146802218F06BFD104B1049114AA1
:1087D40011489C75C3E9001210494CF25032C3E9A8
:1087E40002211A6140F604029A8203F011F80C4B3C
:1087F40018600C4B0C481C60BDE8104005F094B99F
:108804009436002078360020F83500207C3600208D
:1088140080969800F04902002D8F020020A10700E5
:10882400F0350020DC350020417D020005F02AB837
:1088340030B504468DB0002867D00369002B64D09E
:10884400C369002B61D08569002D5ED05A788DF8FC
:1088540004201A780993838A82F001020B2B8DF885
:108864000320027B09D90121022A8DF8001001D1CD
:10887400274A927D5AB904220AE0C17A0029F2D12A
:10888400012A0CBF012200228DF8002039D10822D0
:1088940013448DF802200B330C22B3FBF2F3013B9B
:1088A4008DF8093000238DF8083094E80300002384
:1088B4008DF8173003AB83E803002389ADF8143037
:1088C400A37A8DF81630236A0A932046DF2308958D
:1088D4000B930CF0A1FA28B12378012B14BFFF23CA
:1088E40020230B93684615F0ADFE18B10B9B43F0A3
:1088F40020030B93A28A21696846FFF70DFF0DB090
:1089040030BD04238DF80230CFE70E20F7E700BF17
:108914007C360020F0B503468DB00C46002834D0D8
:10892400456895B3866986B302788DF803200022E2
:10893400099282680B2A94BF017B012101F0010096
:1089440000278DF800008DF8027031B1D01DC008E9
:1089540001388DF809008DF8087001218DF8171081
:10896400D3E9040103AF87E80300D989ADF81410F3
:10897400197F1B6A8DF8161068462946CDE90A430B
:108984000896FFF7C9FE0DB0F0BD0E20FBE700000E
:1089940030B5047B012C8DB04FF000033ED1C2886A
:1089A4008DF8051095008DF801500D0E8DF80250CC
:1089B4000D0C8DF803500D0A41788DF804508D1E6E
:1089C40069426941C2F3861242EAC112CDF8063007
:1089D4008DF80A3008938DF80C308DF81830C3895F
:1089E4008DF80020ADF81A300622C36A05920B9365
:1089F400828A837DADF81E20026A8DF81C40CDF872
:108A040010D009920BB1064B5B7D8DF828306FF0C6
:108A1400010103A8FFF77EFF0DB030BD1846FBE748
:108A24007C36002010B591F84830022B0C4602D059
:108A34007846FDF751FF022384F8683094F84830F3
:108A4400022B06D1E16C2046FFF7A2FF08B984F897
:108A5400680010BD2DE9F04F0F46A1B014469846AA
:108A64000546002800F09681002A00F0938121B980
:108A74000926304621B0BDE8F08F13460BAE02F153
:108A8400180C18685968324603C208336345164601
:108A9400F7D1002395F900108DF821302B780029A7
:108AA4004FEAD3128DF8202024DA032FE0D90422D0
:108AB4009DF8370000B303F07F038DF823300023C3
:108AC40099428DF8223030DA6A78AB78920102F458
:108AD400FE5242EA9302ADF82620DB00EA7803F066
:108AE400180343EA521302F01F028DF828308DF860
:108AF40029201AE00122DBE7C3F38010002903F0E8
:108B04003F038DF823008DF8243008DA95F90130FD
:108B1400002BB4BF082304238DF82230D4E70423A8
:108B24001A4497428DF82230A2D30023119398F867
:108B34000030032B02D97846FDF7CEFE98F80020CA
:108B4400954B08A853F822301393FFF722FA0646F0
:108B540000288ED1D4E90312208904F0D3FE002822
:108B640087D108A815F06EFD28B19DF8213043F097
:108B740002038DF821300023608806A9CDE906336D
:108B84000BF0AEFF38B19DF8213043F001038DF8AE
:108B94002130079B0C939DF82130002B3FF469AFE3
:108BA4009DF82020002A00F0E6807C4B0393994630
:108BB40032229A4699F84830022B3CD0013A09F106
:108BC4007009F7D19DF8203013B97846FDF784FE7B
:108BD40008A8FFF7C9F8724BBDF834E04FF000095C
:108BE4009C461A8872453CD1D3E90242914208BF9F
:108BF400A04236D108AD0FCD14AC0FC40FCD0FC4B5
:108C040095E80F000CEB091984E80F0099F802307D
:108C14008DF851306BB114A8FFF7B8F8014614A8C9
:108C2400FFF7B6FE99F80230DE0702D508A8FFF771
:108C340021FB00261DE7B9F81410BDF83430994221
:108C4400BCD108A80592FFF78FF8049048468B46DC
:108C5400FFF78AF8049B059A83427BEB0103ADD2AC
:108C640007E709F10109B9F1080F03F11003B8D1BD
:108C74000020039B93F84830022B18D1039B9B8A56
:108C8400734514D1702404FB00A408A8FFF76CF802
:108C9400834620468A46FFF767F8584571EB0A0376
:108CA40080F08A8005212046FFF736FA05E0039B11
:108CB4000130703332280393DBD19DF837209DF8BF
:108CC4002930002A14BF08240C2403FB044414BFD5
:108CD4004FF480734FF4C0739C4216D9314B1B6818
:108CE4005D077FF5C6AE304B1B68002B7FF7C1AE26
:108CF4002E4B2F4AD3F804352E49009201944FF499
:108D04006572012003F060FE93E7BDF826100E980B
:108D1400FEF7B6FF0F9A0146BDF8340004F0F2FDE9
:108D240000287FF4A6AE2246022108A8FFF75CF9CA
:108D34000446002840D1014608A8FFF729FE2C224A
:108D4400214614A818F0ACFA10238DF8503014A85A
:108D540002238DF8583000F053F96AE7002B08BF5E
:108D64004FF00C09CB4500F08D800421204603927E
:108D7400FFF7D2F95DE79A0705D5012308AAF9B2EE
:108D8400284615F0C9FB434608AA791E681CFFF75C
:108D9400EBFB6EE60E266CE6981C0400943600206D
:108DA400F8350020802E00207C2E00200010014089
:108DB400741C04008C1B0400554B1B685B0711D505
:108DC400544B1B68032B0DDD534B9DF82820D3F81F
:108DD40004350192514A0092514940F2C6320420AE
:108DE40003F0F2FD94F84830022B02D07846FDF7E8
:108DF40073FDDFF830B1DBF800A001F0E1FF0AEB0E
:108E0400000104F1300001F0B2FF237B012B1AD1E1
:108E140094F86830BBB994F84830022B02D07846F5
:108E2400FDF75AFDDBE901139BF815A003FB0A1AB1
:108E340001F0C6FF00EB0A0104F1500001F097FFB6
:108E4400012384F868309DF82800E36C01218140F7
:108E540013EA01027FF40DAE0B43E3649DF837304F
:108E6400617A002B14BF4FF0080A4FF00C0A8142BC
:108E7400A7F1040B0AFB00FA7FF470AF0AEB0B03B3
:108E8400A4F84A30A2690E9B9A420BD20DF12C0E23
:108E9400BEE80F0004F10C0CACE80F009EE80300E0
:108EA4008CE80300E06E5A46291D504418F0CFF9AF
:108EB4009DF82130980705D5012308AAF9B2284660
:108EC40015F02AFB2046E56CFEF760FF85427FF42F
:108ED400D0ADE16C2046FFF75BFD9DF8213099078A
:108EE40006D5BDF82610BDF83400012215F0E2FBCA
:108EF400B4F84A10E06E43462246FFF735FB20469D
:108F04000121FEF751FF2046FFF7D4F891E600BF98
:108F1400802E00207C2E002000100140881C0400BC
:108F24008C1B04007C360020F7B5184C002625461F
:108F3400374695F84830012B0BD101A928460197F3
:108F4400FEF7A1FF042801D0019B13B12846FFF7C7
:108F540071FA0136322E05F17005EAD1002594F834
:108F64004830022B0AD194F86830022B06D1E16C08
:108F74002046FFF70DFD08B984F868000135322D4D
:108F840004F17004EBD1012003B0F0BD943600204D
:108F94002DE9F8430F46054638B3DFF86080D8F86A
:108FA4000060012E1FD8002400F10409BC420BD13B
:108FB400114B43F8365003EBC60301365C60C8F826
:108FC40000600020BDE8F88359F834306BB115F91E
:108FD400343015F83400002B09DB50B1FEF78EFE57
:108FE40038B90134E2E70420ECE70E20EAE70B206D
:108FF400E8E70F20E6E700BFE0350020DC3500207D
:10900400F8B5054610B97846FDF766FC0F4F3C6885
:1090140094B10F4E0123337023791BB954F8043CE7
:10902400284698472468002CF6D13378022B03D1C4
:109034003968064C09B93170F8BD0B790D6813B164
:10904400204603F048FC2946F4E700BF784C002092
:10905400744C002010B5044610B97846FDF73CFC6A
:1090640000232372211D0248BDE8104003F012BC06
:10907400784C002010B5044610B97846FDF72CFC56
:10908400074A1378013B012B04D8022313700123F0
:10909400237210BD211D0348BDE8104003F01BBC22
:1090A400744C0020784C00200B888268D25A073216
:1090B40022F00302134402889BB2043A934288BF0D
:1090C40000230B80704713B58368C91AADF80610E6
:1090D4000DF10601FFF7E8FFBDF80630806818447B
:1090E40002B010BD70B5064615460C4611B9784657
:1090F400FDF7F2FB16B97846FDF7EEFBB4F1005F1D
:1091040024D94FF08053D3F80C3103F50023B4EB8A
:10911400832F1ED26B1E2344B3F1005F26D94FF078
:109124008052D2F80C2102F50022B3EB822F20D218
:10913400042D02D87846FDF7CFFB002335807380D9
:10914400B380B460043DA370258070BDB4F5000FF6
:1091540008D94FF08053D3F80C3103F50053B4EB26
:10916400832FD7D37846FDF7B7FBD3E7B3F5000FCA
:1091740008D94FF08052D2F80C2102F50052B3EB1B
:10918400822FD5D37846FDF7A7FBD1E738B504463F
:1091940010B97846FDF7A0FB6288A36813449B7856
:1091A400012B02D17846FDF797FBEFF3108572B6D9
:1091B400A268A18811448B78032B0AD12046FFF7BB
:1091C40082FFA368C31A63800023837005B962B663
:1091D40038BD002393706380A380F7E7F8B50E468B
:1091E4001546044610B97846FDF776FB16B978465D
:1091F400FDF772FB6288A36813449B78012B02D1AC
:109204007846FDF769FB002D37D02388043B9BB2D9
:109214009D4232D8EFF3108772B66288A388E81DA6
:1092240020F003009A4280B204D29B1A984210DDC7
:10923400042016E018D92188891A814209D298425B
:10924400F6D8032981BFA3689B1804229A700023CF
:1092540063806288A1688B188D5201229A70002065
:10926400336007B962B6F8BDA26813449B78002B3B
:10927400DED193706380A380EBE70920F3E7F8B5B0
:109284000D461646044610B97846FDF725FB15B978
:109294007846FDF721FBAB78012B02D07846FDF729
:1092A4001BFB2B88B34202D27846FDF715FB16B997
:1092B4007846FDF711FBEFF3108772B60223AB700B
:1092C400E1182E802046FFF7EFFE6288A3889342C0
:1092D4001FBFA3689B1800229A7007B962B6F8BD35
:1092E40070B50D46044610B97846FDF7F5FA15B980
:1092F4007846FDF7F1FAEFF3108672B6A288A368F8
:1093040013449A78042A06D1211D2046FFF7CCFE87
:10931400A288A36813449A78022A05D0032A08D0A5
:10932400052006B962B670BD03229A702B60002036
:10933400F7E77846FDF7D0FAF9E738B5044610B9EF
:109344007846FDF7C9FAEFF3108572B6A088A168D4
:1093540001448B78042B03D12046FFF7B4FE014669
:109364008878831E5842584105B962B638BD38B56D
:10937400044610B97846FDF7AFFAEFF3108572B6DC
:10938400A088A16801448878C31E012B05D9831ED7
:109394005842584105B962B638BD2046FFF793FEDE
:1093A4000146F0E7F8B50D46044610B97846FDF7D6
:1093B40093FA15B97846FDF78FFAEFF3108672B673
:1093C400AB78012B19D0032B22D1A288A3681344B4
:1093D4009D4202D07846FDF77FFA0027AF70211D29
:1093E4002046FFF761FEA288A36813449B78042BF0
:1093F40000D1A78006B962B6F8BD6288A368134499
:109404009D4202D07846FDF767FA0023AB70F1E77E
:109414007846FDF761FAEDE710B5EFF3108472B604
:109424008288816811448B78042B02D1FFF74BFEAC
:1094340001468878B0FA80F0400904B962B610BDDC
:10944400037942799B1A03F57F2303F6FF7300EB3C
:109454000330704710B5054884681C22002117F0BA
:109464001FFF2046BDE8104004F03CB87C4C0020AF
:1094740070B5194CE36813B97846FDF72DFA237ECD
:1094840013B17846FDF728FA6368092B02D97846A8
:10949400FDF722FA114D0026636855F823309847EA
:1094A400022811D003280DD0012810D1636801339C
:1094B400092B636002D97846FDF70EFA237E002B50
:1094C400EAD004E06660F9E7237E0BB1207070BD3A
:1094D400BDE87040FFF7BEBF7C4C0020A81C040010
:1094E400038810B5044613B97846FDF7F5F92088CA
:1094F400084B04EB800030EA030203D06288B2F523
:10950400FE4F05D104EA030000F5805003781844A7
:1095140010BD00BF00F0FFFF70B504460D4647F6CE
:10952400FE66FFF7DDFFA84207D2844205D24388D6
:10953400013B9BB2B342F4D870BD0020FCE70000AD
:109544000A78094B032A04BF0021197619780129E6
:1095540003D11B7E3BB9FFF78BBF022903D1032A3A
:1095640001D1FFF777BF70477C4C002010B50C4C3D
:10957400E3681878002203F58051184404F098FA3F
:1095840050B9E1680846FFF75BFF814206D001F558
:109594008051E160032010BD0120FCE70220FAE7BE
:1095A4007C4C00201FB50A4B0222DB688DF800209A
:1095B4000193084A4FF4805369460120029300F056
:1095C400D9FEB0FA80F0400905B05DF804FB00BF95
:1095D4007C4C0020984C00201FB50123CDE90221CA
:1095E4000190054A8DF800306946184600F0C2FE25
:1095F40005B05DF804FB00BF984C00202DE9F0474E
:10960400254EF06803794279013B9A4203D1012047
:109614007076BDE8F08700F58053DFF880801C7811
:109624001C44D8F8003013F8045F1D44FFF708FF0A
:109634006388013B9BB247F6FE62934200F5805774
:1096440004D920463946FFF767FF0446DFF850A0E7
:109654004FF001092CB9B4FA84F46409747601203A
:10966400D7E7D8F800106288284601F5805104F045
:109674001FFA05460028EED004225146204686F8FB
:109684001890FFF7A9FF28B920463946FFF744FF91
:109694000446DFE70020BCE77C4C00209C4C002003
:1096A4003C1F040038B5104CE36818784FF6FF727D
:1096B40003F58051184404F0FBF988B1E368197884
:1096C4000B4498420CD0657E0849094B0422002DB6
:1096D40008BF1946FFF780FF20B90120207638BD66
:1096E4000120FCE70020FAE77C4C0020441F040022
:1096F400401F040070B50C4D0C4EE96830680C78BE
:1097040004302246FFF768FF58B93268EB6804F06A
:10971400FC04043414441A786C6113442B61012052
:1097240070BD0020FCE700BF7C4C00209C4C002056
:1097340008B5054B054918680422FFF74DFFB0FA38
:1097440080F0400908BD00BF9C4C0020884C0020DC
:10975400074B10B51968074C40F6FC72E0680431F9
:10976400FFF73AFF10B90120207610BD0020FCE776
:109774009C4C00207C4C002010B50C4CE168084641
:10978400FFF75EFE81420AD1094B0A491868042298
:10979400FFF722FF40B901232376022010BD01F513
:1097A4008051E1600320F9E70020F7E77C4C0020BA
:1097B4009C4C0020A04C00202DE9F74F324D2B6922
:1097C40013B97846FDF788F86B6913B97846FDF745
:1097D40083F8DFF8B89047F6FE6A6B69D5E90306AB
:1097E40003EA0908A8EB0308FFF72AFE7388013B84
:1097F4009BB2534508F5805800F5805B06D9304686
:109804005946FFF789FE0646002835D0344600271E
:109814005C4519D2228807EB8202904509D986EA71
:10982400040313EA090F04D16388013B9BB2534537
:1098340002D957B9012318E020460192FFF750FEE0
:10984400019A04461746E3E7E7B168693A463146A8
:10985400FFF7C2FE90B96B693B446B6114B978465B
:10986400FDF73AF82C61002334B1618847F6FF72A2
:10987400914201D0002BB0D0012000E0002003B0C1
:10988400BDE8F08F0123EFE77C4C002000F0FFFFE0
:109894001FB50A4B02221B688DF800200193084A69
:1098A4004FF4805369460120029300F063FDB0FA3F
:1098B40080F0400905B05DF804FB00BF9C4C00201B
:1098C400984C00204FF0102310B55A6901321ED075
:1098D4005A69E2B15B69A3F58053A3F58053164A34
:1098E400196813604B1E033324D8C1F30B030BBB5D
:1098F400124A1348D16001211170124913839360F5
:1099040001330A2B09D17846FCF7E6FF0AE04FF051
:109914008052536912695343DFE751F8234084426C
:10992400EED153600120084900F014FDFFF7A0FDBB
:10993400012010BD0020FCE79C4C00207C4C002042
:10994400A9950200A81C04004595020010B5044620
:1099540010B97846FCF7C0FF094A107860B1E06896
:10996400D1684379A0EB0333994206D3FFF768FD2E
:1099740081428CBF0020012010BD0020FCE700BF05
:109984007C4C0020024B1878003818BF0120704727
:109994007C4C002038B50E4C2378054613B178462C
:1099A400FCF79AFF2B78032B02D07846FCF794FF40
:1099B400EB68E360012000230649A5606360207022
:1099C400238300F0C7FCBDE83840FFF751BD00BF5A
:1099D4007C4C002045950200014B1868704700BF7D
:1099E4009C4C002010B5044610B97846FCF774FF6F
:1099F40063681BB123680BB1A36813B97846FCF7FD
:109A04006BFFA3685A1E1A4202D07846FCF764FF23
:109A14000023C4E9033310BD70B50E460446F0B10B
:109A24008368F3B1EFF3108572B6D0E9033199423C
:109A340003D105B962B605250FE04EB18368013B39
:109A44000B40D0E90012304602FB031117F0FFFB74
:109A540023690133236135B962B6284670BD0E25EA
:109A6400FBE70925F9E70025F7E70000024AD2F8E9
:109A74000034002BFBD0704700E0014038B5C0F340
:109A84000B04ECB9F1B1104D0223C5F8043501F60D
:109A9400FF7121F47F61FFF7E9FF21F00F01014419
:109AA400884206D10023C5F80435FFF7DFFF2046BE
:109AB40038BDC5F80805FFF7D9FF00F58050EFE77A
:109AC4001024F4E70924F2E700E0014040EA01032E
:109AD40070B5064698071ED1FAB112F003001CD1E6
:109AE4000F4B94080122C3F80425FFF7BFFF054676
:109AF400A54206D10A4B0022C3F80425FFF7B6FF9E
:109B040070BD51F825305A1C03D046F82530FFF7B4
:109B1400ADFF0135ECE71020F2E70920F0E700BFC4
:109B240000E001404388012B05D0022B01D1043011
:109B340008600120704704304860FAE708B50A4815
:109B44000822022103F014FB20B9BDE808400748AD
:109B540003F0A0BC064A91684160127B0272BDE822
:109B6400084003F033BB00BFAC4C0020602E002043
:109B7400F84C002010B5044610B97846FCF7ACFE4A
:109B84002346BDE81040184700B50A4B1A7B9B6872
:109B94008DB0012A08BF03F1FF330493039002231D
:109BA40001A88DF808208DF80430FFF729FA0DB0CC
:109BB4005DF804FBF84C002038B50E4D2B78C3B982
:109BC4000D4B5C6804F50054B4F1807F11D80B4848
:109BD4000422012103F0CCFA20B9BDE8384008483A
:109BE40003F058BC012344602B70BDE8384003F0F7
:109BF400EDBA38BD0C4D0020F84C0020AC4C0020D0
:109C0400502E002010B50D48012103F0F5FA80B95B
:109C14000A48022103F0F0FA044650B9014614221E
:109C2400074817F03DFB074B1C70BDE81040FFF7D9
:109C3400C3BF054803F02EFCF7E700BFAC4C00207F
:109C4400F84C0020D04C0020402E002030B50C46AB
:109C54008DB07AB94B88012B0AD1124D2B7813B9E8
:109C64007846FCF739FE104B62685A6000232B706B
:109C74000DB030BD032A02D07846FCF72DFE2C220D
:109C8400002101A817F00CFB11238DF80430074BB9
:109C94000394DA681B69059201A80693FFF7B0F9EB
:109CA400E6E700BF0C4D0020F84C0020AC4C00202F
:109CB40013B501F03DFD00216B46124A1248134CC6
:109CC400CDE9001103F0A0F9009B0BB1019A6AB928
:109CD40000232360A3602373FFF730FF23686360CE
:109CE400FFF76AFF01F064FD02B010BD1968A160BE
:109CF40019792173934202D909B92160EEE71368F7
:109D04002360EBE7299B0200AC4C0020F84C0020B8
:109D140008B503F00DFCA0F5805008BD7FB5002107
:109D24001822684617F0BCFAFFF7F2FF01230090EF
:109D340001930648064B0393694603F085FA10B174
:109D4400044803F0A7FB07B05DF804FBAC4C00200B
:109D5400519C0200302E002008B5142200210A482C
:109D640017F09EFA01F02CF8084B094A09499A6049
:109D74000022C3E9031258605A61074B1A70BDE808
:109D84000840FFF7CBBF00BFF84C0020D44C0020A4
:109D9400899E0200008793030D4D002010B5074CE7
:109DA40023784BB90648074B036000F045FD06488D
:109DB40000F0A4FF0123237010BD00BFA84C0020B5
:109DC400EC4C0020599F0200D44C002010B501F047
:109DD400AFFC0F4B1A7BCAB99A7BBAB9198A41F204
:109DE4008262914202D80B4A12787AB101221A7324
:109DF4009A68002401321C829A60FFF79FFE204675
:109E0400FFF7C2FE01F0D4FC204610BD0824F9E798
:109E1400F84C00200D4D002010B501F089FC174BC3
:109E24005C7BBCB19A7B22BB198A41F2826291426B
:109E340002D8134A1278F2B11A7B002058732AB15F
:109E4400012A0BD07846FCF747FD03E0FFF7BEFF7D
:109E54000028F7D101F0ACFC204610BDC3E9000096
:109E640018731882FFF790FEFFF768FEFFF7A4FE51
:109E7400F0E70024EEE71446ECE700BFF84C0020BE
:109E84000D4D002010B5174C237B2BB1012B12D0A4
:109E94007846FCF721FD1EE0228A41F282639A4251
:109EA40002D8114B1B78B3B1FFF7B6FF638A0BB12D
:109EB400013B638210BD228A41F282618A4206D943
:109EC40042F2B0118A420AD8FFF7A6FF03E0064B1C
:109ED4001B78002BF8D1238A01332382E6E76373CE
:109EE400E2E700BFF84C00200D4D002038B5164CB9
:109EF400D4E900239A4205461FD2207B134B144910
:109F0400012808BF0B469A4207D263682268403B87
:109F14009A4208D3FFF750FE05E001236373FFF76D
:109F24007BFF0028F1D0EFF3108072B623685A1C2F
:109F340022602B6028B962B638BDFFF73DFE0F20C2
:109F4400FAE70020F8E700BFF84C0020FFFF7F008D
:109F540000E0FF0010B50378042B0ED143681B7892
:109F64005BB11C4B4269197B047E69BB598AF9B900
:109F7400012C996802D08A4203D810BD4C1CA2421D
:109F840018D92A318A42F8D8997B0029F5D18468F6
:109F94009A60114A1A619981C3E90011FFF7CEFD55
:109FA400FFF70AFE04F11000BDE81040FFF7ECBD16
:109FB400012CE2D1996801318A42DED10122BDE847
:109FC40010405A73FFF728BF0129D6D1012CD4D0F1
:109FD4009968F1E7F84C00200000062D10B50C4CF0
:109FE400236828B101210B4A0B449173236010BDEF
:109FF40013B97846FCF770FC2368013B2360002BFF
:10A00400F5D1044ABDE810409373FFF705BF00BFC4
:10A01400A44C0020F84C002000B58DB00323ADF80B
:10A02400080001A88DF8102003918DF80430FEF784
:10A03400E7FF0DB05DF804FB014B9868704700BF63
:10A04400F84C0020034B98681B7B012B08BF00F1E0
:10A05400FF307047F84C0020044B9B685840C207FF
:10A0640048BF03F1FF331846704700BFF84C002087
:10A07400014B187B704700BFF84C002038B50A4BE1
:10A084001C787CB9094D01221A702973A860FFF766
:10A0940055FD2046FFF778FDC5E90044FFF78CFD28
:10A0A400204638BD0820FCE7D04C0020F84C0020A6
:10A0B4002DE9F3411D4CDFF878800025022120466C
:10A0C40002F057FAEFB201460026B9B96EB1204644
:10A0D400019102F0B5FA0828019906D154F8043C1C
:10A0E4001BB10A463846414698470135032D04F111
:10A0F400BC04E3D1012002B0BDE8F08154F8043C73
:10A104001BB134F80C2C3846984734F80C3C022127
:10A114000133204624F80C3C02F047FA0221204681
:10A1240002F027FA01360146CFE700BF244D002094
:10A13400D01C040038B5012104460C3002F019FA91
:10A14400054628B3164BC4F89C300023C4F8A0304D
:10A1540003786168012B07D0022B1BD07846FCF7EB
:10A16400BBFB4FF4FA7307E08268531A9B084FF461
:10A17400A972534303F5FA730A4A934294BFC4F88D
:10A18400A830C4F8A8200123C4F8AC4084F8B8303F
:10A19400284638BD8368044A5B1A1B0BE9E700BFF5
:10A1A400D1A1020060850100645E010010B504467F
:10A1B400FFF7C0FF48B104F19C000BF0DDFA20B1B9
:10A1C4007846BDE81040FCF787BB10BD4A4B1B78AE
:10A1D4002DE9F74F07460C463BB10BF003FB002378
:10A1E40084F8B83003B0BDE8F08F01F10C09D1F860
:10A1F400A8504846012102F0BCF9064610B9784639
:10A20400FCF76AFBDFF8F8A0A5F5FA784FF4A97B10
:10A2140000253378012BA8EB050506D0022B3BD093
:10A224007846FCF759FB00231FE06368B268B5FB6E
:10A23400FBF5D21AAD00954228BF154625B9019306
:10A244007846FCF749FB019BF168706823F003032F
:10A254002A4619441844FFF739FC10B17846FCF734
:10A264003BFB63681D446560B36862689A422AD107
:10A274000BF0B8FA4846012102F097F90023636015
:10A2840084F8B8301D4B186801F0E0FA204603B09A
:10A29400BDE8F04FFFF78ABF6368B268B5FBFAF513
:10A2A400D21A2D03954228BF154625B90193784645
:10A2B400FCF712FB019B706823F003032946184442
:10A2C400FFF7DCFBC9E701F025F93378C51B48BF6C
:10A2D4003D1A012B0BD0022B0CD07846FCF7FCFA6C
:10A2E40000232B44434594D90BF07CFACEE74FF47A
:10A2F400A973F6E75346F4E7144D0020104D0020EF
:10A30400645E01002DE9F0410F48104C01F080FA21
:10A314000F4B002518604FF008081027032604F19E
:10A324001C03636104F10C0004F11803013584F883
:10A334000E8067732673236102F05EF9032D04F126
:10A34400BC04ECD1BDE8F081B5A00200184D00209A
:10A35400104D0020022838B504460D4602D978462F
:10A36400FCF7BAFA0248BC2303FB0404A56038BD19
:10A37400184D002002282DE9F84F05460C46924658
:10A3840002D97846FCF7A8FA14B97846FCF7A4FA7F
:10A394002378012B12D16368990702D07846FCF721
:10A3A4009BFAE3689A0702D07846FCF795FAA3680B
:10A3B4009B0711D07846FCF78FFA0DE0022B0DD1E4
:10A3C4006368C3F30B0313B17846FCF785FAA368FB
:10A3D400C3F30B03002BEDD1A36813B97846FCF744
:10A3E4007BFAEFF3108772B6BC26DFF894906E43C5
:10A3F40006F10C0BCB440021584602F0BAF8804613
:10A4040038B30021584602F0D0F804F1100354F890
:10A41400042B48F8042B9C42F9D1BAF1000F05D063
:10A42400BC2303FB05935B88AAF80030BC2000FB27
:10A4340005956B8895F8B84001336B80E4B90F4BF0
:10A444001D783DB909EB0600FFF774FE2FB12C46C9
:10A4540005E004246FB92746002062B63C4640B1AB
:10A4640006F19C0048440BF087F910B17846FCF7DC
:10A4740033FA2046BDE8F88F0024EBE7144D0020A2
:10A48400184D0020F8B5EFF3108772B6114D2B6804
:10A49400E0B913B97846FCF71FFA2C68013C2C602C
:10A4A4005CB90D4E96F8B83013B93046FFF77EFE0E
:10A4B4000134032C06F1BC06F4D12B68074A003B97
:10A4C40018BF0123137007B962B6F8BD01332B60BE
:10A4D400F3E700BF4C4F0020184D0020144D00201E
:10A4E40010B1024B800B185C704700BFE01C0400E5
:10A4F40012DF704713B5137873B1022B14BF002415
:10A50400072410F8013C2A2B24D007D8162B4BD053
:10A51400292B3ED002B010BD547DF2E72B2BF9D18C
:10A52400022CF7D110F8021C0139C9B203F048FA21
:10A534000028EFD0234B1B685B06EBD5224B1B682E
:10A54400012BE7DD214B224AD3F804350092019018
:10A55400A62219E0022C01D0072CDBD110F8021C32
:10A56400013901F0E3FC0028D4D0164B1B685A06CD
:10A57400D0D5154B1B68012BCCDD144B154AD3F8F1
:10A5840004350092019093221349022002F01CFA30
:10A59400C0E7022CBED110F8021C0139C9B202B0C6
:10A5A400BDE810400FF062BC01884FF6E4639942A5
:10A5B400B0D110F8021C0230033902B0BDE81040DB
:10A5C400FCF7E6B8802E00207C2E0020001001400D
:10A5D400741D04004B1D0400401D040070B58AB0B6
:10A5E4000BF0C8FD0446002834D000238DF8103049
:10A5F40006460FCE05AD0FC533682B60627D052A74
:10A604000CD9207D00F00F03072B07D004AB063ACA
:10A6140004F11D0100F00F000AF050FC114B1A6800
:10A62400AAB104AB0393237DC3F303038DF8043071
:10A63400637D062B89BF063B00238DF8053004F1AA
:10A644001D0398BF8DF80530029301A8904720465A
:10A654000BF07AFD0BF0A8FD80F00100C0B20AB047
:10A6640070BD00BF544F002000B50A4B1A78032A6E
:10A674008DB00CD104221A7000212C2201A816F0EE
:10A684000FFE1C2301A88DF80430FEF7B9FC0DB0B1
:10A694005DF804FB504F0020F7B5354F3B78054675
:10A6A400002B5BD100285BD0067A0F2E01D0062E3A
:10A6B40058D104F0A9FFE86800284CD0FDF76EFAE1
:10A6C4000DF10700FFF714FF0446002840D19DF860
:10A6D4000730012B48D1FDF78BFA00F0FBFA304626
:10A6E40000F0D8FFE87800F081F900F00FFE0AF0DE
:10A6F400D9FF20480BF0EEFD0AF054FDFFF702FEEF
:10A7040004F0D0F800F0A8FC04F03EFF04F05CFD77
:10A71400284601F06DFBFEF747F803F0B3FCFCF7A5
:10A7240037F808B1062821D113480AF099FB2A20EA
:10A734000AF032FC2B200AF02FFC29200AF02CFC12
:10A7440016200AF029FC0D4B00221A6001233B70ED
:10A75400204603B0F0BDFDF72DFAB1E70824F7E772
:10A764000E24F5E70724F3E70224F1E70446EFE7B4
:10A77400504F0020E1A50200702E0020544F00200D
:10A7840037B51B4D2B78012B04D0033B012B26D965
:10A7940008241FE00BF0BAFC01F03AFBFEF746F880
:10A7A400FBF7F6FF0446C0B1062816D0114B1B6810
:10A7B4005B040FD5104B1B68012B0BDD0F4B104AAC
:10A7C400D3F804350F490190009202204FF4D4725B
:10A7D40002F0FAF8204603B030BD00F087FF0AF01B
:10A7E400BDFF04460028F5D102232B70F2E700BF19
:10A7F400504F0020802E00207C2E002000100140AD
:10A804009F1D0400401D040008B5084B1A78022A55
:10A814000AD1032206481A700AF066FF18B1784676
:10A82400FCF75AF8002008BD0820FCE7504F002030
:10A834006DA60200FDF7FCBFFEF70CBCFEF71ABCC8
:10A8440008B500F033FD002008BD05F0DFBD0000B1
:10A85400044B1A680132B2F1704F08BF01221A602A
:10A8640018687047584F002010B5044610B9784650
:10A87400FCF732F80023C4E9003310BD38B50D46A7
:10A88400044610B97846FCF727F815B97846FCF762
:10A8940023F800236B60EFF3108372B6226822B9A9
:10A8A4002560656003B962B638BD62685560F8E733
:10A8B40010B5044610B97846FCF70EF8EFF3108291
:10A8C40072B6206820B90023636002B962B610BD75
:10A8D40043682360002BF8D1F5E710B5044610B99E
:10A8E4007846FBF7F9FF206810BD38B50C460546DD
:10A8F40010B97846FBF7F0FF14B97846FBF7ECFF84
:10A904002046FFF7EAFF90B12846FFF7E6FF40B97B
:10A9140094E8030085E803002046BDE83840FFF7CB
:10A92400A3BF6B6822685A6063686B60F4E738BD44
:10A93400037A13B100230372704743681B6804331E
:10A94400436070471FB5036802464068191D88427A
:10A9540009D1CDE9013300238DF80C30029B5168F5
:10A964001B6809688BB9D2E900131C6848688442E3
:10A9740005D18B420BBF0021181F5960486019682C
:10A98400496819600123137204E08B4201A803D1C2
:10A99400FFF7D8FF04B010BDFFF7CAFFDEE735DFCD
:10A9A40070473CDF70473DDF7047000010B5044638
:10A9B4004FF0FF30FFF7F3FFFF210020FFF7F3FF15
:10A9C40021460020FFF7EDFFBFF34F8F0549064BEB
:10A9D400CA6802F4E0621343CB60BFF34F8F00BF39
:10A9E400FDE700BF00ED00E00400FA0507289ABF68
:10A9F400024B33F81000FA20704700BFC41D040056
:10AA0400024B5868103840B2704700BF00ED00E0B8
:10AA140000280346B8BF00F11F03084A5B1152F82F
:10AA24002330424202F01F0200F01F0058BF504280
:10AA340023FA00F000F00100704700BF00E100E0DD
:10AA440046DF704730B501F110031032103013F8AF
:10AA5400014D12F8015D8B4284EA050400F8014DB2
:10AA6400F5D130BD2DE9F04F91B002F10F0604ACE1
:10AA74001D4689463611034600F1100CA24618689B
:10AA84005968274603C7083363453C46F7D102F0AB
:10AA94000F04002E59D0B4FA84F84FEA5818102243
:10AAA400002108A816F0FCFBC8F1020B5046FFF782
:10AAB400C7FF5FFA8BFB01220CA89DF9301000231D
:10AAC400074690F800C010F801EF01339BB24FEA3B
:10AAD4004C0C4CEADE1C0F2B00F801CCF1D19DF894
:10AAE4003F305B00DBB20029B8BF83F087038DF8E9
:10AAF4003F30531C9B454FF00202DDD2013E09EB6F
:10AB04000611B8F1000F22D00CAA6846FFF79AFF8D
:10AB1400102200210CA816F0C3FB0024B44229DB48
:10AB24003A46694608A8FFF78DFF5046FFF788FFAD
:10AB340010AA3B4603CB9342286069601F4605F187
:10AB44000805F6D111B0BDE8F08FB046A7E722465C
:10AB5400684616F07CFB10AB23448022601C03F88B
:10AB6400402C4146C4F10F02684416F099FB0CAA2C
:10AB74006946CAE709EB0412394608A8FFF762FFE1
:10AB84005046FFF75DFF0134C8E7000038B5114BAC
:10AB94001A6804462AB11A6840685268821A002A60
:10ABA4000DDA1A6862611C609A88013292B29A8046
:10ABB40012B97846FBF790FE0123237038BD1A685A
:10ABC400154652691AB15168091A0029F8DB626105
:10ABD4006C61E9E7604F00200F4B1A68824210B5A0
:10ABE40004460DD142691A609A8892B2511E89B204
:10ABF400998012B97846FBF76FFE0023237010BDCD
:10AC04001A68002AF9D05169A14202D161695161DF
:10AC1400EAE70A46F5E700BF604F0020014B1868D9
:10AC240000F014BE5C4F0020044B1A6822B11B686C
:10AC34000349586800F04EB900F0A4B9604F0020F1
:10AC440021AC0200F8B500F0BBF8214E0546002700
:10AC5400336823B133685B685B1B642B05D400F055
:10AC6400AFF8FFF7E1FF0120F8BD34682378012B2A
:10AC740002D07846FBF730FE63693360B3886761BE
:10AC84009BB25A1E92B2B28013B97846FBF724FEE7
:10AC9400A36813B97846FBF71FFE022328462169EF
:10ACA4002370A368984700F08BF82378022B05469D
:10ACB400CED1E2680AB92270CAE763681344591B0B
:10ACC4006429FBD463602046FFF760FFC0E700BF40
:10ACD400604F002008B5064B064800221A605A60EF
:10ACE40000F096FD044B1860BDE8084000F05BB826
:10ACF400604F002049AC02005C4F002010B50446B0
:10AD040000F080FE10B97846FBF7E6FD14B97846EA
:10AD1400FBF7E2FDA36813B97846FBF7DDFD237862
:10AD2400012B02D17846FBF7D7FD0023636120464F
:10AD3400FFF72CFF00F044F8BDE81040FFF774BFA4
:10AD440010B5044600F05EFE10B97846FBF7C4FD6A
:10AD540014B97846FBF7C0FD2046FFF73DFF0023FA
:10AD6400636100F02DF8BDE81040FFF75DBF38B512
:10AD740004460D4600F046FE10B97846FBF7ACFDDC
:10AD840014B97846FBF7A8FD2046FFF725FF0023FA
:10AD9400636120466560FFF7F9FE00F011F8BDE835
:10ADA4003840FFF741BF08B512F0D8FA38B912F0AD
:10ADB40011FA20B17846BDE80840FBF78DBD08BD07
:10ADC40010B5EFF3108072B60C490D4B1A68D1F828
:10ADD4000435D1F80441012C04BFD1F80435013203
:10ADE40000B962B6074943EA02634FF48040002287
:10ADF400E3FB0102C00B40EA424010BD00100140D9
:10AE0400684F002040420F000A4B10B54FF4003247
:10AE1400094CC3F84823C3F80823236813B97846B8
:10AE2400FBF75AFD2468FFF7CBFF2346BDE810402B
:10AE3400184700BF00100140744F002010B5EFF315
:10AE4400108072B61E4B1F490022C3F804210A6801
:10AE540001320A6000B962B61B4A116809B311686D
:10AE6400013911601268E2B9184AD3F8040511686F
:10AE7400884217D2EFF3108072B6D3F80415146821
:10AE84000131A1422ABFD3F8042512680232C3F863
:10AE9400442500B962B64FF40032C3F84423C3F822
:10AEA400042310BD0A4C236813B97846FBF714FD3C
:10AEB4002468FFF785FF2346BDE81040184700BF0C
:10AEC40000100140684F00206C4F0020704F00209C
:10AED400744F002073B50023054601930C4611B945
:10AEE4007846FBF7F9FC214B1C60FFF769FF431B15
:10AEF400002BB8BF2C1A4FF000061D481D4AA8BFEE
:10AF040034464FF4004531460023E4FB050116F0B6
:10AF14005FF8EFF31083019372B6174A174CD2F817
:10AF240004350228C3F1FF1101F57F4138BF022027
:10AF3400814213490FD30344C2F844354FF400331C
:10AF4400C2F84433C2F8043326600E60019B03B98F
:10AF540062B602B070BD03F17F43013303441A0E9D
:10AF6400013223F07F4322600B60EFE7744F00202F
:10AF740020A1070040420F00001001406C4F002048
:10AF8400704F0020074B4FF40032C3F84823C3F836
:10AF94000823054A00231360044A1360044A13601B
:10AFA400704700BF001001406C4F0020704F00201C
:10AFB400744F002030DF704731DF704710B5D0E99F
:10AFC40000238468C168A2EB731283EAF43303603C
:10AFD4000C441344114444608160C360184610BD9E
:10AFE40073B50D46064610B97846FBF775FC002488
:10AFF400A54201D802B070BD0DF10700FFF7DAFFDA
:10B004009DF80720002AF7D02B1B9A4288BF8DF8A1
:10B01400073030199DF80710FFF7CEFF9DF8073071
:10B024001C44E5E737B50421044600230DEB010079
:10B034000193FFF7D5FF074B2360019BE360C4E94D
:10B04400013314252046FFF7B9FF013DFAD103B0BF
:10B0540030BD00BFED5EEAF1704748DF704749DF5D
:10B0640070474ADF70470000074B032218681A74C0
:10B07400064A5A6140F6D86143F2B063884298BFE9
:10B084000B469360704700BFA44F0020C44F0020BC
:10B09400064B1A68064B1B68A2F178002833534309
:10B0A400044AB3FBF2F3C01A704700BFA44F002058
:10B0B400C04F002040420F000D4B012210B55A71C1
:10B0C4000C4A00241C7413680133136000F07EFAE8
:10B0D4000AF0FEFBFFF7DCFF074A0146204600F0BA
:10B0E400E5F920B17846BDE81040FBF7F5BB10BD8B
:10B0F400A44F0020D84F00206DB002001F4B10B4A5
:10B104005A6928B11968DC6811440134DC6019609B
:10B11400996801240131E24001291C7499601C687A
:10B124005A610ED002291AD05B69154A1C44944214
:10B1340003D840F6D76293421CD85DF8044BFFF75E
:10B14400BBBFB2F5FA7F03D130B900225A61EBE7F5
:10B1540040F6D8618A42E7D840F6D862F6E7DA6862
:10B16400022A02D1064A121BF0E7012ADCD1002888
:10B17400EBD0D9E75DF8044B704700BFA44F002023
:10B184008096980070B5414C414D012323712B7872
:10B194001BB1404B1E78002E59D000232374042881
:10B1A40051D8DFE800F0034B484642003A4DA179FC
:10B1B400AA68C4E902332368226099B30121217487
:10B1C4003649002B08BF0B46991AB1F57A7F25D36F
:10B1D4009A4223D8616143F2B06043F69822C5E9EC
:10B1E400020201236B71A371237C023B012B0CD857
:10B1F40063793BB10AF088FBFFF74AFF00F018FAC5
:10B2040000236371234B00221A70237C2448022BF1
:10B2140004BF012323760023237170BD4FF47A7396
:10B224006361D8E7FFF748FFD5E70120FFF766FF22
:10B23400DAE70020FAE70AF0F9FAD5E700F08AF92C
:10B244000AF02CFBD0E77846FBF746FBCCE700F08E
:10B2540061F92B782060022B0FD0032B06D0012B31
:10B2640010D10223237400232B70BDE70A4B0D4930
:10B274000D4A5E71C3E90212A67103232374064BBF
:10B284006361F0E77846FBF727FBECE7A44F002067
:10B29400D54F0020D44F0020C44F00208096980042
:10B2A400B44F0020A0860100FF1FA107043808B591
:10B2B400042825D8DFE800F016220A030F00114BFA
:10B2C4001B7E012B1CD1FFF7CAFEC8B17846BDE82E
:10B2D4000840FBF701BB0B4B00221A76BDE808407F
:10B2E4000AF04ABB08480123437143F6982240F60A
:10B2F400D863C0E90232FFF7B4FEE6E70248FAE792
:10B3040008BD00BFA44F0020C44F00200D4A4FF4D5
:10B3140080710023918043F2B06C43F6982113703E
:10B32400C2E902C1084A1060084A1370084A13703F
:10B33400084A1360084A13761360938001239371BB
:10B34400704700BFC44F0020C04F0020D44F0020DE
:10B35400D54F0020D84F0020A44F002010B50D4C2D
:10B36400237E012B09D0022B12D07BB90A48FFF7A8
:10B3740074FE10B17846FBF7AFFA0848FFF771FE88
:10B3840010B17846FBF7A8FA02232376002000E0E8
:10B39400112010BDA44F002089B10200C44F002029
:10B3A400074B1B7C023B012B07D9064B187801384D
:10B3B40002288CBF0020012070470120704700BF85
:10B3C400A44F0020D54F0020014B1868704700BFE0
:10B3D400A44F0020064B5B7910B53BB1FFF758FE34
:10B3E400044600F097F8231A48BF031B184610BD03
:10B3F400A44F0020014B5879704700BFA44F002090
:10B40400014B1879704700BFA44F0020024B187EEF
:10B41400003818BF01207047A44F0020EFF31083B9
:10B4240072B6054A527922B1044A4FF48071C2F8C7
:10B43400001103B962B67047A44F002000E100E098
:10B44400044B1B7E022B04D1034B01221A70FFF71D
:10B45400E5BF7047A44F0020D54F0020054B1B7E4D
:10B46400022B06D1044A012808BF03231370FFF7F7
:10B47400D5BF7047A44F0020D54F0020054B1A7844
:10B4840032B128B9044A127812B11870FFF7C6BF56
:10B4940018707047D44F0020D54F0020024B1B6812
:10B4A40003B962B6704700BFEC4F0020022810B504
:10B4B40023D8EFF31084124B1C6072B6114B43F87F
:10B4C4002020114B002243F82020104B1B7883B11D
:10B4D400830003F1804303F500431030C3F8402197
:10B4E400C0B2012202FA00F0094AC2F80403C3F808
:10B4F4004015FFF7D3FF002010BD0720FCE700BF75
:10B50400EC4F0020DC4F0020F84F0020E84F0020D3
:10B514000080004008B5EFF310820A4B1A6072B63F
:10B52400094B1B7853B1094B0022C3F84C2101226B
:10B53400DA64D3F84C05FFF7B1FF08BD044B186873
:10B54400F9E700BFEC4F0020E84F002000800040E6
:10B55400F04F00202DE9F84F0024174EDFF85C80EF
:10B56400A1464FF0010BA50005F1804505F5004506
:10B57400D5F84031CBB1D8F8043304F11007FB40BF
:10B58400DB0712D5D6F800A0BAF1000F02D1784635
:10B59400FBF7A2F90BFA07F7C6F80090C8F808738E
:10B5A400FFF7B8FFD047C5F840910134032C06F1EA
:10B5B4000406D8D1BDE8F88FDC4F0020008000409D
:10B5C400014B1B6818447047F44F002008B5134B17
:10B5D4000022C3F84025C3F84021D3F84011C3F832
:10B5E4004425C3F84421D3F84411C3F84825C3F8CB
:10B5F4004821D3F848310A4B1B681BB9094B4FF457
:10B6040080721A60084B01221A70FFF7D9FB0146B9
:10B61400FFF780FF054B081A186008BD0080004042
:10B62400EC4F002000E100E0E84F0020F44F002040
:10B634000B4A0C4900231360536093600A4A0B6061
:10B6440010600A4A4B6013708B60094B4FF0FF3255
:10B65400C3F80823074B4FF48072C3F88021704766
:10B66400F84F0020DC4F0020F04F0020E84F00206E
:10B674000080004000E100E0044B1B780F2B1EBF4C
:10B68400034B4FF48022C3F8002170474C51002033
:10B6940000E100E010B5104C104B2070104803601E
:10B6A4001023C0E90133FEF79DF90E48FFF7DCF8DB
:10B6B40023780F2B0AD0072B09D8EC221A41D20782
:10B6C40005D5094A5B01DBB282F8123310BD784616
:10B6D400BDE81040FBF700B94C5100201850002081
:10B6E400045000205051002000E100E00D4B1B7875
:10B6F4000F2B0DD00C4991F812335A09EC23134146
:10B70400DB0706D5094B9A6832B94FF480230B60E6
:10B7140070477846FBF7E0B81A6842F480221A6052
:10B72400704700BF4C51002000E100E0B06B0020E6
:10B73400F8B5EFF3108772B617490B685A1C0A6004
:10B7440003BB164B1B780F2B21D0EFF3108C72B672
:10B75400134A144C95680123E5B99360124B134EB8
:10B76400D3F8800030401060C3F88060D3F88400C0
:10B7740050604FF0FF32C3F884202570BCF1000FF5
:10B7840000D162B60B6813B97846FBF7A5F807B980
:10B7940062B6F8BD2370F1E7185100204C51002027
:10B7A400B06B00204D51002000E100E0FC06FFBD1D
:10B7B40038B5EFF3108572B6104C236813B9784688
:10B7C400FBF78AF82368013B2360A3B90C4B1B7871
:10B7D4000F2B10D00B4B9A686AB10B4A127852B9EE
:10B7E400EFF3108072B609491C680C605C684C6009
:10B7F4009A6000B962B605B962B638BD1851002026
:10B804004C510020B06B00204D51002000E100E0BD
:10B8140038B5044610B97846FBF75EF8094D2B6835
:10B82400092B02D97846FBF757F8EFF3108372B669
:10B834002868421C2A60044A42F8204003B962B6D0
:10B8440038BD00BF1C510020205100200E4B1B6846
:10B85400834210B5044602D87846FBF73DF8EFF36F
:10B86400108072B6094A6109012304F01F0403FA27
:10B8740004F452F82130234342F82130FFF7FCFE50
:10B8840000B962B610BD00BF1C5100204851002011
:10B8940070B50D461646044610B97846FBF71CF8F9
:10B8A40015B97846FBF718F8EFF3108372B6002247
:10B8B400C4E902562274246003B962B670BD000064
:10B8C40070B5044610B97846FBF706F8A36813B9B7
:10B8D4007846FBF701F8EFF3108672B6237C03F089
:10B8E400FF055BB90123064823742146FEF7C6FF12
:10B8F400FFF7C2FE284606B962B670BD1120FAE70A
:10B904005051002010B5044610B97846FAF7E4FF08
:10B91400207C10BD2DE9FF47334F3B7813B17846A7
:10B92400FAF7DAFF0125DFF8CC90DFF8CC80DFF8F6
:10B93400CCA03D700024D9F80030A34212D82B4883
:10B94400DFF8A880FEF7B4FF002660BB284C6946E8
:10B954002046FEF761F8A0B3002328463B7004B0EC
:10B96400BDE8F087630904F01F0158F82300C840BC
:10B97400C20716D5EFF3108072B6012202FA01F164
:10B9840058F8232022EA010248F8232000B962B6BD
:10B994005AF824309847064618B92046FFF756FF50
:10B9A40035460134C7E70468237C13B97846FAF7AF
:10B9B40093FFD4E90230984726744046FEF778FF97
:10B9C400C3E79DF8003043B1012BC0D1019B002B8C
:10B9D400BDD0DDE902019847B9E7019B002BB6D041
:10B9E40002989847B3E700BF5851002050510020F7
:10B9F400045000201C5100204851002020510020F8
:10BA0400FFF788BF07B5FEF7FBFF8DF803009DF82D
:10BA140003301749F02B0DD10B780F2B25D01220B2
:10BA2400FEF7F6FF80F00100C0B200F0010003B0A1
:10BA34005DF804FB9DF803305BB2002BADBF03F14E
:10BA440060430C4A03F00F0303F56143B4BFD35CB6
:10BA540093F800335B090193019A0B78934204D065
:10BA6400019A9342DBD30020DFE70120DDE700BF2A
:10BA74004C51002014ED00E046DF7047F0B58DB066
:10BA840015466A460B46044600F1100C174620681A
:10BA94006168164603C6083464453246F7D104ACDF
:10BAA40003F1100618685968224603C20833B342EA
:10BAB4001446F7D13846FFF7DFFF08AC2A460CAD31
:10BAC400234603CBAB42106051601C4602F10802CE
