:020000021000EC
:10F00000000001206D8103009581030097810300BA
:10F01000998103009B8103009D8103000000000093
:10F020000000000000000000000000009F810300BD
:10F03000A181030000000000A3810300A58103005B
:10F04000D1380300A7810300A7810300212F03000B
:10F05000A7810300FD440300AD220300DD39030056
:10F06000A7810300A7810300A7810300A7810300F4
:10F07000A7810300E53F0300A7810300A7810300E8
:10F08000A7810300AD4A0300A7810300A781030005
:10F09000694B0300A781030059780300A78103008F
:10F0A000A7810300A7810300A78103009542030005
:10F0B00001350300B9350300000000000000000026
:10F0C000A7810300A7810300A7810300A781030094
:10F0D000A7810300A7810300A781030000000000AF
:10F0E0000000000000000000000000000000000020
:10F0F0000000000000000000000000000000000010
:10F1000000000000000000000000000000000000FF
:10F1100000000000000000000000000000000000EF
:10F1200000000000000000000000000000000000DF
:10F1300000000000000000000000000000000000CF
:10F1400000000000000000000000000000000000BF
:10F1500000000000000000000000000000000000AF
:10F16000000000000000000000000000000000009F
:10F17000000000000000000000000000000000008F
:10F18000000000000000000000000000000000007F
:10F19000000000000000000000000000000000006F
:10F1A000000000000000000000000000000000005F
:10F1B000000000000000000000000000000000004F
:10F1C000000000000000000000000000000000003F
:10F1D000000000000000000000000000000000002F
:10F1E000000000000000000000000000000000001F
:10F1F000000000000000000000000000000000000F
:10F2000010B5054C237833B9044B13B10448AFF360
:10F2100000800123237010BD204400200000000066
:10F220004CCB0400084B10B51BB108480849AFF39C
:10F2300000800848036803B910BD074B002BFBD0C2
:10F24000BDE81040184700BF000000004CCB040090
:10F2500024440020FC43002000000000154B002B3C
:10F2600008BF134B9D46A3F5803A00218B460F46FD
:10F270001348144A121A00F065F80F4B002B00D007
:10F2800098470E4B002B00D0984700200021040027
:10F290000D000D48002802D00C48AFF3008000F0AC
:10F2A0002BF82000290000F08BF900F011F800BFC6
:10F2B0000000080000000120000000000000000025
:10F2C000204400205C9200200000000000000000AC
:10F2D00008B5074B044613B10021AFF30080054B7E
:10F2E0001868836A03B19847204600F033F800BFDE
:10F2F000000000000051040070B50E4B0E4CE41AE3
:10F30000A41000251E46A54204D056F82530984783
:10F310000135F8E725F0E6FE084C094BE41AA41085
:10F3200000251E46A54204D056F8253098470135E1
:10F33000F8E770BDF4430020F4430020F8430020B8
:10F34000F443002002440346934202D003F8011B19
:10F35000FAE77047FEE700BFBFF34F8F0549064B42
:10F36000CA6802F4E0621343CB60BFF34F8F00BF63
:10F37000FDE700BF00ED00E00400FA0532DF704752
:10F380003EDF704700283ED01F4B204A1B6800BF5D
:10F3900000BF00BF00BF00BF00BF00BF00BF93425F
:10F3A0002FD000BF00BF00BF00BF00BF00BF00BF25
:10F3B00000BF00BF00BF00BF00BF00BF00BF00BF55
:10F3C00000BF00BF00BF00BF00BF00BF00BF00BF45
:10F3D00000BF00BF00BF00BF00BF00BF00BF00BF35
:10F3E00000BF00BF00BF00BF00BF00BF00BF00BF25
:10F3F00000BF00BF00BF00BF00BF00BF00BF00BF15
:10F4000000BF0138C3D17047DC4300200024F40062
:10F41000A8B108B50378012B00D008BD01F0D8FBD6
:10F4200070B94FF0A0434FF40032C3F83427FFF710
:10F43000A5FF0028F1D0BDE8084015F047BA704795
:10F4400015F044FAEDE700BF08B50378012B5ED054
:10F45000022B5BD1012002F091FE002840F09D803C
:10F4600001F0B6FB002840F095804FF0A0434C49D6
:10F47000C3F82C174B4A4FF40031C3F83017126809
:10F48000494941F2883300BF00BF00BF00BF00BF41
:10F4900000BF00BF00BF8A422FD000BF00BF00BF27
:10F4A00000BF00BF00BF00BF00BF00BF00BF00BF64
:10F4B00000BF00BF00BF00BF00BF00BF00BF00BF54
:10F4C00000BF00BF00BF00BF00BF00BF00BF00BF44
:10F4D00000BF00BF00BF00BF00BF00BF00BF00BF34
:10F4E00000BF00BF00BF00BF00BF00BF00BF00BF24
:10F4F00000BF00BF00BF00BF00BF013BC3D1FFF78B
:10F500003DFF08B115F0E2F9FFF726FF08BD254BD6
:10F5100025491A6841F2883300BF00BF00BF00BF11
:10F5200000BF00BF00BF00BF8A422FD000BF00BF96
:10F5300000BF00BF00BF00BF00BF00BF00BF00BFD3
:10F5400000BF00BF00BF00BF00BF00BF00BF00BFC3
:10F5500000BF00BF00BF00BF00BF00BF00BF00BFB3
:10F5600000BF00BF00BF00BF00BF00BF00BF00BFA3
:10F5700000BF00BF00BF00BF00BF00BF00BF00BF93
:10F5800000BF00BF00BF00BF00BF00BF013BC3D131
:10F59000FFF7E2FE15F09AF967E715F097F95FE7D4
:10F5A0000C000300DC4300200024F40008B5022016
:10F5B00003F0ACF841F28830FFF7E4FEFFF7CCFE31
:10F5C0002DE9F04F082091B03C21544A15F08EF9F6
:10F5D00008B115F07BF915F0CFFD08B115F076F9FB
:10F5E00010AC4F4B44F8243D204601F0E7F908B138
:10F5F00015F06CF94B484C4F4C4EFFF7C3FE002101
:10F600001C20089140F61C430E914FF0050B4FF063
:10F610000D0A4FF011094FF001084FF0040C41F2B0
:10F620005E0E434A07916F250A218DF822000F20B4
:10F630008DF823B08DF824A08DF825908DF82680C4
:10F640008DF827C0ADF82830ADF83630ADF82AE097
:10F650000B970C96ADF834508DF838100F9201F0DE
:10F6600051F908B115F032F910A9324D41F83C5D5D
:10F67000314803F0ADF808B115F028F910A92F486A
:10F6800041F8385D02F028F808B115F01FF910A90B
:10F690002B4841F8345D02F073FD08B115F016F9FE
:10F6A000284802F0DBFA08B115F010F9264B27487C
:10F6B0000793214603F0C0FB08B115F007F941F2AA
:10F6C000883003F04FFB08B115F000F9204B1B4ABE
:10F6D000049304A805230592069300F0CDFA08B11F
:10F6E00015F0F4F8012003F011F808B115F0EEF868
:10F6F000184D402415F090F9F1EE103A23F09F03D5
:10F70000E1EE103AF1EE103AC5F88441FFF738FE09
:10F710000028EFD015F0DAF8ECE700BF3C440020F9
:10F7200014510400A086010060E3160020BF02000F
:10F7300020510400905104001C4800200C48002077
:10F74000144800202448002011F401002C48002017
:10F7500049F4010000E100E06DDF704776DF70479B
:10F760007ADF70477CDF70477FDF70478FDF70473D
:10F770009EDF7047A9DF7047ADDF704769DF7047D4
:10F7800066DF704731DF70473DDF7047704700BF6D
:10F7900015F09CB815F09AB8F0B5054685B04F4FF6
:10F7A0000FF006FC28460FF05FFB3A6862B14C4E42
:10F7B0000024336803EBC40301345B6813B12846AB
:10F7C00098473A689442F4D34648294610F05CF9C9
:10F7D0004548294618F084FA2B88132B66D00AD99D
:10F7E000522B4AD0552B1AD0212B3ED028460FF051
:10F7F000E5F905B0F0BD102B49D0112B20D0012B1D
:10F80000F4D13A4B00211888FFF7BAFF0028EDD059
:10F8100015F05CF828460FF0D1F905B0F0BDA888C6
:10F820004FF48A71FFF7A8FF002849D13049EB88CF
:10F830002C48A1F8013010F01DFD0028D6D0E7E7D4
:10F8400004AC002344F80C3D284B4FF6FF722046D1
:10F850001A8015F089FF08B115F038F8019B002BCC
:10F8600031D0244B01221A70C0E700210A46A88833
:10F87000FFF77CFF0028B9D0CAE71C4B002118888D
:10F880000A460B46FFF776FF0028AFD0C0E704A872
:10F89000002300F80C3D184B144AA9881B681180FE
:10F8A000984728460FF08AF905B0F0BD0F4B0022AB
:10F8B000188885211346FFF757FF002896D0A7E741
:10F8C00015F004F8B2E70B490B4A0B7001231268DC
:10F8D0008DF804302046904788E700BF4448002058
:10F8E00038480020CC49002048480020044300202C
:10F8F0002C4A00203C4800204048002000B17047BE
:10F9000000B585B004A8022300F80C3D054B1B6828
:10F91000984703200FF032F908B114F0D7FF05B073
:10F920005DF804FB4048002008B5037803B108BD2A
:10F93000054B3B211888FFF711FF0028F7D0BDE8E1
:10F94000084014F0C3BF00BF0443002010B50446B4
:10F9500084B015F015FF204600F038FF2046023C29
:10F960000FF08CF9012C01D904B010BD04AC0023B8
:10F9700044F80C3D204615F0F7FE08B114F0A6FF40
:10F98000019B002BF0D1064B1B78002BECD0054BD4
:10F99000012220461B688DF804209847E4E700BF49
:10F9A0003C4800204048002030B585B0062918D8D2
:10F9B000DFE801F03848538104A31900FA2B10D86E
:10F9C000654C00932068114629301A4624F020FF28
:10F9D0002068009B80F8233100F03AFD08B114F054
:10F9E00075FF05B030BDF72BFBD85B4D0093286841
:10F9F000114600F595701A4624F00AFF009B2A680C
:10FA0000DCB282F8214206F061FD002840F08680D9
:10FA10002868514D00F59570214606F085FC0028B8
:10FA200069D066E00A2BDCD84B4C00931146206865
:10FA30001A4624F0EDFE009B22680021D154206874
:10FA4000C372C9E7032BCCD1434C206811460C305C
:10FA50001A4624F0DDFE2068BEE7082BC1D13E4DDA
:10FA60000093286811460F301A4624F0D1FE009BFF
:10FA700000211A4602A8FFF765FC2B68197CDA7B87
:10FA800042EA0122ADF80820997C5A7C42EA012220
:10FA9000ADF80A20DA7C197D42EA0122ADF80C208B
:10FAA0005A7D9B7D02A842EA0323ADF80E300FF089
:10FAB00037FA00B31DE0112B93D8274D0093286827
:10FAC000114617301A4624F0A3FE009B2A68022B29
:10FAD00082F828301FD9214C2149238117324FF455
:10FAE0003E7304F10A00626023606161FFF734FE37
:10FAF00048B314F0EBFE28686EE7032B7FF471AF78
:10FB0000117801290DD01748174910F0B3FB0028D0
:10FB10003FF467AF63E700F0D1FEECE714F0D6FEE8
:10FB200076E71248B2F80110008801930092FFF7BF
:10FB30001FFE9DE80C000028E5D111460A481A4630
:10FB400024F066FE4DE7E37A20460233E37200F0CC
:10FB50006BFE00F085FECEE778480020604800206C
:10FB600095F70100CC4900202C4A002004430020D6
:10FB70002DE9F043C1B000AF06F0BCFC20B107F5A1
:10FB80008277BD46BDE8F083324C334920681622A7
:10FB900000F5957024F02CFE80BB3048202106F043
:10FBA0004FFC6D46044618BB88B02D498DF80040C7
:10FBB000684624F077FE68462A492B4E24F072FEF0
:10FBC000E84606F1040916F8012B28493C8107F1A3
:10FBD0000800BC7224F042FE404607F1080124F000
:10FBE00061FE4E45EFD140461B2106F0D7FB88B1A0
:10FBF000AD4607F58277BD46BDE8F083236803F57F
:10FC0000957093F8211206F08FFB07F58277BD46B9
:10FC1000BDE8F08301201649162206F0EFFB00280C
:10FC2000E6D106F02DFC0028E2D107F58071F7231C
:10FC300001F8F93D07F1080006F098FB0028D7D13C
:10FC4000FB790C4887F8FF3007F1080110F030FB12
:10FC5000AD46CEE7784800200A5304009C510400CA
:10FC6000184A0020BC51040034480020C051040050
:10FC7000C8510400CC4900202DE9F047AA4CAB4FF5
:10FC8000AB4DAC4EAC49AD4BAEB0024620680890CF
:10FC900092E8110092682A6038604FF4A67208A8B2
:10FCA000346017F06BFD002840F03B812EAC002340
:10FCB00044F8783D204617F0E7FD002840F02E81FB
:10FCC00000210C221FA8FFF73DFB01274FF48A7388
:10FCD0001FA92320109A8DF87C70ADF87E30FFF7B5
:10FCE0004DFD002840F0178100210C221FA8FFF7CE
:10FCF00029FB0627012320201FA9109A8DF87C30AC
:10FD00008DF87E30ADF88070FFF738FD002840F0A8
:10FD1000FF8000210C221FA8FFF714FB01271023EE
:10FD200022201FA9109A8DF87C708DF87E30FFF785
:10FD300025FD002840F0E98000210C221FA8FFF7D4
:10FD400001FB0127022321201FA9109A8DF87C7046
:10FD50008DF87E30FFF712FD002840F0D38000219F
:10FD60000C221FA8FFF7EEFA022301201FA9109A08
:10FD70008DF87C30FFF702FD002840F0C0800021A4
:10FD80000C221FA8FFF7DEFA012340201FA9109ABA
:10FD90008DF87C30FFF7F2FC002840F0AD800021A8
:10FDA0000C221FA8FFF7CEFA40F6E443A1201FA9BA
:10FDB000109A1F93FFF7E2FC002840F09A80002180
:10FDC0000C221FA8FFF7BEFA9DF87C30109A43F072
:10FDD0000103A0201FA98DF87C30FFF7CFFC00287D
:10FDE00040F08480204617F059FD00287BD154480C
:10FDF00017F01EFD10B12EB0BDE8F087514817F086
:10FE000021FD0028F7D10120FFF7BCFC0028F2D12A
:10FE10000120FFF7B9FC03460028ECD14A49D1F88C
:10FE2000882042F47002C1F88820BFF34F8FBFF3DF
:10FE30006F8F1FA88DF87C3014F07CF8DFF80CA1D0
:10FE4000DFF80C91062741F288389DF87C30032BAF
:10FE50001FA87FD814F06EF8DAF80020434600BFE0
:10FE600000BF00BF00BF00BF00BF00BF00BF4A45CA
:10FE70002FD000BF00BF00BF00BF00BF00BF00BF4A
:10FE800000BF00BF00BF00BF00BF00BF00BF00BF7A
:10FE900000BF00BF00BF00BF00BF00BF00BF00BF6A
:10FEA00000BF00BF00BF00BF00BF00BF00BF00BF5A
:10FEB00000BF00BF00BF00BF00BF00BF00BF00BF4A
:10FEC00000BF00BF00BF00BF00BF00BF00BF00BF3A
:10FED00000BF013BC3D17B1E13F0FF07B5D10D203E
:10FEE0002EB0BDE8F08714F0F1FC80E714F0EEFCD2
:10FEF00078E714F0EBFC62E714F0E8FC4FE714F04D
:10FF0000E5FC3CE714F0E2FC29E714F0DFFC13E722
:10FF100014F0DCFCFDE614F0D9FCE5E614F0D6FCA8
:10FF2000CEE614F0D3FCC1E698510400404800200E
:10FF300044480020384800207C48002069760300AF
:10FF400099F701004DF9010000ED00E0DC430020CD
:10FF50000024F400A948042113F0FEFF00287FF4D8
:10FF60004AAFA74FA748394600F09EFA00287FF411
:10FF700042AFD7F8008098F8243198F8252198F8F6
:10FF80002611FF2B40F0B281FF2A40F0F281FF29B9
:10FF900002D088F82621012098F82830112B00F291
:10FFA000DB8198F82331FA2B00F2B18198F82132E5
:10FFB000013BDBB2F62B00F2BB81002840F0C3818D
:10FFC0009DF8403003F0F0036FF3071340468DF8BF
:10FFD000403024F07EFC414682B22046FFF7C2FB4F
:10FFE000002840F0D181002108221FA8FFF7AAF9BC
:10FFF0003B68DFF80C82197CDA7B42EA0122ADF81B
:020000022000DC
:100000007C20997C5A7C42EA0122ADF87E20DA7C81
:10001000197D42EA0122ADF880205A7D9B7D1FA800
:1000200042EA0323ADF88230FFF79AFB072800F07D
:10003000AE8100287FF4DFAE3A68734B7348D6F880
:1000400000801F921FA92E6820930FF007FE08B1B1
:1000500014F03CFC76B1DFF8D891002558F8353023
:1000600001352BB199F80000984700287FF4C3AE02
:10007000B542F3D100211FA80822FFF763F9644BB2
:100080001F93644801231FA98DF880308DF88130BB
:1000900017F094FD08B114F019FC5C4B584E1B7816
:1000A0008DF80E3000214FF480733C2220460D461F
:1000B000ADF80C304FF00108FFF744F93B680895A4
:1000C0000220062103AA0C950D958DF84250099542
:1000D0000A950B950E950F958DF840008DF84310FD
:1000E000ADF848808DF8238013929A890C929B7BFF
:1000F0000D9329463C221FA8FFF724F93F4B00959A
:10010000D878997893F801A093F800908DF87C50F6
:100110004FF0590C0DF1100E05AD8DF810008DF853
:10012000111008AA3C4B2895042720461FA98DF8DA
:1001300012A08DF81390ADF814C0CDF81CE0ADF806
:1001400018700EF059FC054600287FF454AE404666
:100150000EF04CFC29461C221FA8FFF7F3F820469E
:1001600029460822FFF7EEF833682C4F187CDA7B1B
:100170002B4942EA0022ADF84020987C5A7C42EAA2
:100180000022ADF84220187DDA7C42EA0022ADF868
:1001900044205A7D9B7D1F9442EA03234FF4004E76
:1001A0004FF4702203241FA8ADF84630ADF88A50F2
:1001B0008DF88C50CDF880E021928DF888402497FE
:1001C00025910EF017FE00287FF415AE20460EF0A4
:1001D000D5FC00287FF40FAE124800F0A1FB0028E8
:1001E0007FF409AEFFF7C4FC00287FF404AE0E4B89
:1001F0000E491A6842F210731CE000BF3448002018
:1002000078480020E0510400A9F90100CC49002001
:100210008DF7010048480020FDF8010029F9010090
:1002200091F70100184A0020DC4300200024F4006C
:10023000C849002000BF00BF00BF00BF00BF00BF13
:1002400000BF00BF8A422FD000BF00BF00BF00BF69
:1002500000BF00BF00BF00BF00BF00BF00BF00BFA6
:1002600000BF00BF00BF00BF00BF00BF00BF00BF96
:1002700000BF00BF00BF00BF00BF00BF00BF00BF86
:1002800000BF00BF00BF00BF00BF00BF00BF00BF76
:1002900000BF00BF00BF00BF00BF00BF00BF00BF66
:1002A00000BF00BF00BF00BF013BC3D1336893F85C
:1002B0002820022A40F28F80484C49492281173376
:1002C0004FF43E7204F10A0084E80C006161FFF70C
:1002D00043FA00287FF48FADE37A20460233E372BD
:1002E00000F0A2FA00F0BCFA002084E5FF2388F8B1
:1002F000243188F8253188F826313A4B3A480122D2
:100300001A7000F0A5F8C8BBD7F8008044E608F1E1
:1003100029000022354924F07BFAD7F8008098F8AC
:100320002132013BDBB20022F62B88F823210AD9C7
:1003300008F595702E49162224F06AFAD7F8008045
:10034000162388F82132404600F082F808B114F0F4
:10035000BDFAD7F8008033E608F1170025490E22D0
:1003600024F056FAD7F800800E2388F828300120B0
:1003700017E688F8253188F82631BEE714F0A6FA8A
:10038000D7F80080002007E614F0A0FA2BE6D8F892
:10039000000000234FF0060C4FF0180E4021012200
:1003A00080F80FC080F811E0417582750374837482
:1003B000C374037500F04CF800287FF41CAD0E4B9D
:1003C0001F931FA84FF0A0732093FFF7C9F90028CF
:1003D0007FF411AD30E600F071FA85E76048002047
:1003E00095F70100C8490020E051040009520400BB
:1003F0000A530400F7510400060018000378012B8B
:1004000011D00AD3052B05D143682BB90D4B01221E
:100410001A707047406878B97047436873B90A4BDF
:1004200001221A707047426842B98289B2F5005FB2
:10043000F2D1064A1370704714F048BA002014F045
:1004400045BA00BF304A0020404A00202F4A002011
:1004500018B3F0B5124C87B0014640F22222201D9D
:1004600024F0D6F98A274FF0420E01AA01234FF457
:10047000005642F2010503A90A480194C4F800E0BD
:10048000ADF80870ADF80C60ADF80E500492ADF800
:10049000143016F06DFC07B0F0BD0E20704700BFA1
:1004A000444A0020344A002000286AD02DE9F04751
:1004B000044686B03E480D4616F036F910B106B037
:1004C000BDE8F08716F044F90028F8D1394E3378AA
:1004D00023B914F0A1FA3378002BFAD016F034FDCA
:1004E0000028ECD1344E337823B914F095FA3378E0
:1004F000002BFAD00021082201A8FEF723FF01AB50
:100500004FF4005042F201012C4A16F061FD002820
:1005100039D00A28D3D12A4F2A4E07F104082146A0
:1005200040F22222404624F073F94FF042094FF086
:10053000000C4FF08A0E4FF4005442F201024FF0CB
:10054000010A01AB1D48019703A90493C7F8009065
:1005500086F800C0ADF808E0ADF80C40ADF80E200C
:10056000ADF814A016F0BEFA0028A8D13378C5F86B
:10057000008023B914F050FA3378002BFAD0002011
:100580009DE70E2070470D4803A916F063FA002876
:10059000BFD10B4804994FF40A7224F039F9074887
:1005A00016F07CFA0028B4D1074B2B6087E700BF18
:1005B000FD030200404A0020304A0020344A002057
:1005C000444A00202F4A0020484A002045DF704757
:1005D00046DF704747DF70476F4A2DE9F84F002329
:1005E000536013700746002841D0022807D06B4B98
:1005F0005B6A0BB1082098476748BDE8F88F6849E7
:10060000D1F810010128F7D1664CC1F810312378D8
:10061000022B00F0AB80032B00F0B780012B06D13A
:100620002520C1F80875C1F854050B602378042B08
:1006300040F0A880594B5C4819794FF48074C0F899
:100640000845002900F0A5801868996899614FF461
:100650007A7101FB00F10126002003F10C0503244F
:1006600059611E731874587455601470C4E74F4C68
:100670004D4BDFF828814A4D4D49C3F854554FF48E
:100680008072C3F850154FF0160BC3F8042508F11B
:100690001D014226E01C06224FF0060A6770A77073
:1006A00026704FF0020924F0B3F801264FF0AA0E8D
:1006B000FE234FF0EE0C04EB0B00D8F82810B8F82E
:1006C0002C20277484F80BA003274FF0100A84F81D
:1006D00011B084F815C084F80EE084F812E0E373DA
:1006E000E37484F80990A6722773677384F814A0E2
:1006F00024F08EF898F82C302E492A4ADFF8C08072
:10070000DFF8C0C0DFF8C0E02B4803F1140B05335D
:1007100084F801B0C5F8FC6F40F2031B2374C5F8E0
:10072000148540F25B63C5F818C54FF096084FF08A
:100730008E0CC5F834B5C5F83835C5F83065C5F840
:100740000072C5F81075C5F84485C5F804A3C5F84E
:1007500024C5C5F81CE5C5F83C05C5F80445C1F835
:1007600000902E6116700C48BDE8F88F134A1A27C6
:1007700026264FF4C875C1F80875C1F85465D060D5
:10078000C2F840550133237036E70C4A502727261C
:10079000EFE7022313702FE76C4C00209C4C0020E5
:1007A00000100040CC4C002000F00140744C0020B0
:1007B0004081004000E100E05555550000800040B8
:1007C000060102002500030200D6BE89042810B5E8
:1007D00006D3052805D9072802D1114C6379C3B97E
:1007E00010BD0F4C2379002BFAD00023A1680D4ACD
:1007F000237304F10C00237463746161A261FFF739
:10080000E9FE0028ECD0636A002BE9D0BDE8104077
:10081000184700236371FFF7DBFE0028F3D1DFE701
:100820009C4C002040420F0010B40C4B0168196032
:100830000246114641F27C50986051F80A0FD86187
:100840008C88897983F822101C8451695962118936
:10085000998552689A625DF8044B70479C4C002061
:1008600070B5134C63790BB9237903B170BD0123C3
:10087000104823716371FFF7A9FE10B1636A03B1D9
:1008800098470B4DA3680C4A63610121002305F1D1
:100890000C00237323746174A261FFF79BFE002890
:1008A000E4D06B6A002BE1D0BDE87040184700BF70
:1008B0009C4C0020D905020040420F00014B002251
:1008C0001A7170479C4C0020F8B51C4607460E462E
:1008D000154616F029FC094B1B78834201D90F20DD
:1008E000F8BD384631462A46234612F057F800280C
:1008F000F6D0034A136801331360F8BD06430020A5
:10090000D04C0020024A034B107000201860704742
:1009100006430020D04C002012DF70476DDF704787
:1009200070B588B006460DF10300FFF7F5FF18B962
:100930009DF8033013B9022008B070BD01A8FFF77D
:10094000EDFF0028F8D10390049005900690ADF8D3
:100950001C000524062503E0013D601EEDB2C4B273
:10096000062D03A81AD023F0B4FF03AB1149184495
:1009700023F074FF03A823F0ACFF03AB184408ABCB
:100980002B440D4913F81C2C23F068FF002CE3D1F5
:10099000304603A923F095FF2046CDE703A823F0B6
:1009A00098FF03AB04499DF80A20184423F056FF32
:1009B000D2E700BFC4540400C05104002DE9F04741
:1009C000B2B004467F4902A8C022012523F020FFCF
:1009D000A84602AB00264FF0A04C997893F801A0EE
:1009E0001878DA7893F804905F79890041EA4A012F
:1009F000014341EA02221E2E06F5E07E42EA094248
:100A000010D0012F4CF82E2011D005D3022F07D083
:100A1000062032B0BDE8F08708FA06F2CCF80C25C3
:100A2000202D09D00135EDB201360633D5E7B740A8
:100A3000202DCCF80875F5D14FF0A04203234FF0DC
:100A400080406149C2F87837C2F808050A685F49F2
:100A500041F2883300BF00BF00BF00BF00BF00BF2E
:100A600000BF00BF8A422FD000BF00BF00BF00BF41
:100A700000BF00BF00BF00BF00BF00BF00BF00BF7E
:100A800000BF00BF00BF00BF00BF00BF00BF00BF6E
:100A900000BF00BF00BF00BF00BF00BF00BF00BF5E
:100AA00000BF00BF00BF00BF00BF00BF00BF00BF4E
:100AB00000BF00BF00BF00BF00BF00BF00BF00BF3E
:100AC00000BF00BF00BF00BF013BC3D101212046D2
:100AD00005F0BEFB00289CD10146602202A8FEF76B
:100AE00031FC9DF80D409DF813709DF819109DF88C
:100AF0001F309DF83D209DF843609DF84950A4F1BA
:100B00000104B4FA84F4640944F00200012F08BF20
:100B1000044644F0040001290CBF0146214641F07F
:100B20000800012B08BF014641F0E00141F4807349
:100B3000012A14BF0A461A4642F40073012E18BF58
:100B4000134643F48062012D14BF1846104640F44A
:100B50006040012302228DF820308DF82B308DF873
:100B600031308DF837308DF84A308DF84C308DF8B3
:100B700050308DF852308DF85B308DF861308DF843
:100B800067308DF825208DF84F208DF8552005F021
:100B9000E5FA00287FF43DAF02AC05462079E678FF
:100BA00021786278A37801900096284605F02AFA09
:100BB00000287FF42EAF0135102D04F10604EDD18D
:100BC00027E700BF04540400DC4300200024F400A5
:100BD0002DE9F041B2B002AC602220460021FEF7C0
:100BE000B1FB0123022225468DF820308DF82B30F1
:100BF0008DF831308DF837308DF84A308DF84C3023
:100C00008DF850308DF852308DF85B308DF86130B2
:100C10008DF867308DF825208DF84F208DF8552000
:100C200000262879EF7829786A78AB7801900097C8
:100C3000304605F0E7F90136063500283ED020465B
:100C40002349C02223F0E4FD4FF0A04620230127D2
:100C5000013B03EB430204EB420514F81200A978B0
:100C600095F80180EA7895F804C06D79890041EA29
:100C70004801DBB2014341EA02221E2B03F5E07E6C
:100C800042EA0C42E4D0012D46F82E2019D00ED3B2
:100C9000022D10D04FF0A04303214FF080420020DE
:100CA000C3F87817C3F80C2532B0BDE8F08107FA15
:100CB00003F2C6F80C25002BCAD1EBE7102EB0D1F9
:100CC000BDE79D40C6F80855002BC1D1E2E700BF43
:100CD0000454040010B5224C2378022B82B005D0B6
:100CE0000023237002F0AEFD02B010BD1D4B1E4A62
:100CF0001B7800211170ABB11C4814F073FB002865
:100D0000F2D10DF1060002F0D1FA0028ECD1184B17
:100D1000BDF806201B681B7A032B1ED8DFE803F002
:100D200018130F0703F0ECFE0028E5D0DCE7114BA9
:100D30001868C28000F0CEFD0028D5D1D0E70D4B59
:100D400018688280F6E70B4B19684A801868F1E74B
:100D5000084B19680A801868ECE70820C4E700BF50
:100D6000204D0020214D0020CC4D0020444D00207E
:100D70001C4D0020D44C002000B50C4B1B6883B0E8
:100D8000597A9A7A8DF80410DB7A8DF8052001A93A
:100D900000208DF8063004F051FE06F0BBFF08B1CC
:100DA00013F094FD03B05DF804FB00BF1C4D002060
:100DB00008B5054B01221A7003F066FF00B908BDA3
:100DC000BDE8084013F082BD644D002008B5054B16
:100DD00001221A7003F058FF00B908BDBDE80840B1
:100DE00013F074BDD84C002008B503F06BFB00B9BC
:100DF00008BDBDE8084013F069BD00BF70B100B583
:100E000083B0028843880648ADF8042001A9ADF8F4
:100E100006300EF0D9FD03B05DF804FB704700BF4B
:100E2000DC4C002030B5044683B0002004F08EFC7A
:100E30007CB121886588A288E388ADF80010064857
:100E4000ADF802506946ADF80420ADF806300EF05A
:100E5000E5FD03B030BD00BFDC4C002010B5184CE0
:100E60002378012B00D010BD164B1B681B7A032B77
:100E700021D8DFE803F011150D02134B1B68D88849
:100E800090B9022323701148BDE8104014F0AABAAB
:100E90000D4B1B689888F3E70B4B1B681888EFE72E
:100EA000094B1B685888EBE702F0A4FA0028E8D049
:100EB00013F00CFDE5E7082013F008FDE1E700BFA3
:100EC000204D00201C4D0020D44C0020444D00201B
:100ED00000B5037883B03BB1012B02D1002013F0A1
:100EE000F5FC03B05DF804FB4378012BF9D103F066
:100EF000C1FAFDEEC07A9FED0A7ACDED007AF8EEE8
:100F0000E77A694630EE670A064820EE070AFCEEEB
:100F1000C07A17EE903A8DF804300EF001FDE0E74C
:100F20000000C842DC4C002010B52DED028B84B0CF
:100F300068BB03F05BFEB0EE408A03F001FEBDEE3D
:100F4000C87ADFED336A8DED017A9DF80430314CBB
:100F50008DF80C305AB207EE902AF8EEE77A227834
:100F60008DF80B0078EE677A67EEA67AFCEEE77AEA
:100F700017EE903A8DF80D30E2B9274C237813BB69
:100F8000264C237853B904B0BDEC028B10BD002071
:100F900013F09CFC04B0BDEC028B10BD20480DF199
:100FA0000B010EF0E7FCD0B90023237004B0BDECB8
:100FB000028B10BD1B4B1B78A3B900232370164C6A
:100FC0002378002BDCD0164803A90EF07FFCE0B993
:100FD00000232370114C2378002BD4D0DEE713F0CC
:100FE00075FCE1E7DFED107A28EE278A00EB800040
:100FF000FDEEC87A400080B217EE901A02F0B0F809
:101000000028DAD013F062FCD7E713F05FFCDFE7CB
:101010000000C842A84D0020D84C0020644D00209C
:10102000DC4C0020CC4D002000007A4470B57C4E92
:1010300082B0002304467B48337014F0D3F97A4819
:1010400014F0D0F908B903F0F9F9784D7848002385
:101050002B7014F0C7F928B9764B774A1B781070BB
:10106000002B59D0754814F0BDF900285BD1002041
:1010700004F06CFB06F0C2FE08B113F027FC2388D5
:1010800023B16F4B93F83630002B59D1638823B1CD
:101090006B4B93F83730002B5DD1A38823B1684B9D
:1010A00093F83830002B41D1E3881BB1644B93F89F
:1010B0003A3013B9002002B070BD624C2368597AEF
:1010C0009A7A8DF80410DB7A8DF8052001A90020AA
:1010D0008DF8063004F0B2FC06F03AFE00285FD12D
:1010E00006F018FE002858D12368DB884FF4004230
:1010F0004FF4FA700021E3FB02014FF47A720023EF
:1011000023F066F8002201464C4814F011F900283B
:10111000D0D013F0DBFBCDE703F0F2FC474814F02E
:1011200061F90028A3D013F0D1FBA0E7424A0123C4
:1011300013702B7003F0A6FCA8B313F0C7FBB3E742
:101140003D4A01231370337003F09CFC002847D004
:1011500013F0BCFB9AE703F01BF900285CD103F005
:10116000B1F908B113F0B2FB364B1B685B884FF442
:1011700000424FF4FA700021E3FB02014FF47A724F
:10118000002323F025F800220146274814F0D0F868
:10119000002882D013F09AFB7FE713F097FBA3E7B8
:1011A00013F094FB9CE703F06FFD05460028C4D1C3
:1011B000244B1B689B884FF400424FF4FA700021C7
:1011C000E3FB02014FF47A72002323F001F82A4670
:1011D0000146174814F0ACF800283FF465AFACE7BF
:1011E00003F052FD06460028B2D1164B1B681B883F
:1011F0004FF400424FF4FA700021E3FB02014FF478
:101200007A72002322F0E4FF32460146054814F0CA
:101210008FF800289CD139E713F058FB9FE700BFF7
:10122000D84C0020684D0020884D0020644D0020DF
:10123000244D0020CC4D0020214D0020AC4D00203D
:10124000DC4C00201C4D0020F0B591B00024054678
:101250000026002738483949394A3A4B8DF808406A
:101260008DF8094004948DF814408DF80740ADF8CE
:101270000C40ADF80E40CDE9066700F055FB0028A4
:1012800045D1002D48D12D4C22681388643B9BB278
:101290004EF6FC118B4216D85388323B9BB24EF669
:1012A0002E2083420FD89388643B9BB28B420AD88E
:1012B000D388C83B9BB24EF698118B4203D8137A61
:1012C000013B022B03D91C4800F0D8FA08BB0021CF
:1012D0001C2209A8FEF736F822681B4B0E9206ACBA
:1012E00003AA09A919480D9402AF04AE0DF1070530
:1012F0000F9309970A960B950C920DF0FFFF0F4B79
:10130000044620B9186810B1FFF790FE204611B0CE
:10131000F0BD13F0DBFADAE7074800F0AFFA38B9AE
:10132000074800F0D7FA0028ADD013F0CFFAAAE7AB
:1013300013F0CCFAF4E700BFC85404001C4D0020A1
:10134000D8540400D44C002051130200DC4C00207F
:1013500030B5044683B0154605291AD8DFE801F0F8
:10136000032F557F9C1B90F83630002B00F0F38044
:101370009A499B4A01230B70137003F083FB30B929
:1013800003F082FC0446002800F00581204613F09B
:101390009DFA03B030BD0C2B02D0002013F096FA5A
:1013A000284600F06BFA002840F0EC80002D00F099
:1013B0000A812846FFF73AFE0028EAD0E7E790F8CE
:1013C0003730002B00F09B8002F0E2FF002840F055
:1013D000FF8003F077F8002840F0DA80814B1B682B
:1013E0005B884FF400424FF4FA700021E3FB0201E6
:1013F0004FF47A72002322F0EBFE002201467A4875
:1014000013F096FF0028C4D0C1E790F83830002BC5
:1014100000F081807549724A01230B70137003F04C
:1014200031FB0028B3D103F02FFC04460028ADD1D6
:101430006C4B1B689B884FF400424FF4FA700021FC
:10144000E3FB02014FF47A72002322F0C1FE224630
:101450000146674813F06CFF00289AD097E790F890
:101460003930002B71D05F4B1B681B7A032B96BF62
:10147000604A0220D05C02F061F80246002886D162
:101480005D4B5E4801244FF061711C7013F050FFFA
:1014900000283FF47EAF7AE790F83A30002B64D012
:1014A000504C2368597A9A7A8DF80410DB7A8DF8BB
:1014B000052001A900208DF8063004F0BFFA06F0DF
:1014C00047FC002840F0818006F024FC00285CD115
:1014D0002368DB884FF400424FF4FA700021E3FBED
:1014E00002014FF47A72002322F072FE00220146BC
:1014F000434813F01DFF00283FF44BAF47E73A483D
:1015000013F070FF00287FF442AF02F097FF00282D
:101510003FF43FAF3BE7354A94F836403448137008
:1015200013F060FF00287FF432AF002C7FF431AF5E
:10153000344B2B4A1B781470002B7FF42AAF03F036
:10154000DFFA00283FF425AF21E7FFF7C3FB0028AF
:101550003FF41FAF1BE7214A94F838402A48137024
:1015600013F040FF0028E0D011E7254813F03AFFC0
:1015700088BB002004F0EAF806F040FC00283FF4A5
:1015800008AF04E713F0A2F910E713F09FF99FE703
:1015900013F09CF922E7134B1B681B884FF40042A1
:1015A0004FF4FA700021E3FB02014FF47A7200233A
:1015B00022F00EFE22460146134813F0B9FE002821
:1015C0007FF4E5AEE5E60E20E1E613F07FF97BE778
:1015D00013F07CF9FDE613F079F9CAE7D84C002046
:1015E000214D00201C4D0020884D0020644D00201E
:1015F000244D002030550400204D0020444D002093
:10160000AC4D0020CC4D0020684D002008B5204B8B
:10161000204800221A7013F0E5FE08B113F056F9C5
:101620001D4813F0DFFE70B313F050F91B4B1C483C
:1016300000221A7013F0D6FED8B91A4B1A4A1B783A
:10164000107093B1194813F0CDFEC8B9002004F012
:101650007DF806F0D3FB08B113F038F9FFF73AFB39
:1016600008B113F033F9002008BD03F049FA00284F
:10167000E8D013F02BF90D4813F0B4FE0028E5D0A4
:1016800013F024F9E2E702F0D9FE0028CED0CBE730
:10169000D84C0020684D0020884D0020644D00206B
:1016A000244D0020CC4D0020214D0020AC4D0020C9
:1016B00010B50446014607480DF00CFD2388112B98
:1016C00000D010BDFFF7A2FF0028FAD0BDE81040FF
:1016D00013F0FCB8DC4C002000285DD000295BD062
:1016E00070B53B4A3B4B426086B003600B683A4A98
:1016F00002930C465C2639498DF8006017250123BA
:1017000068460195039104928DF8143002F004FEAE
:10171000002859D12168324A324B02915F251821A5
:1017200068468DF8005001910392049303F05CF930
:10173000002846D122682C492C4B009268465A2238
:1017400001918DF80820039302F04CF908B113F0D1
:10175000BDF822682649274B00926846382201913D
:101760008DF80820039306F089FA08B113F0AEF85B
:101770002148224A012113F0C9FDF8B92048214A25
:10178000012113F0C3FDB0B91F48204A012113F015
:10179000BDFD18B106B070BD0E2070471C481D4A33
:1017A000012113F0B3FD0028F4D11B4A1B4801218D
:1017B00013F0ACFDEEE713F089F8E5E713F086F8D7
:1017C000DCE713F083F8B5E713F080F8A2E700BF79
:1017D000B116020049120200D10E0200F4540400B6
:1017E000E4540400290F020004550400FD0D02001A
:1017F00018550400250E020028550400CD0D0200E6
:10180000D4540400E90D0200E0540400B10D0200BC
:1018100014550400790D02005D0E02002C550400E1
:10182000037893B1012B0DD14268CAB9828941F284
:1018300001018A4211D041F203018A4204D10B4ACC
:1018400013707047406870B97047436843B90849DE
:10185000084A01230B7013707047074A13707047D2
:10186000002013F033B813F031B800BFF94D002059
:10187000E84D0020F84D0020CD4D002018B3F0B504
:10188000124C87B001460427201D0C2222F0C0FF15
:1018900041F201064FF0420E0DEB0702012341F227
:1018A000020503A90A480194C4F800E0ADF80870E5
:1018B000ADF80C60ADF80E500492ADF8143015F090
:1018C00057FA07B0F0BD0E20704700BFFC4D002056
:1018D000EC4D002010B3F0B5114C87B00146082242
:1018E000201D22F095FF03274FF0420E01AA01238D
:1018F00041F2030641F2040503A90A480194C4F821
:1019000000E0ADF80870ADF80C60ADF80E50049230
:10191000ADF8143015F02CFA07B0F0BD0E2070476A
:10192000DC4D0020D04D002070B16AB12DE9F04FA0
:10193000044687B06D481E4615460F4614F0F4FE67
:1019400020B107B0BDE8F08F0E20704714F000FF03
:101950000028F6D1DFF8B481DFF8B49101E013F08C
:101960005BF898F80030002BF9D099F80030002B84
:10197000F5D00021082201A8FDF7E4FC01AB41F2FB
:10198000010041F202015A4A15F022FB002800F042
:1019900082800A28D5D10DF10C08DFF868A1DFF8A4
:1019A00074910AF1040B21460C22584622F030FFB4
:1019B000422000214FF0040E41F2010441F20202E4
:1019C0004FF0010C0DEB0E03CAF8000089F800106F
:1019D0004748CDF804A041460493ADF808E0ADF8BF
:1019E0000C40ADF80E20ADF814C015F07BF80028BF
:1019F000A7D199F80030C7F800B02BB913F00CF854
:101A000099F80030002BF9D00021082201A8FDF739
:101A100099FC41F2030041F20401364A01AB15F092
:101A2000D7FA002842D00A288BD1334F334C07F124
:101A3000040929460822484622F0EAFE41F203053D
:101A400041464FF0000C4FF042084FF0030E41F2B8
:101A500004024FF0010A01AB264801970493C7F82E
:101A6000008084F800C0ADF808E0ADF80C50ADF887
:101A70000E20ADF814A015F035F800287FF461AF02
:101A80002378C6F8009023B912F0C6FF2378002B04
:101A9000FAD0002055E70DF10C084146144814F027
:101AA000D9FFB0B10A287FF44CAF76E71148414620
:101AB00014F0D0FF0028B6D10F4804990C2222F070
:101AC000A7FE0C4814F0EAFF0028ACD10C4B3360A1
:101AD00037E70C480499102222F09AFE044814F0CB
:101AE000DDFF0028DED1084B3B608DE721180200A6
:101AF000EC4D0020D04D0020DC4D0020F94D0020A1
:101B0000E04D0020FC4D0020004E0020E84D00205C
:101B1000F84D0020CD4D002008B50146B0F88420D6
:101B2000024810F005F9002008BD00BF0C4E00204F
:101B300010B584B002A800210822FDF703FC04AB15
:101B4000012203F80C2D02A9044C054802938DF8DC
:101B5000052003940FF066FF04B010BD891B02003E
:101B60000C4E0020012802D008D3022803D10146E0
:101B7000044810F00DB9002012F0A8BE0148002161
:101B800010F006B90C4E002000B5012983B013D027
:101B90001FD302291AD12549097802293AD00129EF
:101BA00028D0032901D1012B2ED02148112103B0C7
:101BB0005DF804EB10F0ECB8022B04D00020019289
:101BC00012F084FE019A194B12781A7003B05DF876
:101BD00004FB90F8263043B107F028FD0028F5D02B
:101BE00003B05DF804EB12F071BE07F039FD002878
:101BF000ECD0F5E7052BD8D110885188127906F082
:101C00008BFB0028E2D0D0E7107806F00DFB00280F
:101C1000DCD0CAE71046194606F022FA042802D0A2
:101C20000028D3D0DCE702481021C0E7074300209A
:101C30000C4E002010B50446014607480FF048FE40
:101C40002388112B00D010BD07F00AFD0028FAD020
:101C5000BDE8104012F03ABE0C4E002098B100B51D
:101C600083B0034602A80D4A40F8042D0C490D4AE2
:101C700059601A6006F0E2FB38B90B4807F00CFD1A
:101C800003B05DF804FB0E20704712F01FFE0648FB
:101C900007F002FD03B05DF804FB00BF651B020006
:101CA000351C0200311B0200191B02002DE9F04314
:101CB000037887B00C46082B17D8DFE813F019001B
:101CC0009E00B200C300F3000201140126010900C6
:101CD000082A02D0002012F0F9FD94E80C00B24866
:101CE000019201A902930FF079FC07B0BDE8F083DF
:101CF000242A02D0002012F0E9FD266833141E2B9E
:101D000000F31F812033C0F24C81D4F804C04FEAA5
:101D10002C431E2B00F310812033C0F23E81D4F8F7
:101D200008E04FEA2E431E2B00F301812033C0F25E
:101D30003081E76840F2FE323B14934200F3F480B6
:101D400013F5806FC0F22181226940F2FE31131435
:101D50008B4200F3FD8013F5806FC0F2128163693E
:101D600040F2FE301914814200F3EF8011F5806FCC
:101D7000C0F20381A16940F2FE750814A84200F385
:101D8000EA8010F5006FC0F2F480E56940F2FE7859
:101D90002814404500F3C58010F5006FC0F2E580BF
:101DA000206A40F2FE794FEA2048C84540F3D680C9
:101DB0007E482062091349420413B6114FEAAC1C55
:101DC0004FEAAE1EFF12D212DB122D13ADF8121025
:101DD0007548ADF8046001A9ADF806C0ADF808E09B
:101DE000ADF80A70ADF80C20ADF80E30ADF810501B
:101DF000ADF814400FF020FC77E7102A02D0002045
:101E000012F064FD94E82200A268E368019166483C
:101E1000029501A9039204930FF0B4FB07B0BDE84B
:101E2000F0830C2A02D0002012F050FD94E80E003E
:101E30005D48019101A9029203930FF029FC07B0BC
:101E4000BDE8F083242A02D0002012F03FFDB4F94F
:101E50000210B4F90680B4F90AC0B4F90EE0B4F97E
:101E60001270B4F91660B4F91A50B4F91E20B4F91E
:101E70002230ADF804104C48ADF8068001A9ADF849
:101E800008C0ADF80AE0ADF80C70ADF80E60ADF822
:101E90001050ADF81220ADF814300FF025FC07B04B
:101EA000BDE8F083042A02D0002012F00FFD06A93D
:101EB000236841F8143D3C480FF042FC07B0BDE8F0
:101EC000F0830C2A02D0002012F000FD2168626825
:101ED000A36801913448029201A903930FF05EFCBC
:101EE00007B0BDE8F083022A02D0002012F0EEFC19
:101EF000227863782C488DF8042001A98DF80530EC
:101F00000FF0E8FA07B0BDE8F083012A02D0002004
:101F100012F0DCFC214624480FF008FB07B0BDE8B6
:101F2000F083224DE5613BE7214FE7600CE74FF47A
:101F3000F813A3609E46FCE64FF4F81363609C46DA
:101F4000EDE64FF4F8162660DFE6194B636111E702
:101F5000174A226103E71549A16116E718F5006FDA
:101F6000BCBF4FF07840206224E74FF07845E56130
:101F700016E74FF07841A16107E74FF07C436361BA
:101F8000F8E64FF07C422261E9E64FF07C47E760DB
:101F9000DAE6084BA3609E46CBE6064B63609C46A0
:101FA000BDE6044E2660B0E6384E00200000FF0774
:101FB0000000FF030000E0FFF0B587B0092910D84A
:101FC000DFE801F0114374676D4F555B610590F8D0
:101FD0005E308020002B3ED106F022FF08B112F0C7
:101FE00075FC07B0F0BD092B04D00020019212F05F
:101FF0006DFC019A0192104600F004F9019A002844
:102000005BD1002A5DD09078D47811795779937993
:10201000D679157892F801E0127A8DF8142040EA0A
:10202000042445EA0E2541EA072243EA062303A8D1
:10203000ADF80C50ADF80E40ADF81020ADF81230F0
:1020400006F022FF0028CCD0C9E790F856304FF4B4
:102050008070002BC0D006F06FFE0028BFD107B003
:10206000F0BD90F85A300720002BB5D0F3E790F878
:102070005B301020002BAFD0EDE790F85C302020D3
:10208000002BA9D0E7E790F85D304020002BA3D0CB
:10209000E1E790F858300820002B9DD0DBE790F85E
:1020A00059304FF48060002B96D0D4E790F8573029
:1020B0004FF40070002B8FD0CDE712F007FC019A8F
:1020C0009FE70E208BE700BF10B504460146084885
:1020D0000EF07AFB2388112B00D010BD40F6FF7064
:1020E00006F09EFE0028F8D0BDE8104012F0EEBBCE
:1020F000384E002010B51D4984B004461C4800F03D
:10210000ADF828BB4CBB194C23681BB31A88ADF83B
:1021100004205A88ADF806209A88ADF80820DA889D
:10212000ADF80A201B7A8DF80C3001A806F0ACFE41
:1021300008B112F0CBFB0021082201A8FDF702F93B
:1021400022680C4B0C48019201A902930EF0DEFCB0
:1021500004B010BD0E2004B010BD054800F052F8C8
:102160000028D0D012F0B2FBCDE700BF9C4E00207B
:1021700044550400B91F0200384E002006F030BF5D
:10218000A0B199B130B50A4A0A4B426085B00360EC
:102190000B68094D094C0A480093694602AA02934C
:1021A0000195039406F01EFF05B030BD0E20704768
:1021B000C9200200F52002003455040050550400E7
:1021C000AD1C020003786BB1012B08D142687AB9CB
:1021D0008289B2F5405F04D1084A137070474068A5
:1021E00048B9704743681BB9054B01221A70704704
:1021F000002012F06BBB12F069BB00BFA04E0020A4
:10220000B04E002018B3F0B5124C87B00146042739
:10221000201D092222F0FCFA4FF440564FF0420EE6
:102220000DEB0702012343F2010503A90A480194BB
:10223000C4F800E0ADF80870ADF80C60ADF80E50D1
:102240000492ADF8143014F093FD07B0F0BD0E20E9
:10225000704700BFB44E0020A44E002000285ED07E
:102260002DE9F047044686B038480E4614F05CFA73
:1022700010B106B0BDE8F08714F06AFA0028F8D172
:10228000334D2B7823B912F0C7FB2B78002BFAD0F3
:102290000021082201A8FDF755F801AB4FF440508A
:1022A00043F201012B4A14F093FE0DF10C080028B3
:1022B00037D0294FDFF8A890284D214609224846FB
:1022C00022F0A6FA4FF0040E41464FF0420C4FF0B8
:1022D00000084FF4405443F201024FF0010A0DEBA5
:1022E0000E031C480197049385F80080C7F800C0CE
:1022F000ADF808E0ADF80C40ADF80E20ADF814A034
:1023000014F0F0FB0028B4D12B78C6F8009023B964
:1023100012F082FB2B78002BFAD00020A9E70E20C8
:10232000704741460B480C4F14F094FB0028C1D174
:1023300004993846102222F06BFA064814F0AEFBDE
:102340000028B7D10437376093E700BFC5210200EA
:10235000B04E0020A44E0020B44E0020A04E00201D
:10236000B84E00200B78F3B14FF0A0434FF4802219
:10237000C3F808254B78FBB14FF0A0434FF400227F
:10238000C3F808258B7803B34FF0A0434FF48012B5
:10239000C3F80825CB780BBB4FF0A0434FF40012D5
:1023A000C3F80C2570474FF0A0434FF48022C3F8C8
:1023B0000C254B78002BDFD14FF0A0434FF40022C7
:1023C000C3F80C258B78002BDED14FF0A0434FF4DF
:1023D0008012C3F80C25CB78002BDDD04FF0A04342
:1023E0004FF40012C3F80825704700BF10B5134919
:1023F00084B00446124800F0A3FAA0B9ACB90F4B60
:10240000104C1B68104A019310480294002369463F
:102410008DF800308DF801308DF802308DF80330E2
:1024200003920EF043F804B010BD054800F05EFAC8
:102430000028E4D012F04AFAE1E700BFC44E0020C1
:10244000705504007D24020065230200144F002013
:102450000B2800D0704708B50748828B4FF6FF73F2
:102460009A4208D00EF07AF930F0080303D0BDE8A4
:10247000084012F02BBA08BD144F0020F0B5434CB1
:1024800023688B428BB003D0084600F02FFA2368F4
:1024900018681A79019001201D785F789E788DF870
:1024A000082003F053F9034668B92268127842B154
:1024B000012D0ED0022D44D0032D1ED0012012F08C
:1024C00005FA0BB0F0BD0628FBD0184612F0FEF955
:1024D000F7E79DF8073007B986B3012003A98DF807
:1024E0000C708DF80D608DF80E3003F0A7FA0628F9
:1024F000E7D00028EAD10BB0F0BD07EE906A9FED5F
:10250000247A0390F8EEE77A0AA967EE877A01F851
:102510001C7DFCEEE77A232617EE902A4FF4FA652D
:102520004FF4FA7401200593069307938DF8142055
:1025300004960895099403F009FBD8E7002BCCD149
:10254000BFE707EE906A9FED127A0390F8EEE77A04
:102550000AA967EE877ABDF807E001F81C7DFCEE5A
:10256000E77A232617EE902A4FF4FA654FF4FA74AF
:102570000120059307938DF81420CDF818E00496F8
:102580000895099403F0E2FAB1E700BFC44E0020B9
:102590003333234000284FD0F0B504468BB0584861
:1025A00021460DF0A7FE2388102B26D0112B22D117
:1025B000012003F0CBF8034600283ED1514A1268AF
:1025C0001278C2B10AA904220390232701F81C2D16
:1025D0004FF4FA664FF4FA75332440F6AC520120FA
:1025E000059307930497089609958DF81440069271
:1025F00003F0ACFAE0B90BB0F0BD424C2368F3B184
:1026000018681A79019001201D785F789E788DF8FE
:10261000082003F09BF8034678B922681278002A54
:10262000E9D0012D0ED0022D42D0032D1DD0012066
:1026300012F04CF90BB0F0BD70471846F8E793E87C
:102640000300FFDE9DF8073017B90EB9002BD2D07A
:10265000012003A98DF80C708DF80D608DF80E30F7
:1026600003F0ECF90028C6D0E2E707EE906A9FED90
:10267000267A0390F8EEE77A0AA967EE877A01F8DE
:102680001C7DFCEEE77A232617EE902A4FF4FA65BC
:102690004FF4FA7401200593069307938DF81420E4
:1026A00004960895099403F051FA0028A3D0BFE7D7
:1026B00007EE906A9FED147A0390F8EEE77A0AA984
:1026C00067EE877ABDF807E001F81C7DFCEEE77A3B
:1026D000232617EE902A4FF4FA654FF4FA7401207E
:1026E000059307938DF81420CDF818E0049608950B
:1026F000099403F02BFA00283FF47DAF98E700BF60
:10270000144F0020C44E002033332340F0B589B06D
:1027100030B3012804463FD0012003F017F80346E8
:1027200018BB2A4A12681278BAB108A9012001938D
:1027300001F81C0D23274FF4FA664FF4FA75332481
:1027400040F26B32039305930297069607958DF836
:102750000C40049203F0FAF940B9002009B0F0BD32
:10276000012002F0F3FF034610B1184609B0F0BD96
:10277000164A12681278002AEFD008A902220190A6
:10278000232701F81C2D4FF4FA664FF4FA75332411
:1027900040F6AC520120D5E702F0D8FF03460028EE
:1027A000E3D10A4A12681278002AD6D008A9042276
:1027B0000190232701F81C2D20464FF4FA664FF4B0
:1027C000FA75332440F6AC52BCE700BFC44E00207B
:1027D00070B5304C304B3E2222700A68626084B083
:1027E000A36000284BD02D4A2D4B426003600FF0B0
:1027F00071FB00283ED02B48012140F2666211F0A7
:10280000F7FF00283ED012F061F8274D0294042211
:10281000022410236846002100958DF804408DF8AD
:1028200005208DF80C3003F0D5FA80BB002002F0B3
:102830008DFF012002F08AFF4FF0A04303224FF4E6
:1028400080264FF400254FF480144FF4001100202F
:10285000C3F84827C3F84C27C3F85027C3F85427B8
:10286000C3F80C65C3F80C55C3F80C45C3F80C1538
:1028700004B070BD0FF0E0FA0028BCD0C3E70E2012
:1028800004B070BD12F00CF80028BED0BBE712F007
:102890001DF8CBE7E84E00206055040095250200A6
:1028A000ED230200885504007855040003786BB1CD
:1028B000012B08D142687AB98289B2F5804F04D1E0
:1028C000084A13707047406848B9704743681BB99D
:1028D000054B01221A707047002011F0F7BF11F06C
:1028E000F5BF00BF544F0020644F002010B3F0B577
:1028F000114C87B001460522201D21F089FF0327D6
:102900004FF0420E01AA01234FF4804644F2010524
:1029100003A90A480194C4F800E0ADF80870ADF8C6
:102920000C60ADF80E500492ADF8143014F020FA9B
:1029300007B0F0BD0E207047684F0020584F0020B0
:1029400000285DD02DE9F047054686B037480C4693
:1029500013F0EAFE10B106B0BDE8F08713F0F8FE00
:102960000028F8D1324E337823B912F055F8337875
:10297000002BFAD00021082201A8FCF7E3FC01ABF0
:102980004FF4804044F201012A4A14F021FB002850
:1029900038D00A28DFD1284F284E07F104082946ED
:1029A0000522404621F034FF4FF042094FF0000C61
:1029B0004FF0030E4FF4804544F201024FF0010A3C
:1029C00001AB1C48019703A90493C7F8009086F84F
:1029D00000C0ADF808E0ADF80C50ADF80E20ADF831
:1029E00014A014F07FF80028B5D13378C4F8008023
:1029F00023B912F011F83378002BFAD00020AAE79F
:102A00000E2070470B4803A914F024F80028C0D109
:102A1000094804990C2221F0FBFE064814F03EF808
:102A20000028B6D1064A226095E700BFAD28020013
:102A3000644F0020584F0020684F0020544F002062
:102A40006C4F002000B583B00378084A8DF8003041
:102A5000002312688DF80530ADF802308DF804308F
:102A60006846904703B05DF804FB00BF784F002034
:102A7000704700BF30B51C4B1C49186885B00090EA
:102A8000684611F08DF860B1082804D011F01EFFDF
:102A900011F0E0F908B905B030BD11F017FF05B02D
:102AA00030BD134A8DF80400D5788DF80500052255
:102AB000012401A98DF807008DF809008DF80C009C
:102AC0008DF80B508DF80A408DF806208DF80820FF
:102AD00011F034F90028D7D12146064811F058F9F1
:102AE0000028D1D1D4E700BF90550400892C020002
:102AF0007C4F00209C4F002000B54FF0A041114AB0
:102B0000D1F810351079C340D80783B015D5D1F866
:102B100010355279D340DB074CBF042303238DF8D3
:102B200007300DF107000121074A11F00DFF08B130
:102B300011F0CCFE03B05DF804FB05238DF80730DF
:102B4000EFE700BF7C4F0020452A020010B582B09D
:102B50000A4601460DF1020021F05AFE1F4ABDF857
:102B600002301089012198428DF8051007D2518951
:102B7000994203D802218DF8001002E000218DF85F
:102B80000010D08A117E154C1B1A93FBF1F31BB277
:102B9000002B21DBA18A99420EDD1148D169027810
:102BA000C95C8DF8041052B90E4B19700E4B684673
:102BB0001B68984702B010BD4B1E1BB2EDE70B48D7
:102BC00015F08CFA30F00802F0D043F20142904246
:102BD000ECD011F07BFEE9E70023DEE77C4F00201C
:102BE000A44F002018430020784F0020C84F002039
:102BF000F0B587B00021142201A8FCF7A3FB9DF8D3
:102C000011509DF812209DF814309DF8136017495B
:102C1000DFF864E009788DF81010012464F30305EF
:102C200064F3030264F3030306F0F00664F307158C
:102C300064F3071264F307136FF3071600270C48B9
:102C40008DF8115001A98DF808408DF812208DF8EB
:102C500014308DF81360CDF804E0039715F06AF98D
:102C600008B9044B1C7007B0F0BD00BF184300202A
:102C7000C84F0020A44F0020712A020001460148DD
:102C800015F02AB9C84F002030B50378022B85B063
:102C90004AD01BB110F0D4FF05B030BD4368B3F982
:102CA000000020F0C3FD9FED241B9FED250B044683
:102CB0000D461CF079FB29A3D3E9002351EC100B3E
:102CC00020F02AFE02460B462046294620F04EFF01
:102CD00021F004F91C4B9FED1D7AD3ED007A1C4BBB
:102CE0001C4A06EE900AC6EEA77A04A8022167EEF7
:102CF000877AFCEEE77ACDED017ABDF80440053421
:102D000083FB0453E417C4EBA30303EB83035B00CF
:102D100020F8023D11F018FE0028BBD011F0D6FDBE
:102D200010F08EFF05B030BD0B4B00221A7010F072
:102D300087FF05B030BD00BF000000000000244048
:102D40000000000000000040A04F002000007A4476
:102D5000676666664D2B0200744F0020000000A0DD
:102D6000AAAAFA3F312836D930B52C4CA37985B0C0
:102D7000054653BB2A4B2B4918680090684610F053
:102D80000FFF50B3082806D011F0A0FD11F062F833
:102D900008B111F09BFD2448244A012112F0B6FA33
:102DA000044680B94FF400434FF4FA700021E3FB6E
:102DB00005014FF47A72002321F00AFA22460146F7
:102DC0001B4812F0B5FA05B030BDE07903F002FA05
:102DD0000028CFD0F7E701207047E2788DF80B206C
:102DE0000124052201A98DF804008DF805008DF855
:102DF00007008DF809008DF80C008DF80A408DF859
:102E000006208DF8082010F099FF0028BAD121463D
:102E1000084810F0BDFF0028B4D1B7E77C4F002070
:102E200090550400892C020094550400752A020074
:102E3000A84F00209C4F0020002832D0002930D01D
:102E4000F0B5514A514B426003600F6883B0002FC8
:102E500000F08F800B6933BB4B69002B40F08680FC
:102E60004B4B4FF07E521A60CA898B899A427DD3B0
:102E70000C1D0FCC474EDFF830C135460FC594E826
:102E80000F0096F806E0CCF8007085E80F00344695
:102E9000BEF1000F1ED0F07903F07EF9A8B103B0A7
:102EA000F0BD0E2070474A69002A5FD0134407EE38
:102EB000903A07EE102AF8EE677AB8EE477A344B6C
:102EC000C7EE277AC3ED007ACEE7F07903F0A2F9D6
:102ED0000028E4D162794FF0A04302F5E0720021AE
:102EE00043F82210227902F5E07243F82210A2780A
:102EF00002F5E07243F822100EF0ECFF00283BD000
:102F000002AD032305F8043D2079234A0023294616
:102F10008DF806308DF807308DF805300EF0E4FF9F
:102F200008B111F0D3FC207901210FF0C7F86079C6
:102F300001210FF0C3F8194B194918680190284670
:102F400010F02EFE0028AAD1164C0123237010F099
:102F500099FF0028A3D1237803F0FF00002B9ED017
:102F6000237803F0FF00002BF5D198E7012003B090
:102F7000F0BD0E2003B0F0BD0EF05EFF0028BFD004
:102F800011F0A4FCBCE700BF7D2C0200F12B020075
:102F9000A04F00207C4F0020F92A02009055040029
:102FA000892C0200744F0020784F0020162800D092
:102FB000704708B54FF0A043D3F81005C0F3805018
:102FC00000B108BD0146044A11F0BEFC0028F8D04B
:102FD000BDE8084011F07ABCDD2F020030B55B4D32
:102FE0005B4C2A6883B0142300BF00BF00BF00BF42
:102FF00000BF00BF00BF00BFA2422FD000BF00BF74
:1030000000BF00BF00BF00BF00BF00BF00BF00BFC8
:1030100000BF00BF00BF00BF00BF00BF00BF00BFB8
:1030200000BF00BF00BF00BF00BF00BF00BF00BFA8
:1030300000BF00BF00BF00BF00BF00BF00BF00BF98
:1030400000BF00BF00BF00BF00BF00BF00BF00BF88
:1030500000BF00BF00BF00BF00BF00BF013BC3D126
:103060000C2003F0D7F8B8B111F030FC0420394936
:1030700000F050FF002858D10DF1070001F0AAF828
:1030800001F00AF900285AD011F020FC324B3148E7
:103090001B68984703B030BD32232A6800BF00BFC9
:1030A00000BF00BF00BF00BF00BF00BFA2422FD0C3
:1030B00000BF00BF00BF00BF00BF00BF00BF00BF18
:1030C00000BF00BF00BF00BF00BF00BF00BF00BF08
:1030D00000BF00BF00BF00BF00BF00BF00BF00BFF8
:1030E00000BF00BF00BF00BF00BF00BF00BF00BFE8
:1030F00000BF00BF00BF00BF00BF00BF00BF00BFD8
:1031000000BF00BF00BF00BF00BF00BF00BF00BFC7
:10311000013BC3D1114800F04FFE0028A4D1042088
:103120000C4900F0F7FE0028A6D011F0CFFB0DF1FE
:10313000070001F04FF801F0AFF80028A4D10C20EF
:1031400003F048F800289FD1A0E700BFDC4300202F
:103150000024F400F44F0020E44F0020E84F00204A
:10316000F0B54F4F4F4C3A6883B0142306460D46D6
:1031700000BF00BF00BF00BF00BF00BF00BF00BF57
:10318000A2422FD000BF00BF00BF00BF00BF00BFE2
:1031900000BF00BF00BF00BF00BF00BF00BF00BF37
:1031A00000BF00BF00BF00BF00BF00BF00BF00BF27
:1031B00000BF00BF00BF00BF00BF00BF00BF00BF17
:1031C00000BF00BF00BF00BF00BF00BF00BF00BF07
:1031D00000BF00BF00BF00BF00BF00BF00BF00BFF7
:1031E00000BF00BF013BC3D10C2003F013F808B1AE
:1031F00003B0F0BD32233A6800BF00BF00BF00BF7C
:1032000000BF00BF00BF00BFA2422FD000BF00BF61
:1032100000BF00BF00BF00BF00BF00BF00BF00BFB6
:1032200000BF00BF00BF00BF00BF00BF00BF00BFA6
:1032300000BF00BF00BF00BF00BF00BF00BF00BF96
:1032400000BF00BF00BF00BF00BF00BF00BF00BF86
:1032500000BF00BF00BF00BF00BF00BF00BF00BF76
:1032600000BF00BF00BF00BF00BF00BF013BC3D114
:103270000D4800F0A1FD0028BAD13046294600F0E3
:10328000D1FE0028B4D10DF1070000F0A3FF01F03A
:1032900003F80028ACD10C2002F09CFFA8E700BF87
:1032A000DC4300200024F400E84F002070B54E4DB0
:1032B0004E4C2A6882B01423064600BF00BF00BFF0
:1032C00000BF00BF00BF00BF00BFA2422FD000BFA1
:1032D00000BF00BF00BF00BF00BF00BF00BF00BFF6
:1032E00000BF00BF00BF00BF00BF00BF00BF00BFE6
:1032F00000BF00BF00BF00BF00BF00BF00BF00BFD6
:1033000000BF00BF00BF00BF00BF00BF00BF00BFC5
:1033100000BF00BF00BF00BF00BF00BF00BF00BFB5
:1033200000BF00BF00BF00BF00BF00BF00BF013B28
:10333000C3D10C2002F06EFF08B102B070BD322381
:103340002A6800BF00BF00BF00BF00BF00BF00BFB2
:1033500000BFA2422FD000BF00BF00BF00BF00BF10
:1033600000BF00BF00BF00BF00BF00BF00BF00BF65
:1033700000BF00BF00BF00BF00BF00BF00BF00BF55
:1033800000BF00BF00BF00BF00BF00BF00BF00BF45
:1033900000BF00BF00BF00BF00BF00BF00BF00BF35
:1033A00000BF00BF00BF00BF00BF00BF00BF00BF25
:1033B00000BF00BF00BF013BC3D10D4800F0FCFCC3
:1033C0000028BAD1304600F08BFE0028B5D10DF1AF
:1033D000070000F0FFFE00F05FFF0028ADD10C20D9
:1033E00002F0F8FEA9E700BFDC4300200024F4004F
:1033F000E84F002070B54E4D4E4C2A6882B0142321
:10340000064600BF00BF00BF00BF00BF00BF00BF37
:1034100000BFA2422FD000BF00BF00BF00BF00BF4F
:1034200000BF00BF00BF00BF00BF00BF00BF00BFA4
:1034300000BF00BF00BF00BF00BF00BF00BF00BF94
:1034400000BF00BF00BF00BF00BF00BF00BF00BF84
:1034500000BF00BF00BF00BF00BF00BF00BF00BF74
:1034600000BF00BF00BF00BF00BF00BF00BF00BF64
:1034700000BF00BF00BF013BC3D10C2002F0CAFE59
:1034800008B102B070BD32232A6800BF00BF00BF80
:1034900000BF00BF00BF00BF00BFA2422FD000BFCF
:1034A00000BF00BF00BF00BF00BF00BF00BF00BF24
:1034B00000BF00BF00BF00BF00BF00BF00BF00BF14
:1034C00000BF00BF00BF00BF00BF00BF00BF00BF04
:1034D00000BF00BF00BF00BF00BF00BF00BF00BFF4
:1034E00000BF00BF00BF00BF00BF00BF00BF00BFE4
:1034F00000BF00BF00BF00BF00BF00BF00BF013B57
:10350000C3D10D4800F058FC0028BAD1304600F075
:1035100013FE0028B5D10DF1070000F05BFE00F0AE
:10352000BBFE0028ADD10C2002F054FEA9E700BF7D
:10353000DC4300200024F400E84F0020F0B5854B68
:103540001A7885B06ABB01221A70032800F25F81E5
:10355000DFE810F0F800FD00FB002A001B0700F177
:1035600061810DF10704204600F066FC0446C8B9ED
:10357000284600F02FFE9DF8073043F008031E4355
:10358000214630468DF8076000F07AFC50B9284695
:1035900000F020FE00F080FE20B90C2002F01AFEA0
:1035A00000B9002005B0F0BD30260EF093FC20B924
:1035B0000EF042FC002840F0338104AD032405F8EE
:1035C000084D002329461620634A8DF809408DF8DE
:1035D0000A308DF80B300EF087FC08B111F076F947
:1035E0000A2002F0F7FD0028FAD10C2002F012FEAA
:1035F000002840F012810B2002F0ECFD002840F082
:103600000981564F564C3A6847F2305300BF00BF0D
:1036100000BF00BF00BF00BF00BF00BFA2422FD04D
:1036200000BF00BF00BF00BF00BF00BF00BF00BFA2
:1036300000BF00BF00BF00BF00BF00BF00BF00BF92
:1036400000BF00BF00BF00BF00BF00BF00BF00BF82
:1036500000BF00BF00BF00BF00BF00BF00BF00BF72
:1036600000BF00BF00BF00BF00BF00BF00BF00BF62
:1036700000BF00BF00BF00BF00BF00BF00BF00BF52
:10368000013BC3D1162001210EF018FD14233A6826
:1036900000BF00BF00BF00BF00BF00BF00BF00BF32
:1036A000A2422FD000BF00BF00BF00BF00BF00BFBD
:1036B00000BF00BF00BF00BF00BF00BF00BF00BF12
:1036C00000BF00BF00BF00BF00BF00BF00BF00BF02
:1036D00000BF00BF00BF00BF00BF00BF00BF00BFF2
:1036E00000BF00BF00BF00BF00BF00BF00BF00BFE2
:1036F00000BF00BF00BF00BF00BF00BF00BF00BFD2
:1037000000BF00BF013BC3D10C2002F083FD48B3D2
:1037100011F0DCF800F086FD00286AD1284600F0A0
:1037200059FD0DF1060000F05FFB00286CD1284622
:1037300000F050FD9DF806301A063FF50FAF082047
:1037400005B0F0BD062005B0F0BD20262DE71026FF
:103750002BE700BFE04F0020AD2F0200DC4300202C
:103760000024F40032233A6800BF00BF00BF00BF4E
:1037700000BF00BF00BF00BFA2422FD000BF00BFEC
:1037800000BF00BF00BF00BF00BF00BF00BF00BF41
:1037900000BF00BF00BF00BF00BF00BF00BF00BF31
:1037A00000BF00BF00BF00BF00BF00BF00BF00BF21
:1037B00000BF00BF00BF00BF00BF00BF00BF00BF11
:1037C00000BF00BF00BF00BF00BF00BF00BF00BF01
:1037D00000BF00BF00BF00BF00BF00BF013BC3D19F
:1037E000174800F0E9FA002892D100F01BFD0028EC
:1037F00094D011F06BF8284600F0ECFC0DF10600B7
:1038000000F0F2FA002892D011F060F88FE707205C
:1038100005B0F0BD11F05AF8F3E611F057F8EAE6FA
:1038200002ADDBE60420294600F074FB28B90DF157
:103830000704204600F0CEFC95E611F047F8F6E7C5
:10384000E84F0020634B187800B9704730B500226C
:1038500083B01620604D1A700EF092FC16200EF008
:10386000BFFC5E4C2A68142300BF00BF00BF00BF2E
:1038700000BF00BF00BF00BFA2422FD000BF00BFEB
:1038800000BF00BF00BF00BF00BF00BF00BF00BF40
:1038900000BF00BF00BF00BF00BF00BF00BF00BF30
:1038A00000BF00BF00BF00BF00BF00BF00BF00BF20
:1038B00000BF00BF00BF00BF00BF00BF00BF00BF10
:1038C00000BF00BF00BF00BF00BF00BF00BF00BF00
:1038D00000BF00BF00BF00BF00BF00BF013BC3D19E
:1038E0000C2002F097FC08B103B030BD32232A68E7
:1038F00000BF00BF00BF00BF00BF00BF00BF00BFD0
:10390000A2422FD000BF00BF00BF00BF00BF00BF5A
:1039100000BF00BF00BF00BF00BF00BF00BF00BFAF
:1039200000BF00BF00BF00BF00BF00BF00BF00BF9F
:1039300000BF00BF00BF00BF00BF00BF00BF00BF8F
:1039400000BF00BF00BF00BF00BF00BF00BF00BF7F
:1039500000BF00BF00BF00BF00BF00BF00BF00BF6F
:1039600000BF00BF013BC3D11D4800F025FA00286D
:10397000BAD10DF1060000F037FA04460028B3D1A1
:103980000DF1070000F026FC9DF90630002B16DB38
:1039900000F082FC0028A7D10C2002F01BFC0028BC
:1039A000A2D10B2002F036FC00289DD10C2002F0A1
:1039B00031FC002898D10A2002F02CFC94E7204624
:1039C000782100F05DFA00288ED10DF1070000F09B
:1039D00001FCDDE7E04F0020DC4300200024F40080
:1039E000E84F0020B8B10368ABB143689BB1C2682F
:1039F0008AB130B55B495C4C8B600568037A4D60D9
:103A000083B00B70226000F0D1F90A2002F0C4FBF1
:103A100018B103B030BD0E2070470B2002F0BCFB84
:103A20000028F6D10C2002F0B7FB0028F1D10A20C3
:103A300002F0D0FB0028FAD10B2002F0CBFB0028CB
:103A4000E7D10C2002F0E6FB0028E2D1474D484CBC
:103A50002A6847F2305300BF00BF00BF00BF00BF5D
:103A600000BF00BF00BFA2422FD000BF00BF00BFF9
:103A700000BF00BF00BF00BF00BF00BF00BF00BF4E
:103A800000BF00BF00BF00BF00BF00BF00BF00BF3E
:103A900000BF00BF00BF00BF00BF00BF00BF00BF2E
:103AA00000BF00BF00BF00BF00BF00BF00BF00BF1E
:103AB00000BF00BF00BF00BF00BF00BF00BF00BF0E
:103AC00000BF00BF00BF00BF00BF013BC3D1142334
:103AD0008DF8060000BF00BF00BF00BF00BF00BFE1
:103AE00000BF00BFA2422FD000BF00BF00BF00BF79
:103AF00000BF00BF00BF00BF00BF00BF00BF00BFCE
:103B000000BF00BF00BF00BF00BF00BF00BF00BFBD
:103B100000BF00BF00BF00BF00BF00BF00BF00BFAD
:103B200000BF00BF00BF00BF00BF00BF00BF00BF9D
:103B300000BF00BF00BF00BF00BF00BF00BF00BF8D
:103B400000BF00BF00BF00BF013BC3D10C2002F08B
:103B500061FB78B100F0A0FB002800F01B8105207C
:103B600057E700BFE84F0020E44F0020DC4300206F
:103B70000024F40032232A6800BF00BF00BF00BF4A
:103B800000BF00BF00BF00BFA2422FD000BF00BFD8
:103B900000BF00BF00BF00BF00BF00BF00BF00BF2D
:103BA00000BF00BF00BF00BF00BF00BF00BF00BF1D
:103BB00000BF00BF00BF00BF00BF00BF00BF00BF0D
:103BC00000BF00BF00BF00BF00BF00BF00BF00BFFD
:103BD00000BF00BF00BF00BF00BF00BF00BF00BFED
:103BE00000BF00BF00BF00BF00BF00BF013BC3D18B
:103BF0006B4800F0E1F80028ACD10DF1060000F0B0
:103C0000BDFA0028A6D10DF1070000F0E3FA9DF8F7
:103C10000640A4F18104B4FA84F4640900F03CFB8A
:103C2000002800F0B880002C99D02A685D4C5E4DC9
:103C3000142300BF00BF00BF00BF00BF00BF00BF14
:103C400000BFA2422FD000BF00BF00BF00BF00BF17
:103C500000BF00BF00BF00BF00BF00BF00BF00BF6C
:103C600000BF00BF00BF00BF00BF00BF00BF00BF5C
:103C700000BF00BF00BF00BF00BF00BF00BF00BF4C
:103C800000BF00BF00BF00BF00BF00BF00BF00BF3C
:103C900000BF00BF00BF00BF00BF00BF00BF00BF2C
:103CA00000BF00BF00BF013BC3D10C2002F0B2FA3D
:103CB00000287FF4AEAE32232A6800BF00BF00BFE9
:103CC00000BF00BF00BF00BF00BFA2422FD000BF97
:103CD00000BF00BF00BF00BF00BF00BF00BF00BFEC
:103CE00000BF00BF00BF00BF00BF00BF00BF00BFDC
:103CF00000BF00BF00BF00BF00BF00BF00BF00BFCC
:103D000000BF00BF00BF00BF00BF00BF00BF00BFBB
:103D100000BF00BF00BF00BF00BF00BF00BF00BFAB
:103D200000BF00BF00BF00BF00BF00BF00BF013B1E
:103D3000C3D11B4800F040F800287FF46AAE0DF1B3
:103D4000060000F051F800287FF463AE0DF1070083
:103D500000F040FA00F0A0FA00287FF45AAE0C20E0
:103D600002F038FA00287FF454AE9DF80630DB06E6
:103D70007FF5F5AE0B2002F04DFA00287FF449AE36
:103D80000C2002F047FA00287FF443AE0A2002F02C
:103D900041FA3EE604460C2002F01CFA43E700BF5D
:103DA000E84F00200024F400DC430020014B0022F7
:103DB0001A607047FC4F002070B50A4D2A680AB19E
:103DC000012070BD064613464068B168FCF77CFDD3
:103DD00004460028F4D170680EF0D4FF2E6020460F
:103DE00070BD00BFFC4F0020F0B5124B85B01B68C2
:103DF00000228DF80F20D3B15F681E78012405469C
:103E000031463846009423460DF10F020EF0E6FFCE
:103E100010B1204605B0F0BD384631462A4623464B
:103E20000FF030F8003018BF012005B0F0BD0120C0
:103E300005B0F0BDFC4F0020F0B5104B85B01B68FD
:103E400001248DF80F405BB15F681E780094054631
:103E5000314638460DF10F0223460EF0BFFF10B178
:103E6000204605B0F0BD384631462A4623460FF0BD
:103E700009F8003018BF012005B0F0BDFC4F00204C
:103E8000084201D00220704750EA0103FAD013F033
:103E9000830FF7D12DE9F0431D4F3B6885B083B107
:103EA00004AA012602F8056DD3F8049093F8008067
:103EB00000960D4604464146484633460EF08EFFB6
:103EC00018B1012005B0BDE8F083484641460DF128
:103ED0000A0233460EF0D6FF0028F2D19DF80A30D0
:103EE0003A681C4324EA05058DF80A50002AE8D0F8
:103EF00053681178009003AA184602238DF80C60CD
:103F00008DF80D500EF06AFF003018BF0120D9E780
:103F1000FC4F002004281ED82DE9F0413F4B1E5CC9
:103F200086B0D6B1C9B13E4B1B6802228DF80F2076
:103F30006BB1D3F804801F7801230D46044639463F
:103F4000404600930DF10F020EF048FF48B10120EA
:103F500006B0BDE8F08102207047022006B0BDE83F
:103F6000F08140463946334604AA0EF08BFF002804
:103F7000EDD1013C032C2CD8DFE804F023140233EC
:103F80009DF810409DF811209DF812109DF81330F7
:103F90009DF814602E7102EB042203EB01232A80AA
:103FA0006B80DBE79DF810409DF811209DF8121002
:103FB0009DF8133002EB042203EB01232A806B806F
:103FC000CCE79DF812209DF8133003EB02236B80A1
:103FD000C4E79DF810209DF8113003EB02232B80DD
:103FE000BCE79DF810E09DF811109DF812709DF847
:103FF00013209DF816609DF817309DF814C09DF8A9
:10400000154085F804C001EB0E2102EB072203EBFB
:10401000062329806A80EB806C719FE79855040025
:10402000FC4F002000B585B00523B0F57A7F8DF8F0
:10403000083003D9022005B05DF804FB01F5C34147
:10404000234B28319942F5D8224BA3FB0023DB08F0
:1040500003EB8302A0EB420080B2072888BF013344
:1040600003385B000428DBB298BF43F001038DF8EE
:104070000930194BCA1783FB0103C2EBA3134FF49A
:104080007A7202FB131140F2ED229142C8BF013354
:104090005B00FA39DBB2B1F5FA7F38BF43F00103B8
:1040A0008DF80B300D4B1B68002000228DF80A00A4
:1040B0008DF80C2053B1586819780092052302AA94
:1040C0000EF08CFE003018BF0120B4E70120B2E7EB
:1040D000F8240100CDCCCCCCD34D6210FC4F002095
:1040E000B0B170B5134B84B01B6811228DF80B2052
:1040F0005BB15E681D780123044629463046009373
:104100000DF10B020EF06AFE20B1012004B070BD6B
:10411000022070473046294603AA02230EF0B2FE61
:104120000028F2D19DF80D209DF80C3003EB0223FE
:104130002380EBE7FC4F002000B50F4B85B01B68D8
:104140008DF80D001122000A8DF80E008DF80C205C
:104150006BB1197858680023009303AA03230EF06B
:104160003DFE003018BF012005B05DF804FB0120C2
:1041700005B05DF804FB00BFFC4F0020B8B1F0B5FE
:10418000134B85B01B6820228DF80F208BB15F6820
:104190001E780124054631463846009423460DF129
:1041A0000F020EF01BFE38B1204605B0F0BD022014
:1041B0007047012005B0F0BD384631462A462346F7
:1041C0000EF060FE003018BF012005B0F0BD00BF4A
:1041D000FC4F0020F0B5124B85B01B68E0228DF833
:1041E0000F20D3B15F681E7801240546314638465A
:1041F000009423460DF10F020EF0F0FD10B12046A1
:1042000005B0F0BD384631462A4623460EF03AFE48
:10421000003018BF012005B0F0BD012005B0F0BD91
:10422000FC4F0020F0B51B4D85B02B68F421002217
:104230008DF80E108DF80F205BB15F681E78012499
:1042400038463146009423460DF10F020EF0C6FDAC
:1042500010B1012005B0F0BD384631460DF10D0218
:1042600023460EF00FFE0028F3D19DF80D30DB063B
:10427000EFD52B68002BECD05A68197800902346B4
:1042800010460DF10E020EF0A9FD003018BF0120FE
:1042900005B0F0BDFC4F002010B5074C23684BB1B2
:1042A00058680EF07FFD236858680EF01BFD002053
:1042B000206010BD012010BDFC4F002000B5074B51
:1042C00083B0002101221B698DF804108DF80520B0
:1042D00001A8984703B05DF804FB00BF0050002020
:1042E00008B50B4B5B68834200D008BD4FF0A0427D
:1042F000D2F81005D84010F00100F6D10146054A69
:1043000010F022FB0028F0D0BDE8084010F0DEBA23
:1043100000500020BD420200E0B18368D3B1C36801
:10432000C3B10369B3B130B5184C037D237503697C
:104330002361037845688168C268237083B00023D5
:1043400020466560A160E260637500F005F918B170
:1043500003B030BD0E2070470DF1070000F020F9CA
:10436000034608B11846F3E700F0E0FA0028EFD161
:1043700000F006F903460028F4D162684FF0A0412E
:1043800002F5E07241F82230E2E700BF0050002061
:10439000274B5A7D0AB10020704730B5012283B007
:1043A0005A755D680DF096FD10B90DF045FD80B9A8
:1043B00002AC032304F8043D2846002321461D4A8D
:1043C0008DF806308DF807308DF805300DF08CFD36
:1043D00008B103B030BD284601210DF06FFE14482E
:1043E00000F0BAF80028F4D1134800F001F90028D1
:1043F000EFD10DF1010000F0CFF90028E9D19DF8CF
:104400000130DA0704D49B070AD400F0B9F8E0E7DA
:10441000204600F0E5F90028DBD19DF80130F2E7F5
:104420000DF1020000F03CFA0028EED0D1E700BF09
:1044300000500020E1420200A055040038B50C4DA8
:10444000687D00B938BD002328466B7500F084F8FC
:1044500000B138BD00F06AFA0028F3D100F090F8FE
:1044600004460028EED168680DF0BAFE204638BD3B
:104470000050002000B5124885B000F06DF80190A2
:1044800030B107EE900AB8EE670A05B05DF804FB9C
:1044900003A800F0A5F948B900F072F860B99DEDE5
:1044A000030ABBEECA0A05B05DF804FB10F00EFA71
:1044B00000F066F80028F2D010F008FAEFE700BF2D
:1044C0000050002008B50A4800F046F860B900F036
:1044D00029F930B900F054F808B110F0F7F90020CC
:1044E00008BD10F0F3F9F5E710F0F0F9EFE700BFC1
:1044F0000050002000B5094B85B01B688DF80C00FA
:104500008DF80D10197898680023009303AA0223F0
:104510000EF064FC05B05DF804FB00BF18500020ED
:10452000F0B585B004AA0B4D02F8010D2B681E787A
:10453000986801240F460094314623460EF04EFC45
:1045400030B929683A468868097823460EF09AFC03
:1045500005B0F0BD1850002038B50346074DD968A6
:104560002B60002280681346FCF7AEF9044618B9A8
:104570002B6898680EF006FC204638BD18500020C5
:1045800010B5064C236898680EF00CFC23689868F8
:104590000EF0A8FB0020206010BD00BF18500020C6
:1045A00070B5124C236884B0EBB104AA0F2102F855
:1045B000011D012519780646986800952B460EF0D6
:1045C0000DFC08B104B070BD22682B4690681178CC
:1045D00032460EF057FC0028F4D13378B12B0CBFD3
:1045E00000200520EEE7082004B070BD1850002020
:1045F00030B54B4D2B6885B0ABB188B102788DF8E2
:104600000D200B228DF80C201978044698680023A1
:10461000009303AA02230EF0E1FB38B105B030BDD0
:104620000E2005B030BD082005B030BD63882A6873
:104630001B0A0D218DF80D308DF80C109368117840
:10464000009003AA184602230EF0C8FB0028E5D10B
:10465000A2782B688DF80D200C228DF80C209A681A
:10466000197800900223104603AA0EF0B7FB002829
:10467000D4D123792A6803F07F0310218DF80D30FF
:104680008DF80C1093681178009003AA1846022345
:104690000EF0A4FB034608B11846BFE7627929680B
:1046A00002F0FD0211208DF80D208DF80C008868B5
:1046B0000978009303AA02230EF090FB034600281A
:1046C000EAD1A1792A688DF80D1012218DF80C100D
:1046D00090681178009303AA02230EF07FFB002854
:1046E0009CD11420E179FFF705FF002896D103A99A
:1046F0001A20FFF715FF002890D1227A9DF80C3080
:10470000D2074BBF03F0030303F0020343F001039E
:10471000DBB219461A208DF80C30FFF7EBFE7DE76F
:104720001850002070B51B4C236884B0F3B104AA64
:10473000112602F8056D01259868197800952B4619
:104740000EF04CFB08B104B070BD22682B46906897
:1047500011780DF10A020EF095FB0028F3D19DF8B7
:104760000A3013F0010504D03046ECE7082004B00D
:1047700070BD22688DF80C6043F001038DF80A309B
:104780008DF80D3011789068009503AA02230EF081
:1047900025FBD8E71850002070B5104D2B6884B069
:1047A000CBB1A8B104AA272102F8011D012619786E
:1047B00004469868009633460EF010FB30B929681D
:1047C00022468868097833460EF05CFB04B070BD61
:1047D0000E2004B070BD082004B070BD1850002039
:1047E00070B52E4D2B6884B093B170B104AA282106
:1047F00002F8031D0126197804469868009633468E
:104800000EF0ECFA38B104B070BD0E2004B070BDEB
:10481000082004B070BD2B680DF10A029868197861
:1048200033460EF02FFB0028EDD104AA292302F80D
:10483000023D2B6819789868009633460EF0CEFA40
:104840000028E0D12B680DF10B02986819783346E7
:104850000EF018FB0028D6D104AA2A2302F8013D45
:104860002B6819789868009633460EF0B7FA00283E
:10487000C9D12A6833469068117803AA0EF002FB6A
:104880000028C0D19DF80B309DF80C109DF80A202F
:104890001B0203EB014313442360B4E718500020CC
:1048A00070B5214C236884B093B170B104AA2B2158
:1048B00002F8021D012619780546986800963346CD
:1048C0000EF08CFA38B104B070BD0E2004B070BD8B
:1048D000082004B070BD236803AA9868197833468D
:1048E0000EF0D0FA0028EED104AA2C2302F8013DE4
:1048F000236819789868009633460EF06FFA0028FE
:10490000E1D122683346906811780DF10D020EF066
:10491000B9FA0028D7D19DF80D209DF80C3003EB93
:1049200002232B80CFE700BF18500020F0B51C4CAD
:10493000236885B0002B30D004AA102702F8057D2B
:10494000012519780646986800952B460EF046FA20
:1049500008B105B0F0BD22682B46906811780DF1C2
:104960000A020EF08FFA0028F3D19DF80A2022F0F7
:10497000700343EA0616F6B2B242EAD023688DF815
:104980000D209A688DF80C7019780090022310465B
:1049900003AA0EF023FA05B0F0BD082005B0F0BD63
:1049A00018500020014B00201B6918471C500020A4
:1049B00008B50B4B5B68834200D008BD4FF0A042A6
:1049C000D2F81005D84010F00100F6D10146054A92
:1049D0000FF0BAFF0028F0D0BDE808400FF076BF16
:1049E0001C500020A5490200C8B18368BBB1C36850
:1049F000ABB103699BB130B5204C236103784568A6
:104A00008168C268237083B0002320466560A1607E
:104A1000E260237500F05EF918B103B030BD0E20DE
:104A2000704700F07BF90028F7D104F1160000F080
:104A300005FA0028F1D1124800F09AF90028ECD1CB
:104A40000DF1030000F0D6F90028E6D19DF80330FF
:104A50009A0702D100F052F9DFE701A800F05AFAF4
:104A60000028DAD10DF1060000F09AFA0028D4D11E
:104A70009DF803309B07E3D1ECE700BF1C500020FA
:104A8000AC55040030B51B4C237D83B013B100201E
:104A900003B030BD01232046237500F01BF9002828
:104AA000F6D1154800F064F90028F1D100F026F99C
:104AB0000028EDD165680DF00DFA18B90DF0BCF9BC
:104AC0000028E5D102A9032301F8043D284600236C
